:020000040800F2
:10000000100A0020F1010008255D00082B4E0008B1
:10001000215D00088D110008F17F0008000000003C
:100020000000000000000000000000002D63000838
:10003000B512000800000000AD5D0008C1630008B3
:100040000B0200080B0200080B0200080B0200085C
:100050000B0200080B0200080B0200080B0200084C
:100060000B0200080B0200080B02000891110008A7
:10007000A11100080B0200080B0200080B02000887
:100080000B020008000000000B0200080B02000831
:100090000B0200080B0200080B0200080B0200080C
:1000A0000B0200080B0200080B0200080B020008FC
:1000B0004D6400085D6400080B0200080B02000894
:1000C0000B0200080B0200080B0200080B020008DC
:1000D0000B020008E17F00080B0200080B02000879
:1000E0000B0200080B0200080B0200080B020008BC
:1000F0000B0200080B0200080B02000800000000C1
:10010000000000000B020008000000000B020008C5
:100110000B020008000000000B0200080B020008A0
:100120000B0200080B0200080B0200080B0200087B
:100130000B02000800000000000000000B02000895
:100140000B0200080B020008000000000000000085
:10015000000000000000000000000000000000009F
:100160000000000000000000000000000B0200087A
:100170000B0200080000000000000000000000006A
:10018000000000000B02000800000000000000005A
:10019000000000000000000000000000000000005F
:1001A00000000000000000000B0200080B02000825
:1001B0000B0200080B0200080B0200080000000000
:1001C000000000000B02000800000000000000001A
:1001D0000B0200080B020008DFF810D000F094FCBE
:1001E000004800478D8A0008AFF30080100A002005
:1001F0000648804706480047FEE7FEE7FEE7FEE7C1
:10020000FEE7FEE7FEE7FEE7FEE7FEE739640008EB
:10021000D90100082DE9F05F0546002092469B4673
:1002200088460646814640241BE02846414647460C
:10023000224600F045FA53465A46C01A914110D35F
:1002400011461846224600F02CFA2D1A67EB0108D9
:100250004F4622460120002100F023FA17EB000947
:100260004E41201EA4F10104DFDC484631462A46F7
:100270004346BDE8F09FD2B201E000F8012B491ED1
:10028000FBD270470022F6E710B513460A46044633
:100290001946FFF7F0FF204610BD30B50546002097
:1002A000034600E05B1C934205D2EC5CC85C201A5C
:1002B00001D1002CF6D130BD0FB400B58DB010A91E
:1002C00009900B9000914FF0FF300A9000200C90A5
:1002D00005480690054807906A4609A80F9900F05E
:1002E00005FA0DB05DF814FB0907000827070008A0
:1002F0002DE9FF4F087883B09946FF2805D0491CA7
:100300002D2804D00024002008E000200BE0012468
:10031000F9E700EB800003EB4000491C0B78FF2B52
:10032000F7D104B1404200230293147819461D46C8
:100330002D2C01D02B2C04D1521C2D2C13D0002499
:100340000294AA461478FF2C0FD00A25A3FB057847
:1003500001FB05814FF0000C03FB0C11521CE3194B
:100360004AEB0101EEE70124EAE7814453EA010088
:1003700002D019F5C87F06DA03980021C0E9001100
:1003800007B0BDE8F08F0025AE4E2F46DFF8B882EB
:10039000184600F061FBCDE90001B9F1000002DA76
:1003A000C9F1000400E004460023A74A1AEB030B3E
:1003B00042EB045A12E0E00707D02A46334638469B
:1003C000414600F068FA074688462A4633461046FA
:1003D000194600F060FA05460E466410002CEAD17A
:1003E000DDE90001B9F1000F5A46534606DA00F084
:1003F000C4FA3A46434600F0C0FA05E000F04BFA72
:100400003A46434600F047FA029A0AB181F00041A9
:10041000039AC2E90001B3E72DE9FF4F1F468DB0F3
:10042000D7E901464FF0FF382E2045464FF000092E
:100430000B90B9696D1C0E988847396A82468847C7
:100440000028F6D1BAF1FF3F0AD024F4D064002E80
:1004500011DDBAF12B0F08D0BAF12D0F0BD102E04C
:10046000404611B08DE744F48064B9696D1C0E9864
:1004700088478246761E6946600501D52D2000E03A
:100480002B208DF8000001F1010B0DF1200809E08F
:10049000B9696D1C0E98884782460F9844F4007421
:1004A000761E0560002E02DDBAF1300FF0D00B99F8
:1004B0008A453ED144F0800406E00F99681CA9F1FA
:1004C000010944F400740860B9696D1C761E0E9829
:1004D000884782463028F0D02BE00B998A4505D119
:1004E000200603D444F08004761E18E0504607F03E
:1004F00093FE08B30DF11301761E44F400748B458E
:1005000008D2AAF130000BF8010B200607D5A9F19B
:10051000010003E0200602D409F101008146A00594
:1005200002D50F99681C0860B9696D1C0E98884740
:100530008246002ED1DC53E0002E51DDBAF1650F6A
:1005400002D0BAF1450F4BD1A00549D5B9696D1C50
:1005500024F44074761E0E9888478246002E0CDDE7
:100560002B2804D0BAF12D0F07D144F48074B96957
:100570006D1C0E9888478246761EE00501D52D2118
:1005800000E02B2108F8011BCDF82C8021E00DF1B3
:100590002901761E44F4007488450CD2AAF130007B
:1005A00010F0FF0088F8000002D10B99884509D9A6
:1005B00008F1010806E0E00501D5244801E042F217
:1005C0000F708146B9696D1C0E98884782460F9856
:1005D0000560002E04DD504607F01EFE0028D6D12F
:1005E000F9690E988847FF208BF8000088F8000012
:1005F0000020069007904B466A4608A906A8FFF718
:1006000077FEA00502D46FF001002AE714F0240F52
:100610000AD0E00714D1DDE906123868031D3B60FB
:100620000068C0E900120BE0DDE9060100F050FAB5
:100630000146E00704D13868021D3A600068016095
:1006400028460EE7000014400000F03FF1D8FFFFFD
:1006500000F0004230F000400AD0C10D01F5607199
:10066000C0F3160042EA0151C20840071143704727
:1006700000200146704730B50B460146002020227D
:10068000012409E021FA02F59D4205D303FA02F59F
:10069000491B04FA02F52844151EA2F10102F1DCFF
:1006A00030BD202A04DB203A00FA02F10020704716
:1006B0009140C2F1200320FA03F3194390407047A0
:1006C000202A04DB203A21FA02F00021704721FAA7
:1006D00002F3D040C2F1200291400843194670470E
:1006E000026811441378016018467047D1600449CC
:1006F00051610449116200211161114600F02EBAC6
:10070000E1060008510B0008426842B1016811F887
:10071000013B23B1521EC0E9001218467047012167
:10072000C160881E704742685AB1C368016843B906
:1007300083688B4205D0491E521CC0E9001200207C
:1007400070474FF0FF3070472DE9FE4F804681EA39
:100750000300C00F0C46009021F0004123F000453B
:10076000B8EB0200A94105D24046214690461C46FE
:100770000B46024623F00040104347D0270DC7F335
:100780000A00C3F30A510290401A019040286BDA24
:10079000C3F3130040F4801B0098924620B100235D
:1007A000D2EB030A63EB0B0B01985946C0F14002F0
:1007B0005046FFF776FF06460D4650465946019AC9
:1007C00000F0B4F910EB08006141002487EA1152EF
:1007D00084EAE7731A4340D0009A62B3019A012A6F
:1007E0004FEA075215DC001B61EB02014FF000429B
:1007F00002EA0752CDE90042001C41F58011324661
:100800002B4600F089FB03B0BDE8F08F404621463F
:10081000F9E7001B61EB0201001C41F58013001891
:100820005B412018A2F5001747EB030140EAD570A1
:10083000B6196D4111E06D084FEA360645EAC075FC
:100840004FEA0752001B61EB0201001C41F58011C9
:1008500049084FEA30000019514132462B4603B097
:10086000BDE8F04F00F049BB009801224000002392
:10087000D0EB020263EBE073009821464FEAE0748C
:10088000B8EB000061EB0401E9E783F000435BE7AC
:1008900081F0004158E72DE9FE4F81EA030404F09E
:1008A000004421F0004100944FF0000B23F000437E
:1008B00050EA01045ED052EA03045BD0C3F30A5449
:1008C000C1F30A552C44A4F2F3340194A0FB025462
:1008D000C1F3130141F48011C3F3130343F48013F4
:1008E00001FB024400FB034E840A970A44EA815448
:1008F00047EA8357A4FB076802958D0A05FB078525
:100900004FEA932C04FB0C542705029D4FEA06582E
:1009100047EA1637B5EB08056EEB070C870E920E0B
:1009200047EA811742EA8312A7FB0201B6EB0B01EB
:1009300064EB00042B0D43EA0C335E1844EB1C50AF
:10094000DA465146E7FB0201C5F313044FEA0B33C5
:1009500043EA14534FEA0432019C43EA0603A4F12C
:100960000C040294009CCDE900B400F0D5FA03B069
:10097000BDE8F08F00200146F9E72DE9F04D81EA4E
:10098000030404F0004B21F0004514464FF0000A28
:1009900023F0004150EA050220D054EA01021DD0A4
:1009A000C5F30A570246C5F31303C1F31300C1F39D
:1009B0000A5640F4801543F48013A7EB0608101B79
:1009C000D64608F2FD3873EB050002D308F10108A2
:1009D00001E092185B41B8F1000F03DA00200146F4
:1009E000BDE8F08D00204FF48011064684460EE0ED
:1009F000171B73EB050705D3121B63EB05030643B7
:100A00004CEA010C49084FEA300092185B4150EA69
:100A10000107EDD152EA030012D082EA040083EA12
:100A20000501084305D0101BAB4106D2012200236B
:100A300006E000224FF0004302E06FF00102531085
:100A40001AEB06004CEB085110EB0A0041EB0B01CE
:100A5000BDE8F04D00F051BA0EB540F233420292BB
:100A60000022CDE90022134600F056FA03B000BD83
:100A7000C1F30A52C1F3130140F2FF3341F4801174
:100A80009A4202DA00200146704740F233439A420C
:100A9000A2F2334202DC5242FFF712BEFFF701BE60
:100AA00030B5041E71F1000404DB4FF000444042F5
:100AB00064EB0101141E73F1000405DB1C464FF0CA
:100AC0000043524263EB0403994208BF904230BD99
:100AD00001F0004330B421F0004150EA010206D099
:100AE0000A0DA2F56072C1F31301002A02DC30BCCA
:100AF00000207047440F44EAC104C100E01830BC34
:100B000000EBC25000F0C2B9064C074D06E0E068A9
:100B100040F0010394E8070098471034AC42F6D344
:100B2000FFF75EFB5C9D00087C9D0008202A06DB29
:100B3000CB17203A41FA02F043EAE07306E041FAAB
:100B400002F3D040C2F12002914008431946704799
:100B5000C0B24FF4F05100F02DBA00002DE9F34F70
:100B60008BB04FF0000801F10C000C464FF0010B68
:100B700046460DF1080A01906269012101989047EB
:100B8000051E2DD0252D2CD0216A8847C0B1626961
:100B9000012101989047216A88470028F7D1411E1A
:100BA00062690198904700E0761CA1690B9888471C
:100BB000216A88470028F7D1E1690B988847DBE76D
:100BC000A1690B9888470746A84201D1761CD3E754
:100BD000E1690B9888477F1C02D1B8F1000F6FD0F4
:100BE00047E1002762693D463946019890472A2827
:100BF00004D162690121019890470125DFF88892AC
:100C00006269012101989047A0F130010A290AD2B6
:100C10004F45E5DC07EB870100EB4107303FDFD4B0
:100C200045F01005ECE7E90601D46FF000476C28A9
:100C30000AD04C2814D0682815D06A280DD0742802
:100C40001CD07A281AD01DE06269012101989047D2
:100C50006C2802D045F0040514E045F002050DE0D3
:100C600045F020050AE06269012101989047682853
:100C700002D045F0080505E045F4006562690121F0
:100C800001989047C4E9015765283DD019DC5828E0
:100C90007AD00CDC452837D004DC252826D0412822
:100CA00031D131E046282FD047282CD12CE05B28C9
:100CB00077D0612828D063287CD0642823D15AE0DB
:100CC000D1E06F2848D008DC66281DD067281BD0EB
:100CD000692821D06E2816D127E0702845D07328C6
:100CE00068D0752847D078280DD14DE0A1690B98C0
:100CF0008847054625283FF469AFE1690B98884786
:100D00006D1C3FF46AAFB4E023466A466FF0010001
:100D10000B99FFF781FB9FE045F040006060A8075A
:100D200023464FF0000236D43EE0E8077FF447AF99
:100D30002068011D21600068290501D506701BE7A8
:100D4000290701D5068017E7A90703D5F117C0E9E0
:100D5000006111E706600FE745F040006060A807FA
:100D600023464FF0080216D41EE040F60E0125EA95
:100D70000100606016E045F040006060A80723466F
:100D80004FF00A0207D40FE045F040006060A8076A
:100D900008D5234610226FF001000B99AFF30080B5
:100DA0005AE007E0234610226FF001000B99AFF3E1
:100DB000008051E04FF000094F464B46632802D0B7
:100DC0005B2807D041E02079C00601D40120A06053
:100DD00001273AE062690121019890475E2805D118
:100DE0004FF001096269494601989047216939B974
:100DF00000210A46534643F82120491C0829FADB02
:100E0000B0B3216969B9C11700EBD16253110AEB84
:100E1000830122F01F02821A01200B6890400343D5
:100E20000B6062690121019890475D28E8D1B9F112
:100E3000000F09D00020514651F82020D24341F83C
:100E40002020401C0828F7DB02AB224600976FF0F9
:100E500001000B99AFF3008000280CDA401C08D188
:100E6000BBF1000F05D04FF0FF300DB0BDE8F08FA3
:100E7000FFE74046F9E7E90701D108F10108064418
:100E80004FF0000B78E60000CCCCCC0C0029A8BFBA
:100E90007047401C490008BF20F00100704710B4A3
:100EA000B0FA80FC00FA0CF050EA010404BF10BC58
:100EB000704749B1CCF1200421FA04F411FA0CF185
:100EC00018BF012121430843A3EB0C01CB1D4FEABE
:100ED00000614FEA102042BF002010BC704700EBB9
:100EE000C35010440029A4BF10BC7047401C4900E7
:100EF00008BF20F0010010BC704710B5141E73F13C
:100F0000000408DA401C41F1000192185B411A43C9
:100F100001D120F0010010BD2DE9F04D92469B4615
:100F200011B1B1FA81F202E0B0FA80F220329046BB
:100F3000FFF7B7FB04460F4640EA0A0041EA0B01FF
:100F400053465A46084313D0114653EA010019D0BC
:100F5000C8F140025046FFF7B3FB05460E46504627
:100F600059464246FFF79DFB084305D0012004E0A7
:100F700020463946BDE8F08D0020054346EAE0767C
:100F80002C4337430A986305E40AA0EB08000022CB
:100F9000FD0A44EA47540A3002D500200146E9E739
:100FA000010510196941DDE9084500196941BDE8ED
:100FB000F04DA2E77F2801D9002208E0064A02EBA3
:100FC0005002C007127800D1120902F00F0201206E
:100FD00090400840704700001C9D000870B5054611
:100FE000AC6AE06D00F0500098BBE06D40F400701A
:100FF000E0652068006800F00800A8B1206804F0EF
:1010000031FB10B32068C06800F40050E8B9E06D0F
:1010100020F48070E065E06D00F48050A8B9E06DC8
:1010200040F00100E06510E02068C06800F00200B8
:1010300058B9E06D20F48070E065E06D00F48050F8
:1010400018B9E06D40F00100E065204600F07CFD3D
:101050000CE0FFE7E06D00F0100018B1204600F052
:1010600075FD03E0606D416B2846884770BD70B523
:101070000546AC6AE06D40F04000E065206E40F04F
:1010800004002066204600F061FD70BD70B5044686
:10109000A56A284600F059FD70BD000038B5044629
:1010A00000200090206804F0C4FA00284FD1206886
:1010B00080682849084048B1E06D40F01000E065C4
:1010C000206E40F001002066012038BD206804F049
:1010D00095FA00BF2048806800F0E07000F400003E
:1010E00080B11E4800681E49B0FBF1F0401C00EBC7
:1010F00040008000009002E00098401E00900098A0
:101100000028F9D101F092FA05461AE0206804F0AF
:1011100090FA10B9206804F071FA01F087FA401BC8
:1011200002280ED92068006800F0010048B9E06D7F
:1011300040F01000E065206E40F0010020660120C4
:10114000C3E72068006800F001000028DED000201E
:10115000BBE700003F0000800003005010000020AB
:10116000400D030010B51E220549064800F0F0FEB0
:101170001E2203493C31044800F0EAFE10BD000085
:1011800084050020080100207401002000BFFEE754
:1011900010B5024800F0EFFF10BD0000E001002094
:1011A00010B5024800F0E7FF10BD0000400200202B
:1011B00030B5114D0468AC4206D210490478083CA1
:1011C0001425B4FBF5F207E00C4920310478083C03
:1011D0001425B4FBF5F4A21D0B46446CA40803EBE4
:1011E00084048464054C8034C46402F01F05012427
:1011F000AC40046530BD0000080402400008024015
:10120000027902F07F014A1E064B03EB820242651F
:10121000044A403282654A1E02F01F0301229A40AE
:10122000C26570470009024030B5D0E913546C60C4
:10123000446D14B1D0E916546C6090F8444004F049
:101240001F050124AC40056C6C6004686360846811
:10125000102C04D10468A2600468E16003E0046813
:10126000A1600468E26030BD10B507F065FB0E4870
:1012700090ED000A0D4880ED020A0B4890ED010A3E
:101280000A4880ED010A90ED020ADFED090A20EE1E
:10129000200ABCEEC00A10EE100A00F57A7003496D
:1012A000C86107F021FC10BDD4000020140000200C
:1012B00000007A447047002109E0002201E0531C3D
:1012C0009AB240F6B8339A42F9DB4B1C99B281428C
:1012D000F3DB70470149087548757047140000201A
:1012E00008B50020009001220021684607F071FB3C
:1012F000052001F08BF89DF8000055280ED104223E
:101300000821184807F065FB052001F07FF804224A
:1013100010211448001D07F05CFB22E0B0EE040A27
:1013200010480C3880ED030A4FF47A700D490C39DF
:101330000861042208210B4807F075FB052001F025
:1013400065F8042210210748001D07F06CFB0520FA
:1013500001F05CF85520009001220021684607F05A
:1013600062FB08BD2000002010B52948807D0128BF
:1013700012D12848007878B9254890ED030A26480C
:1013800080ED000A224800692449086001202149B3
:10139000087000201E4988751E480078012804D076
:1013A00002280FD003282CD120E0042208211A485B
:1013B00007F039FB01F03AF9194908600220154994
:1013C000087022E001F032F915490968401A0A282C
:1013D0000BD304221021114807F025FB01F026F958
:1013E0000F49086003200B4908700EE001F01EF958
:1013F0000B490968401A0A2802D3002005490870E1
:1014000003E000200349087000BF00BF10BD0000CA
:1014100014000020B8000020C0000020C4000020FC
:10142000BC00002072B600BFFEE7000010B500212E
:10143000034802F07DFD0021024802F079FD10BD55
:10144000140300206003002010B501F0EFF80446FB
:101450002E48007802281ED100202D4909682D4A07
:101460001268914205D32A4909682A4A1268881AE3
:1014700007E028490968C1F1FF31254A1268114483
:10148000481C20B12449B1FBF0F1244A51620021EB
:101490001E4A117000BF22480068201AB0F57A7FFA
:1014A00004D900201D494862184908701D48007879
:1014B00002281FD100201C4909681C4A1268914269
:1014C00005D319490968194A1268881A08E01749AA
:1014D00009684FF6FF72511A134A12681144481CEA
:1014E00020B10D49B1FBF0F10C4A916200210D4A87
:1014F000117000BF0E480068201AB0F57A7F04D939
:101500000020064988620749087010BDE4000020E9
:10151000E0000020DC00002040420F00140000200A
:10152000E8000020F4000020F0000020EC00002083
:10153000F80000202DE9F0439BB004460E464FF022
:101540000008306800B100BF00BF94F858000128BF
:1015500003D102201BB0BDE8F083012084F85800BD
:1015600000BF0020179018902068B0F1A04F02D162
:101570003148009001E000200090009850B9E06DE3
:1015800040F02000E06500BF002084F8580000BF54
:101590000120DFE7009804F060F80746206804F0B7
:1015A0005CF8D8BBD7BB254D306800B394F8380041
:1015B000716841EA4030A96821F460410843A8609D
:1015C0004FF0A04004F03AF881461B4804F036F88A
:1015D00049EA0009B9F1000F27D1B1683068084322
:1015E000A96840F61F7291430843A8601DE0A868EF
:1015F00020F46040A8604FF0A04004F01FF881463E
:101600000D4804F01BF849EA0009B9F1000F0CD1AC
:10161000A86840F61F718843A86006E0FFE7E06D08
:1016200040F02000E0654FF0010800BF002084F882
:10163000580000BF40468DE70001005000030050F5
:101640002DE9F84F05460C464FF0000A00200090A7
:10165000FE49E068884200D000E000BF00BF95F876
:101660005800012802D10220BDE8F88F012085F83A
:10167000580000BF286803F0EBFF00287DD12968DF
:10168000D4E9002001F1300CC0F3012B0CEB8B03EB
:10169000D3F800C000F01F0E4FF01F0B0BFA0EFB2B
:1016A0002CEA0B0C00F01F0BC2F3846E0EFA0BFE3B
:1016B0004CEA0E0CC3F800C000BF286803F0C8FF56
:1016C0008146286803F0B0FF8046B9F1000F64D16D
:1016D000B8F1000FFBD1A068B0F1004F0AD121682A
:1016E0000022286803F0D0FF4FF00041286803F083
:1016F000F0FF08E0A2682168286803F0C5FF002118
:10170000286803F0E6FF60692968C968C1F3C10170
:10171000490000FA01F7206904283FD028682268B0
:10172000216900F1600C0CEB8103D3F800C0DFF8F5
:1017300020B30CEA0B0C02F0F84B4BF0004B4BEAD9
:10174000070B4CEA0B0CC3F800C000BF2868A26965
:10175000216900F1600C0CEB8103D3F800C02CF080
:10176000807C4CEA020CC3F800C000BF2868227FCE
:101770002169012A02D1520601E0C6E10022134686
:1017800000F1600C0CEB8102D2F800C02CF0007C60
:101790004CEA030CC2F800C000BFA7E00021286893
:1017A00003F039FFC0F3120030B90021286803F0BC
:1017B00032FFC0F3846007E00021286803F02BFFAC
:1017C00090FAA0F0B0FA80F02168C1F3120119B9C3
:1017D0002168C1F3846104E0216891FAA1F1B1FAB2
:1017E00081F1884204D100221146286803F066FF87
:1017F0000121286803F00FFFC0F3120030B9012166
:10180000286803F008FFC0F3846007E0012128681E
:1018100003F001FF90FAA0F0B0FA80F02168C1F364
:10182000120119B92168C1F3846104E0216891FAB9
:10183000A1F1B1FA81F1884204D100220121286886
:1018400003F03CFF0221286803F0E5FEC0F312001C
:1018500030B90221286803F0DEFEC0F3846007E09F
:101860000221286803F0D7FE90FAA0F0B0FA80F0C9
:101870002168C1F3120119B92168C1F3846104E040
:10188000216891FAA1F1B1FA81F1884204D10022D4
:101890000221286803F012FF0321286803F0BBFE31
:1018A000C0F3120030B90321286803F0B4FEC0F37E
:1018B000846007E00321286803F0ADFE90FAA0F0F1
:1018C000B0FA80F02168C1F3120119B92168C1F39F
:1018D000846104E0216891FAA1F1B1FA81F18842B2
:1018E00004D100220321286803F0E8FE286803F0F1
:1018F000A0FE002872D12868E2682168D0F8B030D4
:10190000C1F3120C23EA0C0302F0180BDFF844C1F8
:101910002CFA0BFC0CEA010C43EA0C03C0F8B030C3
:1019200000BF4A49E068884258D12368C3F31203D4
:101930001BB92368C3F3846304E0236893FAA3F319
:10194000B3FA83F35B1C03F01F03092B3ED8236813
:10195000C3F312031BB92368C3F3846304E0236851
:1019600093FAA3F3B3FA83F35B1C03F01F034FF066
:10197000010C0CFA03FC2368C3F312031BB92368A0
:10198000C3F3846304E0236893FAA3F3B3FA83F305
:101990005B1C03F01F034CEA836C2368C3F3120340
:1019A0001BB92368C3F3846304E0236893FAA3F3A9
:1019B000B3FA83F35B1C03F01F0303EB43034FF005
:1019C000000B4BEA03534CEA030347E02368C3F3DD
:1019D000120323B92368C3F3846305E043E023685B
:1019E00093FAA3F3B3FA83F35B1C03F01F034FF0E6
:1019F000010C0CFA03FC2368C3F312031BB9236820
:101A0000C3F3846304E0236893FAA3F3B3FA83F384
:101A10005B1C03F01F034CEA836C2368C3F31203BF
:101A20001BB92368C3F3846304E0236893FAA3F328
:101A3000B3FA83F35B1C03F01F030A3B03EB43037E
:101A40004FF0007B4BEA035306E0000000007F40AC
:101A500000F0FF03FFFF07004CEA03031946A268EA
:101A6000286803F011FE2F492068084050B300BFDA
:101A70002D48806800F0E07600BF2C49206888423D
:101A800003D02B49206888421DD106F40000D0B94C
:101A90002868B0F1A04F3ED146F40001224803F07F
:101AA00007FE244800682449B0FBF1F0401C00EB1D
:101AB00040008000009002E00098401E00900098D6
:101AC0000028F9D127E01D49206888420CD106F092
:101AD000807048B91A49286888421CD046F0807145
:101AE000114803F0E5FD16E016492068884212D13E
:101AF00006F4800078B91249286888420BD046F471
:101B00008001094803F0D4FD05E0E86D40F02000B5
:101B1000E8654FF0010A00BF002085F8580000BFBB
:101B20005046A1E50000088000030050000021C3DA
:101B30001000C09010000020400D0300000052C7AC
:101B400000010050000084CB7047704770470000D0
:101B50002DE9F84304464FF000080020009014B926
:101B60000120BDE8F883606920B194F824000128C1
:101B700000D100BFE06D30B9204600F017F9002019
:101B8000206684F8580020688168C1F3407131B143
:101B9000206881687E4A1140816000BF00BF2068D4
:101BA00003F051FDB0B9206881687A4A114041F0D4
:101BB0008051816000BF784800687849B0FBF1F03F
:101BC000401C4000009002E00098401E00900098E9
:101BD0000028F9D1206803F036FD48B9E06D40F0E7
:101BE0001000E065206E40F0010020664FF0010813
:101BF000206803F02DFD0646E06D00F0100000287F
:101C000077D1002EFCD1E06D20F4807040F002000E
:101C1000E065206803F00DFDB0B94FF0A04003F07F
:101C200008FD81465E4803F004FD49EA0009B9F168
:101C3000000F09D160685B49896821F47C11014378
:101C4000584A916000BF00BF607FE16B41EA4030BD
:101C5000E1680843A168084394F8241040EA01456C
:101C600094F82400012803D1208D401E45EA404508
:101C7000E06A28B1A08D00F47870216B0843054319
:101C80002068C0684849084028432168C860206827
:101C9000006920F04060616B08432168086120689A
:101CA00003F0C2FC0746002E50D1EFBB207F00217D
:101CB00041EA803194F8380041EA40052068C06864
:101CC00044F20201884328432168C860206988B132
:101CD0002068006940F48030216808612068D0F8ED
:101CE000C0006FF30D00216908432168C1F8C000EE
:101CF0000EE045E02068006920F48030216808612A
:101D00002068D0F8C0006FF30D002168C1F8C00052
:101D100094F84000012813D1606C40F00101A06CE0
:101D20000843E16C084300E010E0216D084321689E
:101D3000096940F2FC72914308432168086105E09B
:101D40002068006920F001002168086160690128AD
:101D500009D12068006B20F00F00216A491E08435A
:101D60002168086305E02068006B20F00F002168FF
:101D70000863E06D20F0020040F00100E06505E03E
:101D8000E06D40F01000E0654FF001084046E8E6E5
:101D9000C0FFFF5FC0FFFF7F10000020400D030069
:101DA00000010050000300500740F0FF10B598B04C
:101DB0000446142113A8FEF765FA442102A8FEF791
:101DC00061FA2068B0F1A04F56D14FF40040029064
:101DD0008003119002A800F095FD08B1FFF722FBE7
:101DE00054480068401C53490860084600680128B0
:101DF0000DD100BF5048C06C40F400504E49C8643B
:101E00000846C06C00F40050019000BF00BF00BF46
:101E10004948C06C40F002004749C8640846C06C9D
:101E200000F00200019000BF00BF8814139003204F
:101E300014900020159013A9404800F0FBFA404888
:101E4000404908600520486000213E488160C1602B
:101E50008021016149004161890081612021C161C6
:101E60000021016200F006FA08B1FFF7DBFA00BFBB
:101E70003448606584625BE033492068884257D10A
:101E8000C00102908003119002A800F03BFD08B150
:101E9000FFF7C8FA27480068401C26490860084632
:101EA000006801280DD100BF2348C06C40F40050E9
:101EB0002149C8640846C06C00F40050019000BF7E
:101EC00000BF00BF1C48C06C40F002001A49C86443
:101ED0000846C06C00F00200019000BF00BF4FF444
:101EE00000401390032014900020159013A913486C
:101EF00000F0A0FA12481430144908602420486009
:101F0000002112488160C160802101614900416166
:101F1000890081612021C1610021016200F0AAF9DC
:101F200008B1FFF77FFA00BF08486065846200BF10
:101F300018B010BD0000002000100240000400484E
:101F400008000240E0010020000100504002002093
:101F50002DE9F04104460F4690463D4803F056FBFC
:101F60000646206803F074FB00286DD100BF94F88A
:101F70005800012802D10220BDE8F081012084F838
:101F8000580000BF1EB1052E01D0092E56D12046A3
:101F9000FFF784F80546002D4BD1E06D40F6016156
:101FA000884340F48070E0652A492068884202D165
:101FB0004FF0A04000E020682168884200D01EB9A0
:101FC000E06D20F48010E065E06D00F4805020B1F9
:101FD000206E20F00600206601E0002020661E48EA
:101FE000616DC8621D48616D08631D48616D48637D
:101FF0001C202168086000BF002084F8580000BF42
:102000002068406840F01000216848602068C0687F
:1020100040F001002168C860226802F14001434697
:102020003A46606D00F090F90546206803F024FB05
:102030000BE000BF002084F8580006E0012500BF37
:10204000002084F8580000E00225284694E70000AC
:102050000003005000010050DD0F00088D10000843
:102060006F1000080146002209B90120704791F85D
:102070002500022803D00420C863012227E0086855
:10208000006820F001000B6818600868006820F004
:102090000E000B681860886C006820F480708B6CF0
:1020A000186091F8440000F01F03012098400B6C69
:1020B0005860D1E913305860486D40B1486D0068F0
:1020C00020F480704B6D1860D1E916305860012003
:1020D00081F8250000BF002081F8240000BF1046D1
:1020E000C4E770B50446002594F8250002280BD0FB
:1020F0000420E063012084F8250000BF002084F85C
:10210000240000BF012534E02068006820F00100B1
:10211000216808602068006820F00E0021680860CF
:10212000A06C006820F48070A16C086094F84400F2
:1021300000F01F0101208840216C4860D4E9131091
:102140004860606D40B1606D006820F48070616D22
:102150000860D4E916104860012084F8250000BF0B
:10216000002084F8240000BFA06B10B12046A16BB2
:102170008847284670BD70B50446206C0568206805
:10218000066894F8440000F01F01042088402840AD
:10219000E0B106F00400C8B12068006800F020003B
:1021A00028B92068006820F004002168086094F8CD
:1021B000440000F01F0104208840216C4860206B1F
:1021C000002856D02046216B884752E094F84400FE
:1021D00000F01F0102208840284018B306F00200DA
:1021E00000B32068006800F0200040B92068006853
:1021F00020F00A0021680860012084F8250094F886
:10220000440000F01F0102208840216C486000BF9C
:10221000002084F8240000BFE06A50B32046E16A41
:10222000884726E094F8440000F01F010820884009
:102230002840F0B106F00800D8B12068006820F00E
:102240000E002168086094F8440000F01F0101208E
:102250008840216C48600120E06384F8250000BFBD
:10226000002084F8240000BF606B10B12046616B31
:10227000884770BD70B504460CB9012070BD304967
:10228000206888420BD22F492068401A1421B0FBE5
:10229000F1F0800060642B48083820640AE0284987
:1022A0002068401A1421B0FBF1F0800060642448DB
:1022B00008382064022084F825002068056847F665
:1022C000F0708543D4E9020108432169084361693C
:1022D0000843A1690843E1690843216A08430543AB
:1022E000206805602046FEF763FFA068B0F5804FC8
:1022F00001D100206060207900F07F00A16C0860AF
:10230000D4E913104860606860B16068042809D897
:102310002046FEF775FF0020616D0860D4E91610B5
:10232000486003E000206065A065E0650020E06390
:10233000012084F82500002084F8240000BF9DE7D8
:1023400008040240080002402DE9F04104460D4611
:1023500016461F464FF0000800BF94F824000128DD
:1023600002D10220BDE8F081012084F8240000BFE2
:1023700094F8250001283FD1022084F82500002090
:10238000E0632068006820F00100216808603B4697
:10239000324629462046FEF747FF206B30B12068C1
:1023A000006840F00E00216808600BE020680068BB
:1023B00020F00400216808602068006840F00A00EE
:1023C00021680860A06C006800F4803028B1A06C1F
:1023D000006840F48070A16C0860606D28B1606D89
:1023E000006840F48070616D08602068006840F00B
:1023F00001002168086006E000BF002084F8240086
:1024000000BF4FF002084046ACE7000070B504463C
:1024100000F00CF906462546681C10B10448006817
:10242000054400BF00F002F9801BA842FAD370BD3A
:102430000C00002078B503460022D2E00126964029
:102440000D6805EA0604002C7BD00D7905F0030524
:10245000012D04D00D7905F00305022D13D19868E4
:1024600056000325B540A8435600CD68B540284323
:102470009860586801259540A8430D79C5F300156B
:102480009540284358600D7905F00305032D07D1C9
:102490000D7905F00305032D0CD18D68012D09D0B0
:1024A000D86856000325B540A84356008D68B5404E
:1024B0002843D8600D7905F00305022D13D1D60805
:1024C00003F1200555F826005507EE0E0F25B540FF
:1024D000A8435607F60E0D69B5402843D60803F108
:1024E000200545F82600186856000325B540A84386
:1024F0000D7905F003055600B540284318604D6876
:1025000005F44035002D6BD000BF394D2D6E45F0E0
:102510000105374E356635462D6E05F001050095EF
:1025200000BF00BF4FEAB635960855F8260095075C
:102530002E0F0F25B540A843B3F1904F02D10025CF
:102540001AE04DE02B4DAB4201D1012514E02A4D9C
:10255000AB4201D102250FE0284DAB4201D103254A
:102560000AE0274DAB4201D1042505E0254DAB42E1
:1025700001D1052500E006259607360FB540284312
:10258000214D960845F82600204D2868A0434D6847
:1025900005F4801505B120431C4D28602D1D2868C9
:1025A000A0434D6805F4001505B12043174D2D1DBE
:1025B0002860164D2D1F2868A0434D6805F400358E
:1025C00005B12043114D2D1F28602D1F2868A04301
:1025D0004D6805F4803505B120430C4D083D286059
:1025E000521C0D68D540002D7FF428AF78BD000047
:1025F000001002400004004800080048000C004899
:102600000010004800140048080001400804014080
:10261000024613690B400BB1012000E00020704717
:102620000AB1816100E081627047000001480068E2
:10263000704700000400002003480068034909684F
:102640000844014908607047040000200C00002085
:1026500010B50024032000F0ABF80F2000F008F8BC
:1026600008B1012401E000F02FF8204610BD000061
:1026700070B50446002511480068D8B10F480068BD
:102680004FF47A71B1FBF0F00D490968B1FBF0F637
:10269000304601F003F958B9102C07D20022214628
:1026A000501E00F047F80748046004E0012502E0EE
:1026B000012500E00125284670BD00000C00002027
:1026C000100000200800002008B500BF0E48006E72
:1026D00040F001000C4908660846006E00F0010059
:1026E000009000BF00BF00BF0846806D40F08050E2
:1026F00088650846806D00F08050009000BF00BFE4
:1027000000F0F6F808BD000000100240014608463F
:1027100000280DDB00BF00BF00F01F0301229A401C
:1027200043099B0003F1E023C3F8002100BF00BF71
:1027300000BF70472DE9F05F80460D46164605F054
:102740007DFC074639462A46334601F00700C0F1B2
:10275000070ABAF1040F02D94FF0040A01E0C0F1F0
:10276000070AD14600F1040ABAF1070F02D24FF06E
:10277000000A01E0A0F1030AD4464FF0010A0AFA68
:1027800009FAAAF1010A0AEA020A0AFA0CFA4FF057
:10279000010B0BFA0CFBABF1010B0BEA030B4AEA42
:1027A0000B042146404605F051FCBDE8F09F0000B7
:1027B00000BF00F00702064B19684FF6FF031940EF
:1027C000044B0B4343EA0221014B196000BF7047E1
:1027D0000CED00E00000FA0502468ABB41480068A3
:1027E00000F4C060B0F5806F2BD13E4880300068A7
:1027F00020F480703B4BC3F880001846006820F43A
:10280000C06040F4007018603748006832235843B5
:10281000364BB0FBF3F0411C00E0491E31484069E3
:1028200000F48060B0F5806F01D10029F5D12D480A
:10283000406900F48060B0F5806F51D1032070478B
:1028400008E028488030006820F48070254BC3F8E9
:10285000800045E0B2F5007F3AD12248006800F4DC
:10286000C060B0F5806F2AD11E488030006840F407
:1028700080701C4BC3F880001846006820F4C060CC
:1028800040F4007018601848006832235843174B12
:10289000B0FBF3F0411C00E0491E1248406900F40F
:1028A0008060B0F5806F01D10029F5D10D484069F5
:1028B00000F48060B0F5806F12D10320BFE70948B3
:1028C0008030006840F48070064BC3F8800007E059
:1028D0000448006820F4C06040F48060014B186038
:1028E0000020ACE7007000401000002040420F00C4
:1028F0000348806840F480400149886070470000C8
:10290000007000402DE9F84304460027B8462068CF
:1029100000F40020B0F5002F73D1B946D348806D84
:1029200000F0805078B900BFD048806D40F08050F2
:10293000CE4988650846806D00F08050009000BF49
:1029400000BF4FF00109CA48006840F48070C849D0
:102950000860FFF76BFE064606E0FFF767FE801B88
:10296000022801D9032705E0C148006800F48070FF
:102970000028F2D000BF002F46D1BC48903000683C
:1029800000F44075CDB1206CA84216D0B748903005
:10299000006820F44075B548D0F8900040F48030CD
:1029A000B249C1F890000846D0F8900020F4803079
:1029B000C1F890000846C0F8905005F00100A0B1A1
:1029C000FFF734FE064608E0FFF730FE801B41F2B9
:1029D0008831884201D9032706E0A4489030006876
:1029E00000F002000028EFD000BF5FB99F48903090
:1029F000006820F44070216C08439C49C1F89000A5
:102A000003E00CE0B84600E0B846B9F1010F05D18B
:102A10009648806D20F080509449886500BF2078EA
:102A200000F0010048B191488830006820F00300B0
:102A3000616808438D49C1F88800207800F00200E1
:102A4000022809D189488830006820F00C00A1686C
:102A500008438649C1F88800207800F00400042863
:102A600009D182488830006820F03000E1680843CE
:102A70007E49C1F88800207800F00800082809D1B4
:102A80007A488830006820F0C000216908437749FF
:102A9000C1F88800207800F02000202809D1734870
:102AA0008830006820F44060616908436F49C1F8CC
:102AB0008800207800F04000402809D16B48883019
:102AC000006820F44050A16908436849C1F88800B3
:102AD000207800F08000802809D1644888300068A0
:102AE00020F44040E16908436049C1F8880020882B
:102AF00000F48070B0F5807F09D15C4888300068B0
:102B000020F44030216A08435849C1F888002088E1
:102B100000F40070B0F5007F09D154488830006897
:102B200020F44020616A08435049C1F88800208899
:102B300000F48060B0F5806F13D14C488830006895
:102B400020F44010A16A0843484988310860A06A0F
:102B5000B0F5801F05D14548C06840F48010434956
:102B6000C860208800F40060B0F5006F13D13F48C2
:102B70008830006820F44000E16A08433B4988310E
:102B80000860E06AB0F5800F05D13848C06840F4AD
:102B900080103649C860208800F48050B0F5805F0E
:102BA00013D132488830006820F04070216B084310
:102BB0002E4988310860206BB0F1807F05D12B4809
:102BC000C06840F480102949C860208800F4005093
:102BD000B0F5005F13D125488830006820F04060D0
:102BE000616B0843214988310860606BB0F1006F68
:102BF00005D11E48C06840F480101C49C860208878
:102C000000F48040B0F5804F13D118488830006838
:102C100020F04060A16B0843144988310860A06B24
:102C2000B0F1006F05D11148C06840F480100F4921
:102C3000C860208800F40040B0F5004F13D10B4865
:102C40008830006820F04050E16B08430749883124
:102C50000860E06BB0F1805F05D10448C06840F4C3
:102C600080300249C8604046BDE8F8830010024049
:102C7000007000402DE9F04104460D464FF0000879
:102C800014B90120BDE8F0817D48006800F00F0014
:102C9000A8420ED27A48006820F00F0028437849F5
:102CA00008600846006800F00F00A84201D001202B
:102CB000E8E7207800F00100002864D0606803286D
:102CC00023D17048006800F0007008B90120D9E7EE
:102CD00003F09EF806466C48864237D969488068FA
:102CE00000F0F00030B1207800F0020002282DD171
:102CF000A06858BB6348806820F0F00040F0800076
:102D0000604988604FF0800820E06068022806D1A2
:102D10005C48006800F4003040B90120B2E759482F
:102D2000006800F4806008B90120ABE700F0DEF82D
:102D300006465548864209D95248806820F0F0007E
:102D400040F080004F4988604FF080084D4880680F
:102D500020F00300616808434A498860FFF766FC79
:102D6000074608E0FFF762FCC01B41F28831884249
:102D700001D9032086E74348806800F00C006168B1
:102D8000B0EB810FEED1207800F00200022820D1B4
:102D9000207800F00400042805D13A48806840F407
:102DA000E06038498860207800F00800082807D1E2
:102DB0003448806820F4605040F4E0603149886015
:102DC0003048806820F0F000A16808432D498860F1
:102DD00008E0B8F1800F05D12A48806820F0F000A3
:102DE000284988602648006800F00F00A84219D9D9
:102DF0002348006820F00F00284321490860FFF7AE
:102E000015FC074608E0FFF711FCC01B41F28831B2
:102E1000884201D9032035E71948006800F00F0007
:102E2000A842F0D1207800F00400042807D115480A
:102E3000806820F4E060E1680843124988602078E7
:102E400000F00800082808D10E48806820F460507F
:102E5000216940EAC1000B49886000F047F8094940
:102E60008968C1F30311094A515C01F01F01C84090
:102E70000749086007480068FFF7FAFB02E700000F
:102E8000002002400010024000B4C404348B00084B
:102E90001000002008000020014800687047000072
:102EA0001000002000B5FFF7F7FF05498968C1F35E
:102EB0000221044A515C01F01F01C84000BD00001E
:102EC00000100240448B000800B5FFF7E5FF0549FC
:102ED0008968C1F3C221044A515C01F01F01C84056
:102EE00000BD000000100240448B000870B5224D68
:102EF000AD6805F00C05042D01D120483AE01E4DC7
:102F0000AD6805F00C05082D01D11D4832E01A4DC1
:102F1000AD6805F00C050C2D2BD1174DED6805F0B3
:102F20000304154DED68C5F303156A1C022C0CD083
:102F3000032C09D1124DB5FBF2F50F4EF668C6F31E
:102F4000062605FB06F10AE000BF0C4DB5FBF2F5C5
:102F5000094EF668C6F3062605FB06F100BF00BF62
:102F6000054DED68C5F341656D1C6B00B1FBF3F0D9
:102F700000E0002070BD0000001002400024F400BA
:102F800000366E012DE9F843044614B90120BDE86E
:102F9000F883207800F00100002865D0FC488068A4
:102FA00000F00C07FA48C06800F003060C2F01D1AE
:102FB000032E01D0082F0AD1F548006800F4003034
:102FC000002851D0606800284ED10120DFE700BF03
:102FD0006068B0F5803F06D1ED48006840F480306D
:102FE000EB4908601AE06068B0F5A02F0BD1E84803
:102FF000006840F48020E64908600846006840F414
:10300000803008600AE0E248006820F48030E0493F
:1030100008600846006820F48020086000BF6068EF
:1030200088B1FFF703FB054606E0FFF7FFFA401BF8
:10303000642801D90320AAE7D548006800F40030CD
:103040000028F2D010E0FFF7F1FA054606E0FFF79E
:10305000EDFA401B642801D9032098E7CC480068AA
:1030600000F400300028F2D1207800F0020002289D
:1030700060D1C748806800F00C07C548C06800F000
:1030800003060C2F01D1022E01D0042F18D1C04805
:10309000006800F4806018B1E06808B9012076E7A4
:1030A000BB48406820F0FE40217C40EA0160B849FE
:1030B0004860B8480068FFF7DBFA18B3012066E7FC
:1030C000E06800B3B248006840F48070B04908601E
:1030D000FFF7ACFA054606E0FFF7A8FA401B022806
:1030E00001D9032053E7AA48006800F48060002853
:1030F000F2D0A748406820F0FE40217C40EA016001
:10310000A349486016E0A248006820F48070A049F6
:103110000860FFF78BFA054606E0FFF787FA401BC9
:10312000022801D9032032E79948006800F4806042
:103130000028F2D1207800F00800082836D1606914
:10314000D0B193489430006840F001009049C1F834
:103150009400FFF76BFA054606E0FFF767FA401B9D
:10316000022801D9032012E789489430006800F052
:1031700002000028F1D019E085489430006820F062
:1031800001008349C1F89400FFF750FA054606E0B4
:10319000FFF74CFA401B022801D90320F7E67C48D0
:1031A0009430006800F002000028F1D1207800F08F
:1031B0000400042872D14FF000087548806D012189
:1031C00021EA107078B100BF7148806D40F08050E6
:1031D0006F4988650846806D00F08050009000BF00
:1031E00000BF4FF001086C48006800F48070B0B96F
:1031F0006948006840F4807067490860FFF716FA74
:10320000054606E0FFF712FA401B022801D9032009
:10321000BDE66148006800F480700028F2D000BF6D
:10322000A068012808D15A489030006840F0010099
:103230005749C1F8900021E0A06805280FD15448F3
:103240009030006840F004005149C1F890000846F1
:10325000D0F8900040F00100C1F890000EE04C481A
:103260009030006820F001004949C1F890000846FC
:10327000D0F8900020F00400C1F8900000BFA068D2
:10328000A8B1FFF7D3F9054609E0FFF7CFF9401BD6
:1032900041F28831884202D9032078E625E03C4893
:1032A0009030006800F002000028EED013E0FFF735
:1032B000BDF9054608E0FFF7B9F9401B41F2883136
:1032C000884201D9032062E631489030006800F05E
:1032D00002000028EFD1B8F1010F05D12C48806D14
:1032E00020F080502A49886500BF207800F0200037
:1032F000202836D1A069D0B125489830006840F028
:1033000001002349C1F89800FFF790F9054606E04F
:10331000FFF78CF9401B022801D9032037E61C482F
:103320009830006800F002000028F1D019E0184839
:103330009830006820F001001549C1F89800FFF7A7
:1033400075F9054606E0FFF771F9401B022801D91F
:1033500003201CE60E489830006800F002000028A8
:10336000F1D1E069002860D00948806800F00C00C5
:103370000C287AD0E069022858D10548006820F06E
:10338000807003490860FFF751F905460DE0000021
:10339000001002400800002000700040FFF746F9CE
:1033A000401B022801D90320F1E54A48006800F0DB
:1033B00000700028F2D1D4E90810401E41EA001143
:1033C000A06A41EA0021208E0122C2EB500041EAAE
:1033D00040513420005DC2EB500041EA40612C2096
:1033E000005D41EAC0603B49C9683B4A114008435F
:1033F0003849C8600846006840F080700860084698
:10340000C06840F08070C860FFF710F9054606E01C
:10341000FFF70CF9401B022801D90320B7E52D481E
:10342000006800F000700028F2D051E029480068E0
:1034300020F0807027490860FFF7F8F8054606E09D
:10344000FFF7F4F8401B022801D903209FE521482B
:10345000006800F000700028F2D11E48C0681F49C3
:1034600008401C49C86033E0FFE7E069012800D14B
:103470008DE51848C66806F00301206A814225D10F
:1034800006F0F001606A401EB1EB001F1ED106F489
:10349000FE41A06AB1EB002F18D106F078412C2034
:1034A000005DB1EBC06F11D106F4C001208E012286
:1034B000C2EB5000B1EB405F08D106F0C061342090
:1034C000005DC2EB5000B1EB406F01D001205EE522
:1034D00000205CE5001002400C809F01FCFFEEFE26
:1034E00070B505460B461646286840680E4900EA46
:1034F0000104200CD870C4F30420587004F03F007D
:103500009870C4F3423018705EB9D87802F044FE67
:10351000D870587802F040FE5870987802F03CFE5F
:103520009870002070BD00003FFFFF0070B504469A
:103530000B46164620688068586020680069C0F312
:103540000E009860206800680E4900EA0105C5F386
:1035500005401870C5F30620587005F07F0098707C
:10356000A80DD8705EB9187802F016FE1870587859
:1035700002F012FE5870987802F00EFE987000204B
:1035800070BD00007F7F7F0070B504460125002CD0
:103590004FD094F8250028B9002084F82400204654
:1035A00000F04CF8022084F825002068C068C0F3C1
:1035B0000010002838D100BFCA202168486253207B
:1035C0002168486200BF204602F0FEFD0546CDB9E5
:1035D000206880691849084021688861216960680D
:1035E0000843A16908432168896908432168886103
:1035F0002089E16841EA004021680861204602F024
:1036000008FE05465DB9D4E907100843616908431F
:103610002168896921F0604108432168886100BF01
:10362000FF202168486200E0002515B9012084F8D8
:103630002500284670BD0000BFFF8FFB10B592B07B
:103640000446442101A8FCF71DFE13492068884266
:103650001FD14FF4002001908012119001A8FFF7B4
:1036600051F908B1FDF7DEFE0C48006840F4004057
:103670000A499039C1F8900000BF0846806D40F4B7
:10368000806088650846806D00F48060009000BF0F
:1036900000BF12B010BD0000002800409010024092
:1036A0002DE9F04705460C46174600BF95F8240063
:1036B000012802D10220BDE8F087012085F824000E
:1036C00000BF022085F825004FB9607800F0100097
:1036D000102804D1607800F0EF000A30607097B9CC
:1036E000E07802F063FD4FEA0049607802F05EFD89
:1036F00049EA0029A07802F059FD49EA000920783A
:1037000049EA403809E0E0780004617840EA0120A5
:10371000A1780843217840EA413800BFCA202968CF
:10372000486253202968486200BF284602F04CFDD9
:10373000064646B90C4808EA000029684860284651
:1037400002F067FD064600BFFF202968486200BFFF
:1037500016B9012085F8250000BF002085F8240057
:1037600000BF3046A7E700003FFFFF002DE9F0470C
:1037700004460D46904600BF94F82400012802D16B
:103780000220BDE8F087012084F8240000BF022059
:1037900084F8250000BFCA202168486253202168B0
:1037A000486200BF204602F00FFD0646002E47D1BA
:1037B000B8F1000F1BD12068806900F0400000B113
:1037C00002E00020E87000BF287802F0EFFC4FEA2A
:1037D0000049687802F0EAFC49EA0029A87802F07A
:1037E000E5FC49EA0009E87849EA805712E02068D8
:1037F000806900F0400000B102E00020E87000BFE6
:1038000028780004697840EA0120A9780843E9781B
:1038100040EA815712483840216808602068806972
:1038200020F4802021688861D5E9030108432168DC
:103830008969084321688861204602F0EAFC06464F
:1038400000BFFF202168486200BF16B9012084F83C
:10385000250000BF002084F8240000BF304690E718
:103860007F7F7F0070B504460B482168C860FEF773
:10387000DDFE054607E0FEF7D9FE401BB0F57A7F76
:1038800001D9032070BD2068C06800F02000002826
:10389000F1D00020F6E700005F00010070B504469B
:1038A0002546681EB0F1807F01D301200FE0681E1D
:1038B0004FF0E02148610F214FF0FF3004F0C6FBCC
:1038C00000204FF0E021886107200861002070BDD2
:1038D000704770477047000010B50346002200BFD4
:1038E00093F83C00012801D1022010BD012083F88B
:1038F0003C0000BF22F0FF00CC6840EA040222F442
:1039000040708C6840EA040222F480604C6840EA0F
:10391000040222F400600C6840EA040222F48050A1
:103920000C6940EA040222F400504C6940EA0402A7
:1039300022F480400C6B40EA040222F470200C8BCD
:1039400040EA044222F08050CC6940EA0402124C62
:103950001868A04203D0114C1868A04213D122F479
:1039600070000C8D40EA045222F080700C6A40EA2C
:10397000040222F000704C6A40EA040222F0005077
:10398000CC6A40EA04021868426400BF002083F851
:103990003C0000BF00BFA8E7002C014000340140FC
:1039A000704770477047000030B502460B4600BFB5
:1039B00092F83C00012801D1022030BD012082F89C
:1039C0003C0000BF022082F83D001068416810688A
:1039D00084681D4D1068A84203D01C4D1068A84291
:1039E00003D121F470015868014319480140186857
:1039F000014310684160144D1068A84213D010684C
:103A0000B0F1804F0FD0134D1068A8420BD0124D6B
:103A10001068A84207D00D4D1068A84203D00F4D82
:103A20001068A84205D124F0800498680443106807
:103A30008460012082F83D0000BF002082F83C0035
:103A400000BF00BFB9E70000002C01400034014076
:103A50008FFFFFFD000400400008004000400140CF
:103A6000704710B504460CB9012010BD94F83D0014
:103A700028B9002084F83C00204600F029F80220F4
:103A800084F83D00211D206802F0F0FC012084F83C
:103A9000480000BF84F83E0001213F20015540202E
:103AA000015541200155422001554320015500BFD9
:103AB00000BF012084F844004520015546200155EF
:103AC0004720015500BF012084F83D000020CCE7CD
:103AD00010B586B00446142101A8FCF7D3FB3F497A
:103AE000206888420DD100BF3D48006E40F4006060
:103AF0003B4908660846006E00F40060009000BF75
:103B00006AE02068B0F1804F32D100BF3448806D48
:103B100040F00100324988650846806D00F00100E0
:103B2000009000BF00BF00BF0846C06C40F001001D
:103B3000C8640846C06C00F00100009000BF00BFE0
:103B40004FF4004001900220029000200390049066
:103B50000120059001A94FF09040FEF76BFC002278
:103B600011461C20FEF7E6FD1C20FEF7CFFD33E0DA
:103B70001C49206888422FD100BF1948806D40F051
:103B80000200174988650846806D00F00200009029
:103B900000BF00BF00BF0846C06C40F00200C86410
:103BA0000846C06C00F00200009000BF00BF10206B
:103BB00001900220029000200390049002200590C2
:103BC00001A90948FEF736FC002211461D20FEF728
:103BD000B1FD1D20FEF79AFD06B010BD002C01407E
:103BE0000010024000040040000400482DE9F041AC
:103BF00004460D46002700BF94F83C00012802D17E
:103C00000220BDE8F081012084F83C0000BF0220C2
:103C100084F83D00206886683F48064026F47F46C9
:103C2000206886602868702824D00CDC00F00F0122
:103C3000002964D10011072861D2DFE800F0535455
:103C4000555649353F00354A811A90424FD009DC1C
:103C5000B0F5805F0DD0B0F5005F18D0B0F1101F47
:103C60004DD143E0102943D0202942D0502946D1DC
:103C700040E046E0D5E902136A68206802F069FC7A
:103C80002068866846F077062068866039E0D5E9C6
:103C900002136A68206802F05CFC2068806840F4C7
:103CA0008040216888602CE0EA686968206802F03A
:103CB00081FE5021206802F057FC22E0EA68696822
:103CC000206802F007FF6021206802F04DFC18E038
:103CD000EA686968206802F06DFE4021206802F001
:103CE00043FC0EE000BF00BF00BF00BF00BF00BF2D
:103CF00000BF00BF2968206802F036FC01E0012700
:103D000000BF00BF012084F83D0000BF002084F800
:103D10003C0000BF384674E788FFCEFF200010004B
:103D200010B504462068B0F1804F20D1207F0128D3
:103D30001DD1FEF77BFC214908602148007848B975
:103D40000021204600F0A3FC1E49086001201C4908
:103D500008700CE01A480078012808D1002120469C
:103D600000F095FC184908600220154908701749B1
:103D70002068884220D1207F01281DD1FEF756FC03
:103D8000134908601348007848B90021204600F024
:103D90007EFC1149086001200E4908700CE00D48B6
:103DA0000078012808D10021204600F070FC0B4962
:103DB000086002200749087010BD0000E8000020DC
:103DC000E4000020DC000020E000002000040040AF
:103DD000F8000020F4000020EC000020F00000209B
:103DE0002DE9F04104460D461646002700BF94F821
:103DF0003C00012802D10220BDE8F081012084F8B6
:103E00003C0000BF96B9EB68D5E90012206802F0CB
:103E100007FE2068806920F00C0021688861206816
:103E20008069A96808432168886141E0042E13D1A4
:103E3000EB68D5E90012206802F082FE20688069F4
:103E400020F440602168886120688069A96840EAA0
:103E50000120216888612BE0082E12D1EB68D5E99A
:103E60000012206802F0ACFE2068C06920F00C004F
:103E70002168C8612068C069A96808432168C861D1
:103E800016E00C2E13D1EB68D5E90012206802F081
:103E9000D5FE2068C06920F440602168C8612068B0
:103EA000C069A96840EA01202168C86100E00127D3
:103EB00000BF002084F83C0000BF38469CE710B5E6
:103EC00004460CB9012010BD94F83D0028B900202B
:103ED00084F83C00204600F029F8022084F83D00D8
:103EE000211D206802F0C2FA012084F8480000BFBA
:103EF00084F83E0001213F2001554020015541201A
:103F00000155422001554320015500BF00BF01204B
:103F100084F84400452001554620015547200155AD
:103F200000BF012084F83D000020CCE7704700006E
:103F30002DE9F04304460D46002715B994F83E00DC
:103F400015E0042D02D13F20005D10E0082D02D1C4
:103F50004020005D0BE00C2D02D14120005D06E009
:103F6000102D02D14220005D01E04320005D80461B
:103F700015B994F844000BE0042D02D14520005DF2
:103F800006E0082D02D14620005D01E04720005DDB
:103F90008146B8F1010F02D1B9F1010F02D0012021
:103FA000BDE8F0831DB9022084F83E001AE0042D1C
:103FB00003D102213F20015514E0082D03D1022135
:103FC000402001550EE00C2D03D102214120015566
:103FD00008E0102D03D102214220015502E0022108
:103FE000432001551DB9022084F844000EE0042D41
:103FF00003D102214520015508E0082D03D10221FB
:104000004620015502E002214720015535B1042D1B
:104010000BD0082D10D00C2D1CD114E02068C068E6
:1040200040F002002168C86016E02068C06840F0D7
:1040300004002168C8600FE02068C06840F00800F4
:104040002168C86008E02068C06840F0100021685E
:10405000C86001E0012700BF00BF67BB01222946FD
:10406000206802F065FA18492068884213D0206859
:10407000B0F1804F0FD01549206888420BD0144909
:104080002068884207D013492068884203D012492B
:104090002068884210D120688068104900EA010633
:1040A000062E0FD0B6F5803F0CD02068006840F097
:1040B00001002168086005E02068006840F0010008
:1040C0002168086038466BE7002C0140000400407E
:1040D000000800400034014000400140070001009A
:1040E00070B504462068C6682068056905F00200BE
:1040F000022819D106F00200022815D1401F2168BC
:104100000861012020772068806900F0030018B161
:104110002046FFF705FE05E0204600F01FF9204687
:1041200000F00DFA0020207705F00400042819D1D2
:1041300006F00400042815D1C0432168086102205C
:1041400020772068806900F4407018B12046FFF79E
:10415000E7FD05E0204600F001F9204600F0EFF908
:104160000020207705F00800082819D106F0080083
:10417000082815D1C04321680861042020772068F1
:10418000C06900F0030018B12046FFF7C9FD05E043
:10419000204600F0E3F8204600F0D1F90020207717
:1041A00005F01000102819D106F01000102815D1C4
:1041B000C04321680861082020772068C06900F4A6
:1041C000407018B12046FFF7ABFD05E0204600F037
:1041D000C5F8204600F0B3F90020207705F0010073
:1041E00048B106F0010030B16FF0010021680861AC
:1041F000204600F04BFA05F08000802804D005F43A
:104200000050B0F5005F0AD106F08000802806D18A
:104210006FF40250216808612046FFF75AFB05F44D
:104220008070B0F5807F0AD106F08000802806D12A
:104230006FF48070216808612046FFF749FB05F0A4
:104240004000402809D106F04000402805D1C04375
:1042500021680861204600F033FA05F0200020288C
:1042600009D106F02000202805D1C043216808614B
:104270002046FFF72FFB05F48010B0F5801F0BD10F
:1042800006F48010B0F5801F06D16FF4801021680D
:1042900008612046FFF785FB05F40010B0F5001F0C
:1042A0000BD106F40010B0F5001F06D16FF400101A
:1042B000216808612046FFF773FB05F48000B0F524
:1042C000800F0BD106F48000B0F5800F06D16FF49B
:1042D0008000216808612046FFF764FB05F40000B8
:1042E000B0F5000F0BD106F40000B0F5000F06D1B9
:1042F0006FF40000216808612046FFF7B1FB70BD34
:1043000010B586B00446142101A8FBF7BBFF114984
:10431000206888421BD100BF0F48C06C40F00100EC
:104320000D49C8640846C06C00F00100009000BF51
:1043300000BF881501900220029000200390049095
:104340000620059001A94FF09040FEF773F806B0E3
:1043500010BD0000002C01400010024070472DE904
:10436000F04104460D461646002700BF94F83C0075
:10437000012802D10220BDE8F081012084F83C0030
:1043800000BF0C2E51D005DC4EB1042E1ED0082EDD
:104390007AD133E0102E60D0142EF9D175E0294681
:1043A000206802F0EDF82068806940F0080021687C
:1043B00088612068806920F0040021688861206895
:1043C0008069296908432168886178E02946206866
:1043D00002F02EF92068806940F40060216888614D
:1043E0002068806920F48060216888612068806985
:1043F000296940EA01202168886160E02946206837
:1044000002F072F92068C06940F008002168C861B4
:104410002068C06920F004002168C8612068C06974
:10442000296908432168C86149E02946206802F0EB
:10443000B7F92068C06940F400602168C86120684D
:10444000C06920F480602168C8612068C06929695A
:1044500040EA01202168C86131E02946206802F065
:10446000FBF92068006D40F00800216808652068AD
:10447000006D20F00400216808652068006D29693E
:104480000843216808651AE017E02946206802F011
:104490001BFA2068006D40F4006021680865206800
:1044A000006D20F48060216808652068006D29692E
:1044B00040EA01202168086501E0012700BF00BF34
:1044C00000BF002084F83C0000BF384653E710B519
:1044D00004460CB9012010BD94F83D0028B9002015
:1044E00084F83C00204600F029F8022084F83D00C2
:1044F000211D206801F0BAFF012084F8480000BFA8
:1045000084F83E0001213F20015540200155412003
:104510000155422001554320015500BF00BF012035
:1045200084F8440045200155462001554720015597
:1045300000BF012084F83D000020CCE770477047A1
:1045400070B504460D4615B994F83E0015E0042DEB
:1045500002D13F20005D10E0082D02D14020005D17
:104560000BE00C2D02D14120005D06E0102D02D1A0
:104570004220005D01E04320005D012801D00120C0
:1045800070BD1DB9022084F83E001AE0042D03D14D
:1045900002213F20015514E0082D03D102214020C3
:1045A00001550EE00C2D03D102214120015508E0F8
:1045B000102D03D102214220015502E002214320A7
:1045C000015501222946206801F0B2FF27492068E1
:1045D00088420FD02649206888420BD025492068A0
:1045E000884207D024492068884203D023492068A4
:1045F000884201D1012000E0002028B12068406CF1
:1046000040F400402168486418492068884213D06B
:104610002068B0F1804F0FD01949206888420BD034
:1046200018492068884207D011492068884203D081
:1046300010492068884210D120688068124900EA39
:104640000106062E0FD0B6F5803F0CD0206800681A
:1046500040F001002168086005E02068006840F033
:1046600001002168086000208AE70000002C01405A
:104670000034014000400140004401400048014036
:104680000004004000080040070001007047024697
:10469000002031B1042907D0082908D00C290CD1F9
:1046A00008E01368586B09E01368986B06E013681C
:1046B000D86B03E01368186C00E000BF00BF7047C0
:1046C0007047014600BF91F88400012801D1022003
:1046D0007047012081F8840000BF2420C1F88800C1
:1046E000086802680868006820F001000B6818601C
:1046F00022F0005200204866086802602020C1F8BD
:10470000880000BF002081F8840000BF00BFDFE701
:104710007047704770B504460D4600BF94F884009A
:10472000012801D1022070BD012084F8840000BF5F
:104730002420C4F88800206806682068006820F0FB
:104740000100216808602068806820F060602843CC
:1047500021688860204602F0B1FA206806602020B7
:10476000C4F8880000BF002084F8840000BF00BFA8
:10477000D9E770B504460D4600BF94F884000128BF
:1047800001D1022070BD012084F8840000BF2420E4
:10479000C4F88800206806682068006820F00100DE
:1047A000216808602068806820F060402843216804
:1047B0008860204602F082FA206806602020C4F853
:1047C000880000BF002084F8840000BF00BFD9E744
:1047D00070477047704700002DE9F0470446206895
:1047E000C569206806682068876840F60F0005EAFA
:1047F0000009B9F1000F0FD105F0200060B106F0FB
:10480000200010B907F0805030B1606F10B1204621
:10481000616F8847BDE8F087B9F1000F7ED0DF48AF
:10482000384018B9DE4830400028F7D005F00100C4
:1048300058B106F4807040B1012021680862D4F8B4
:10484000900040F00100C4F8900005F0020058B15B
:1048500007F0010040B1022021680862D4F89000FE
:1048600040F00400C4F8900005F0040058B107F0CF
:10487000010040B1042021680862D4F8900040F0A3
:104880000200C4F8900005F0080070B106F02000A6
:1048900010B9C248384040B1082021680862D4F8F5
:1048A000900040F00800C4F8900005F4006060B18A
:1048B00006F0806048B14FF4006021680862D4F8C7
:1048C000900040F02000C4F89000D4F89000002838
:1048D00052D005F0200050B106F0200010B907F0CA
:1048E000805020B1606F10B12046616F8847D4F8C6
:1048F00090A02068806800F04000402802D00AF0B4
:10490000280070B3204602F0FDFA2068806800F0AD
:104910004000402826D100BF00BF00E02DE0216804
:10492000083151E8001F21F040002168083141E8BA
:104930000002002AF1D100BFD4F8800068B1994884
:10494000D4F880108863D4F88000FDF7CAFB98B1D2
:10495000D4F88000816B88470EE02046FFF73AFFCD
:104960000AE003E02046FFF735FF05E02046FFF7A9
:1049700031FF0020C4F890004CE7E06E012865D1BB
:1049800005F01000002861D006F010000028FAD0D1
:104990001020216808622068806800F040004028EC
:1049A0007AD1D4F88000006840681FFA80F8B8F126
:1049B000000F5CD0B4F85C00404558DDA4F85E8080
:1049C000D4F880000068006800F02000E8BB00BF59
:1049D00000BF216851E8001F21F48070226842E87E
:1049E00000010029F5D100BF00BF00BF21680831D8
:1049F00051E8001F21F001002168083141E8000260
:104A0000002AF3D100BF00BF00BF2168083151E880
:104A1000001F21F040002168083141E80002002A0F
:104A2000F3D100BF2020C4F88C000020E06600BF56
:104A300000BF216851E8001F21F01000226842E801
:104A400000010029F5D100BF01E004E068E0D4F8DE
:104A50008000FDF707FB02202067B4F85C00B4F883
:104A60005E20801A81B22046FFF752FE12E0B4F8B1
:104A70005C0040450ED1D4F880000068006800F06A
:104A80002000202806D102202067B4F85C102046C0
:104A9000FFF73EFEBEE6FFE734F85C0F6188401A80
:104AA0001FFA80F860885C3CC8B3B8F1000F36D0BC
:104AB00000BF00BF216851E8001F21F490702268F8
:104AC00042E800010029F5D100BF00BF00BF216806
:104AD000083151E8001F314AD24301EA020021683F
:104AE000083141E80002002AF1D100BF2020C4F8BB
:104AF0008C000020E066606700BF00BF216851E8BD
:104B0000001F21F01000226842E800010029F5D1C1
:104B100000BF0220206741462046FFF7F9FD79E6F5
:104B200005F4801050B107F4800038B14FF48010C4
:104B3000216808622046FFF74CFE6BE605F0800016
:104B400058B106F0800010B907F4000028B1A06F3A
:104B500010B12046A16F88475CE605F0400030B1F7
:104B600006F0400018B1204602F002FA52E605F4C1
:104B7000000030B106F0804018B12046FFF728FE53
:104B800048E605F0807030B106F0004018B12046CC
:104B9000FFF7BFFD3EE600BF3CE60000010000104D
:104BA00020010004F76E000810B504460CB901207E
:104BB00010BDA06900B100E000BFD4F8880028B99A
:104BC000002084F88400204600F02AF82420C4F84D
:104BD00088002068006820F0010021680860A06A51
:104BE00010B1204602F096F8204602F0B3FD0128ED
:104BF00000D1DDE72068406820F4904021684860DB
:104C00002068806820F02A00216888602068006899
:104C100040F0010021680860204602F0F7F8C7E77D
:104C200010B598B00446142113A8FBF72BFB4421C0
:104C300002A8FBF727FB2149206888423BD10120CD
:104C400002900020039002A8FDF75CFE08B1FCF77B
:104C5000E9FB00BF1A48006E40F48040184908661E
:104C60000846006E00F48040019000BF00BF00BF06
:104C70000846C06C40F00100C8640846C06C00F0F3
:104C80000100019000BF00BF4FF4C06013900220EC
:104C900014900020159016900720179013A94FF03C
:104CA0009040FDF7C7FB002211462520FDF742FD8D
:104CB0002520FDF72BFD18B010BD00000038014085
:104CC0000010024070B504460D461646D4F88C001C
:104CD000202821D105B10EB9012070BD0020E06669
:104CE0000E492068884211D02068406800F4000016
:104CF00060B100BF00BF216851E8001F41F0806033
:104D0000226842E800010029F5D100BF3246294659
:104D1000204602F0E1FEE0E70220DEE700800040EE
:104D200010B5044607492068884209D10648017831
:104D3000064801F056F8012203490548FFF7C2FF73
:104D400010BD000000380140C800002040040020D1
:104D5000AC0300202DE9F84F04460E46174699464D
:104D6000D4F8880020285DD106B117B90120BDE82C
:104D7000F88F00205434E06321206063FDF756FC77
:104D8000824627806780543CA068B0F5805F04D1DC
:104D9000206910B90025B04602E035464FF0000802
:104DA00029E05346002280212046CDF8009002F0F1
:104DB00041FF20B12020C4F888000320D7E745B97F
:104DC000B8F80000C0F308002168886208F1020802
:104DD00003E02878216888626D1CD4F8880000F010
:104DE0002100212805D1B4F85600401EA4F8560031
:104DF00001E00120BBE7B4F856000028D1D15346AA
:104E0000002240212046CDF8009002F013FF20B18F
:104E10002020C4F888000320A9E72020C4F88800D7
:104E20000020A4E70220A2E7704700BFFEE70000D1
:104E300000B585B014216846FBF724FAC020009025
:104E40000120019002900220039069460248FDF77C
:104E5000F1FA05B000BD00000004004870B5082557
:104E6000002401F023FA13E06006040E002001F094
:104E7000FDF9142003F0A0FD142003F09DFD012096
:104E800001F0F4F9142003F097FD01F003FA044354
:104E9000281EA5F10101CDB2E6D101F0E7F91420F9
:104EA00003F08AFD01F02CFA204670BD10B50020F9
:104EB00001F012FA142003F07FFD142003F07CFDB2
:104EC000012001F0D3F9142003F076FD002001F059
:104ED000CDF9142003F070FD10BD70B5044608250F
:104EE00017E0002001F0C2F9142003F065FD04F082
:104EF000800001F0F1F9142003F05EFD6006040E5D
:104F0000142003F059FD012001F0B0F9142003F042
:104F100053FD281EA5F10101CDB2E2D101F0A6F9A1
:104F2000142003F049FD70BD10B5012001F0D4F943
:104F3000142003F041FD142003F03EFD012001F098
:104F400095F9142003F038FD002001F08FF91420AA
:104F500003F032FD10BD10B5012001F0BDF91420A1
:104F600003F02AFD012001F081F9142003F024FD53
:104F7000002001F0B1F9142003F01EFD002001F023
:104F800075F9142003F018FD10BD10B5002001F0D4
:104F90006DF9142003F010FD002001F09DF914209C
:104FA00003F00AFD012001F061F9142003F004FD73
:104FB000012001F091F9142003F0FEFC10BD10B5A2
:104FC000052401F073F9142003F0F6FC012001F030
:104FD0004DF9142003F0F0FC0BE0601E84B21420A5
:104FE00003F0EAFC2CB901F08BF9FFF7CEFF0120AA
:104FF00010BD01F04FF90028EFD101F037F901F0B1
:105000007FF9142003F0D8FC0020F1E710B500F080
:1050100093F804464548007807280BD2DFE800F0F3
:10502000040B1A43486C7E0024B1414804700120EF
:105030003E49087077E03E480078844206D102205D
:105040003A49087000203B49088002E000203749B7
:10505000087068E036480078844212D135480088EC
:10506000401C344908800846008850281ADB304923
:1050700009780A31C8B2FCF72DF903202B490870D2
:1050800010E034B900202B4908800420274908701B
:1050900008E027480078FCF71DF925480470012036
:1050A000224908703FE014B90020204908703AE016
:1050B00084B920480088401C1E49088008460088A2
:1050C000192818DB1A480078FCF704F90020174962
:1050D000087010E016480078844203D10520134977
:1050E000087008E012480078FCF7F4F810480470E3
:1050F00001200E49087016E00D480078844209D15D
:105100000B4909781431C8B2FCF7E4F806200749C6
:10511000087002E004200549087004E014B900207A
:105120000249087000BF00BF10BD0000B20000209F
:10513000B3000020B400002010B501210E48FDF797
:1051400067FA08B9012010BD02210B48FDF760FA8B
:1051500008B90220F7E704210748FDF759FA08B912
:105160000320F0E701214FF09040FDF751FA08B914
:105170000420E8E70020E6E70004004800B585B019
:1051800014216846FBF77EF84FF6FF700090002070
:105190000190032003900020029069460248FDF729
:1051A00049F905B000BD00000008004800B585B011
:1051B00014216846FBF766F84FF6FF700090012057
:1051C0000190032003900020029069460248FDF7F9
:1051D00031F905B000BD00000008004830B50546B3
:1051E00000240021084600F027F900F05FF900BF15
:1051F00003E0284600F034F9641CB4F5963FF8D378
:1052000030BD000000B587B0142102A8FBF73AF8C2
:1052100000BF2848C06C40F004002649C864084616
:10522000C06C00F00400019000BF00BF00BF084642
:10523000C06C40F00100C8640846C06C00F001007A
:10524000019000BF00BF00BF0846C06C40F00200E4
:10525000C8640846C06C00F00200019000BF00BFA7
:105260004FF4487002900120039003200590002025
:10527000049002A91048FDF7DDF84FF48070029009
:1052800001200390032005900020049002A94FF014
:105290009040FDF7CFF8FFF789FF4FF480704FF093
:1052A000904188614FF4087003491831086007B0D5
:1052B00000BD0000001002400004004870B5054623
:1052C0000E461446A4F12000C4B204EB4400044985
:1052D00001EB00123146284600F01AF870BD0000BC
:1052E0004C8B0008F0B507460C46002540F23F16EF
:1052F00009E0227831463846FFF7E0FFA6F11000BA
:1053000086B2641C6D1C207808B1142DF1D3F0BD59
:105310002DE9F04306468946174600240025A0469D
:10532000B0464946404600F087F800BF1EE000F056
:10533000BDF800250FE037F814000121A94008400E
:1053400020B90C48008800F08BF803E00A48008878
:1053500000F086F86D1C102DEDD308F1010000F06F
:10536000FF084946404600F067F8641C182CDED35D
:10537000BDE8F083AE000020AC00002010B5FFF7C0
:1053800041FF002000F016F809490880084600880F
:1053900048F23021884202D100F06EFD01E000F0B9
:1053A000FBFD002000F006F80149088010BD000058
:1053B000B000002070B504464FF400701849086032
:1053C0004010086020201649103908601548046014
:1053D00020201349086000BF00BF00BF20201049F3
:1053E00010390860C0000860FFF7C8FE4FF48070F5
:1053F0004FF09041886200BF00BF00BF0948001F06
:10540000006885B24FF480704FF090418861FFF7DB
:10541000CDFE4FF40070024910390860284670BD77
:10542000280400481408004801B5BDF800000149EF
:10543000088008BDAE00002030B504460D46214668
:10544000202000F059F82946212000F055F830BD01
:1054500001B5BDF800000149088008BDAC0000207E
:105460004FF400710F4A116049100E4A103A116052
:10547000202111600C49086020210A4A116000BFF8
:1054800000BF00BF2021074A103A1160C900116017
:1054900000BF00BF00BF4FF40071024A103A116014
:1054A0007047000028040048140800484FF40070BA
:1054B0000F4908604010086020200D49103908602D
:1054C00022200C49086020200949086000BF00BF65
:1054D00000BF2020064910390860C000086000BFE6
:1054E00000BF00BF4FF400700149103908607047D9
:1054F00028040048140800484FF40072124B1A6048
:1055000052101A602022104B103B1A600F4A106094
:1055100020220D4B1A6000BF00BF00BF20220A4BA3
:10552000103B1A60D2001A60084A11602022064B14
:105530001A6000BF00BF00BF2022034B103B1A605F
:10554000D2001A6070470000280400481408004880
:1055500070B504460A480568E043C1B2284661F3C5
:105560001F2007490860012204210648FDF758F86A
:10557000002204210348FDF753F80148056070BD7F
:1055800014080048000C004810B500241A480078A0
:1055900008B944F0010418480078012801D144F00A
:1055A0000204FDF743F84FF47A71B0FBF1F201FB0E
:1055B0001200B0F5FA7F01D244F004040E4890EDD9
:1055C000010AD0ED030AB4EEE00AF1EE10FA01DDB3
:1055D00044F008040848807D10B90748007E08B1EF
:1055E00044F080042046FFF7B3FF0348407D10B12C
:1055F00000200149487510BD140000208168024A4E
:105600001140491C81607047C0FFFF7F01468868D8
:1056100000F01F007047024602F1600000EB8103BA
:10562000186800F0F840704701468868C0F3C00071
:1056300070470146886800F001007047014688689D
:1056400000F00100704701468868C0F300707047A1
:1056500001468868C0F38000704701468868C0F33F
:10566000800070470146C86800F4406008B9012016
:1056700070470020FCE700008168024A1140091DC4
:1056800081607047C0FFFF7F70B500F11404C1F363
:10569000406504EB85031C68C1F304560725B5403B
:1056A000AC43C1F3045502FA05F52C431C6070BDF0
:1056B000826822F0E0720A438260704710B500F100
:1056C000600404EB81031C6824F0004414431C6054
:1056D00010BD426922F000420A4342617047000057
:1056E00010B540200449C875C87D03F0EBF90248A5
:1056F000C07D0249087010BD14000020FC0000208D
:1057000010B50B48C07D7F2802DD7F200849C87591
:105710000748C07D07490978884207D00449C87DF9
:1057200003F0D0F90248C07D0249087010BD0000A6
:1057300014000020FC00002000B58BB00020089071
:1057400009900A9020216846FAF79CFD4FF0A0408E
:10575000204908604FF40030486000211D488160F6
:10576000C160016141610421816100210177012152
:1057700041770162002180F82410C1620163012198
:1057800080F838100021C16380F84010FCF7E0F980
:1057900008B1FBF747FE0020089008A90D48FBF769
:1057A000C9FE08B1FBF73EFE0B48009006200190B1
:1057B000002002907F200390042004900020059098
:1057C00069460448FBF73CFF08B1FBF72BFE0BB022
:1057D00000BD0000080100200008302E00B589B08F
:1057E000202101A8FAF74EFD1B481C490860400221
:1057F0004860002119488160C16001614161042154
:10580000816100210177012141770162002180F847
:105810002410C1620163012180F838100021C163A6
:1058200080F84010FCF794F908B1FBF7FBFD0C4839
:10583000019006200290002003907F200490042015
:1058400005900020069001A90448FBF7F9FE08B175
:10585000FBF7E8FD09B000BD000100507401002015
:105860000080F03E08B500BF1548806C40F0040091
:10587000134988640846806C00F00400009000BF63
:1058800000BF00BF0846806C40F0010088640846F5
:10589000806C00F00100009000BF00BF00221146A4
:1058A0000B20FCF747FF0B20FCF730FF00221146CE
:1058B0000C20FCF73FFF0C20FCF728FF08BD000080
:1058C0000010024000B587B0142102A8FAF7DAFCF4
:1058D00000BF4548C06C40F004004349C864084616
:1058E000C06C00F00400019000BF00BF00BF08467C
:1058F000C06C40F02000C8640846C06C00F0200076
:10590000019000BF00BF00BF0846C06C40F001001E
:10591000C8640846C06C00F00100019000BF00BFE1
:1059200000BF0846C06C40F00200C8640846C06C66
:1059300000F00200019000BF00BF00BF0846C06C2D
:1059400040F00800C8640846C06C00F008000190F0
:1059500000BF00BF01224FF6FF712448FCF760FE34
:10596000002204212248FCF75BFE0022C0212148CE
:10597000FCF756FE4FF6FF700290012003900020C6
:105980000490059002A91948FCF754FD01200290EB
:10599000002003900120049002A94FF09040FCF7F2
:1059A00049FD07200290002003900120049002A9E5
:1059B0001048FCF73FFD04200290012003900020D6
:1059C0000490059002A90A48FCF734FDC02002901B
:1059D00011200390012004900220059002A905489F
:1059E000FCF728FD07B000BD001002400008004889
:1059F000000C00480004004800B587B0142102A83C
:105A0000FAF740FC002001901E481F490860002062
:105A100048607F211C488160FF21C1600021016135
:105A2000416181614FF08041C16100210162FDF758
:105A3000ABFD08B1FBF7F6FC00208DF808008DF8EF
:105A400009008DF80A00039005900690012202A932
:105A50000D48FDF78BFE08B1FBF7E4FC01208DF843
:105A600004008DF805008DF8060000208DF8070071
:105A7000012201A90448FDF713FE08B1FBF7D2FC8F
:105A800007B000BD00280040A002002000B59BB078
:105A900000201790189019901A9014901590169055
:105AA0001C210DA8FAF7EEFB34216846FAF7EAFB51
:105AB0002F48304908604F20486000212D48816000
:105AC0004FF6FF71C1600021016141618161FDF705
:105AD000C8FF08B1FBF7A6FC4FF48050179017A938
