:020000040800F2
:10000000400E0020F1010008BD67000837530008CA
:10001000B9670008C9120008F98000080000000054
:10002000000000000000000000000000656D0008F6
:10003000B51300080000000045680008E56D0008E1
:100040000B0200080B0200080B0200080B0200085C
:100050000B0200080B0200080B0200080B0200084C
:100060000B0200080B0200080B020008CD1200086A
:10007000DD120008ED1200080B0200080B02000858
:100080000B020008000000000B0200080B02000831
:100090000B0200080B0200080B0200080B0200080C
:1000A0000B0200080B0200080B0200080B020008FC
:1000B000716E0008816E00080B0200080B02000838
:1000C0000B0200080B0200080B0200080B020008DC
:1000D0000B020008E98000080B0200080B02000870
:1000E0000B0200080B0200080B0200080B020008BC
:1000F0000B0200080B0200080B02000800000000C1
:10010000000000000B020008000000000B020008C5
:100110000B020008000000000B0200080B020008A0
:100120000B0200080B0200080B0200080B0200087B
:100130000B02000800000000000000000B02000895
:100140000B0200080B020008000000000000000085
:10015000000000000000000000000000000000009F
:100160000000000000000000000000000B0200087A
:100170000B0200080000000000000000000000006A
:10018000000000000B02000800000000000000005A
:10019000000000000000000000000000000000005F
:1001A00000000000000000000B0200080B02000825
:1001B0000B0200080B0200080B0200080000000000
:1001C000000000000B02000800000000000000001A
:1001D0000B0200080B020008DFF810D000F0B6FC9C
:1001E00000480047B38B0008AFF30080400E0020AA
:1001F0000648804706480047FEE7FEE7FEE7FEE7C1
:10020000FEE7FEE7FEE7FEE7FEE7FEE75D6E0008BD
:10021000D90100082DE9F05F0546002092469B4673
:1002200088460646814640241BE02846414647460C
:10023000224600F067FA53465A46C01A914110D33D
:1002400011461846224600F04EFA2D1A67EB0108B7
:100250004F4622460120002100F045FA17EB000925
:100260004E41201EA4F10104DFDC484631462A46F7
:100270004346BDE8F09F40EA01039B0703D009E035
:1002800008C9121F08C0042AFAD203E011F8013B82
:1002900000F8013B521EF9D27047D2B201E000F8DB
:1002A000012B491EFBD270470022F6E710B513461A
:1002B0000A4604461946FFF7F0FF204610BD421CCF
:1002C00010F8011B0029FBD1801A704710B50022DD
:1002D00000E0521C835C8C5CA34201D1002BF8D15E
:1002E000D8B2E1B2401A10BD034611F8012B00F854
:1002F000012B002AF9D11846704700000FB400B551
:100300008DB010A909900B9000914FF0FF300A902A
:1003100000200C9005480690054807906A4609A8F9
:100320000F9900F005FA0DB05DF814FB4D070008B9
:100330006B0700082DE9FF4F087883B09946FF2826
:1003400005D0491C2D2804D00024002008E00020FE
:100350000BE00124F9E700EB800003EB4000491CAF
:100360000B78FF2BF7D104B140420023029314789D
:1003700019461D462D2C01D02B2C04D1521C2D2C9E
:1003800013D000240294AA461478FF2C0FD00A251B
:10039000A3FB057801FB05814FF0000C03FB0C115A
:1003A000521CE3194AEB0101EEE70124EAE781441C
:1003B00053EA010002D019F5C87F06DA039800213C
:1003C000C0E9001107B0BDE8F08F0025AE4E2F4602
:1003D000DFF8B882184600F061FBCDE90001B9F101
:1003E000000002DAC9F1000400E004460023A74A35
:1003F0001AEB030B42EB045A12E0E00707D02A463F
:1004000033463846414600F068FA074688462A4691
:1004100033461046194600F060FA05460E46641051
:10042000002CEAD1DDE90001B9F1000F5A4653462C
:1004300006DA00F0C4FA3A46434600F0C0FA05E096
:1004400000F04BFA3A46434600F047FA029A0AB1E6
:1004500081F00041039AC2E90001B3E72DE9FF4FA3
:100460001F468DB0D7E901464FF0FF382E20454694
:100470004FF000090B90B9696D1C0E988847396AD6
:10048000824688470028F6D1BAF1FF3F0AD024F40B
:10049000D064002E11DDBAF12B0F08D0BAF12D0F68
:1004A0000BD102E0404611B08DE744F48064B96995
:1004B0006D1C0E9888478246761E6946600501D5F8
:1004C0002D2000E02B208DF8000001F1010B0DF133
:1004D000200809E0B9696D1C0E98884782460F987C
:1004E00044F40074761E0560002E02DDBAF1300F70
:1004F000F0D00B998A453ED144F0800406E00F9974
:10050000681CA9F1010944F400740860B9696D1C04
:10051000761E0E98884782463028F0D02BE00B9943
:100520008A4505D1200603D444F08004761E18E0E5
:10053000504607F0E5FE08B30DF11301761E44F4B2
:1005400000748B4508D2AAF130000BF8010B20068D
:1005500007D5A9F1010003E0200602D409F101004A
:100560008146A00502D50F99681C0860B9696D1C09
:100570000E9888478246002ED1DC53E0002E51DDD4
:10058000BAF1650F02D0BAF1450F4BD1A00549D59C
:10059000B9696D1C24F44074761E0E988847824613
:1005A000002E0CDD2B2804D0BAF12D0F07D144F416
:1005B0008074B9696D1C0E9888478246761EE005E6
:1005C00001D52D2100E02B2108F8011BCDF82C804E
:1005D00021E00DF12901761E44F4007488450CD207
:1005E000AAF1300010F0FF0088F8000002D10B994A
:1005F000884509D908F1010806E0E00501D524483D
:1006000001E042F20F708146B9696D1C0E9888476F
:1006100082460F980560002E04DD504607F070FEFC
:100620000028D6D1F9690E988847FF208BF8000082
:1006300088F800000020069007904B466A4608A9FB
:1006400006A8FFF777FEA00502D46FF001002AE7A5
:1006500014F0240F0AD0E00714D1DDE9061238683F
:10066000031D3B600068C0E900120BE0DDE90601F4
:1006700000F050FA0146E00704D13868021D3A60E4
:100680000068016028460EE7000014400000F03FBB
:10069000F1D8FFFF00F0004230F000400AD0C10D59
:1006A00001F56071C0F3160042EA0151C20840072B
:1006B0001143704700200146704730B50B46014694
:1006C00000202022012409E021FA02F59D4205D3F1
:1006D00003FA02F5491B04FA02F52844151EA2F19B
:1006E0000102F1DC30BD202A04DB203A00FA02F1DD
:1006F000002070479140C2F1200320FA03F3194310
:1007000090407047202A04DB203A21FA02F00021B1
:10071000704721FA02F3D040C2F120029140084311
:1007200019467047026811441378016018467047F3
:10073000D1600449516104491162002111611146DF
:1007400000F02EBA25070008950B0008426842B158
:10075000016811F8013B23B1521EC0E9001218468E
:1007600070470121C160881E704742685AB1C36852
:10077000016843B983688B4205D0491E521CC0E909
:100780000012002070474FF0FF3070472DE9FE4FF8
:10079000804681EA0300C00F0C46009021F0004122
:1007A00023F00045B8EB0200A94105D2404621469E
:1007B00090461C460B46024623F00040104347D0AB
:1007C000270DC7F30A00C3F30A510290401A0190A3
:1007D00040286BDAC3F3130040F4801B0098924664
:1007E00020B10023D2EB030A63EB0B0B01985946AF
:1007F000C0F140025046FFF776FF06460D465046D0
:100800005946019A00F0B4F910EB08006141002448
:1008100087EA115284EAE7731A4340D0009A62B320
:10082000019A012A4FEA075215DC001B61EB020115
:100830004FF0004202EA0752CDE90042001C41F5A8
:10084000801132462B4600F089FB03B0BDE8F08FE3
:1008500040462146F9E7001B61EB0201001C41F50F
:10086000801300185B412018A2F5001747EB030125
:1008700040EAD570B6196D4111E06D084FEA3606B1
:1008800045EAC0754FEA0752001B61EB0201001CEC
:1008900041F5801149084FEA3000001951413246B4
:1008A0002B4603B0BDE8F04F00F049BB0098012291
:1008B00040000023D0EB020263EBE0730098214676
:1008C0004FEAE074B8EB000061EB0401E9E783F064
:1008D00000435BE781F0004158E72DE9FE4F81EAD4
:1008E000030404F0004421F0004100944FF0000B99
:1008F00023F0004350EA01045ED052EA03045BD0C7
:10090000C3F30A54C1F30A552C44A4F2F3340194FE
:10091000A0FB0254C1F3130141F48011C3F313038C
:1009200043F4801301FB024400FB034E840A970A40
:1009300044EA815447EA8357A4FB076802958D0A6D
:1009400005FB07854FEA932C04FB0C542705029DF9
:100950004FEA065847EA1637B5EB08056EEB070C69
:10096000870E920E47EA811742EA8312A7FB020123
:10097000B6EB0B0164EB00042B0D43EA0C335E185D
:1009800044EB1C50DA465146E7FB0201C5F3130461
:100990004FEA0B3343EA14534FEA0432019C43EA13
:1009A0000603A4F10C040294009CCDE900B400F00D
:1009B000D5FA03B0BDE8F08F00200146F9E72DE934
:1009C000F04D81EA030404F0004B21F00045144689
:1009D0004FF0000A23F0004150EA050220D054EA0B
:1009E00001021DD0C5F30A570246C5F31303C1F334
:1009F0001300C1F30A5640F4801543F48013A7EBAB
:100A00000608101BD64608F2FD3873EB050002D32A
:100A100008F1010801E092185B41B8F1000F03DA18
:100A200000200146BDE8F08D00204FF480110646FD
:100A300084460EE0171B73EB050705D3121B63EB0F
:100A4000050306434CEA010C49084FEA30009218AE
:100A50005B4150EA0107EDD152EA030012D082EA6D
:100A6000040083EA0501084305D0101BAB4106D200
:100A70000122002306E000224FF0004302E06FF065
:100A8000010253101AEB06004CEB085110EB0A0060
:100A900041EB0B01BDE8F04D00F051BA0EB540F24C
:100AA000334202920022CDE90022134600F056FAAA
:100AB00003B000BDC1F30A52C1F3130140F2FF338A
:100AC00041F480119A4202DA00200146704740F258
:100AD00033439A42A2F2334202DC5242FFF712BE83
:100AE000FFF701BE30B5041E71F1000404DB4FF0C6
:100AF0000044404264EB0101141E73F1000405DB65
:100B00001C464FF00043524263EB0403994208BF76
:100B1000904230BD01F0004330B421F0004150EA72
:100B2000010206D00A0DA2F56072C1F31301002A7A
:100B300002DC30BC00207047440F44EAC104C1000D
:100B4000E01830BC00EBC25000F0C2B9064C074DB3
:100B500006E0E06840F0010394E80700984710348D
:100B6000AC42F6D3FFF73CFBA09E0008C09E0008F5
:100B7000202A06DBCB17203A41FA02F043EAE07361
:100B800006E041FA02F3D040C2F12002914008434E
:100B900019467047C0B24FF4F05100F02DBA000072
:100BA0002DE9F34F8BB04FF0000801F10C000C461B
:100BB0004FF0010B46460DF1080A019062690121D0
:100BC00001989047051E2DD0252D2CD0216A8847ED
:100BD000C0B16269012101989047216A88470028C5
:100BE000F7D1411E62690198904700E0761CA16927
:100BF0000B988847216A88470028F7D1E1690B984C
:100C00008847DBE7A1690B9888470746A84201D1CE
:100C1000761CD3E7E1690B9888477F1C02D1B8F1B5
:100C2000000F6FD047E1002762693D4639460198C1
:100C300090472A2804D16269012101989047012533
:100C4000DFF888926269012101989047A0F1300194
:100C50000A290AD24F45E5DC07EB870100EB410783
:100C6000303FDFD445F01005ECE7E90601D46FF022
:100C700000476C280AD04C2814D0682815D06A2860
:100C80000DD074281CD07A281AD01DE06269012189
:100C9000019890476C2802D045F0040514E045F017
:100CA00002050DE045F020050AE062690121019886
:100CB0009047682802D045F0080505E045F4006536
:100CC0006269012101989047C4E9015765283DD028
:100CD00019DC58287AD00CDC452837D004DC2528CC
:100CE00026D0412831D131E046282FD047282CD1B9
:100CF0002CE05B2877D0612828D063287CD064283A
:100D000023D15AE0D1E06F2848D008DC66281DD0F6
:100D100067281BD0692821D06E2816D127E07028BB
:100D200045D0732868D0752847D078280DD14DE07C
:100D3000A1690B988847054625283FF469AFE1690A
:100D40000B9888476D1C3FF46AAFB4E023466A46AF
:100D50006FF001000B99FFF781FB9FE045F0400029
:100D60006060A80723464FF0000236D43EE0E80753
:100D70007FF447AF2068011D21600068290501D577
:100D800006701BE7290701D5068017E7A90703D5D9
:100D9000F117C0E9006111E706600FE745F0400078
:100DA0006060A80723464FF0080216D41EE040F604
:100DB0000E0125EA0100606016E045F04000606029
:100DC000A80723464FF00A0207D40FE045F0400081
:100DD0006060A80708D5234610226FF001000B9928
:100DE000AFF300805AE007E0234610226FF00100C5
:100DF0000B99AFF3008051E04FF000094F464B468E
:100E0000632802D05B2807D041E02079C00601D4D6
:100E10000120A06001273AE0626901210198904712
:100E20005E2805D14FF00109626949460198904753
:100E3000216939B900210A46534643F82120491C4B
:100E40000829FADBB0B3216969B9C11700EBD16297
:100E500053110AEB830122F01F02821A01200B6852
:100E6000904003430B6062690121019890475D281F
:100E7000E8D1B9F1000F09D00020514651F82020E7
:100E8000D24341F82020401C0828F7DB02AB224661
:100E900000976FF001000B99AFF3008000280CDA87
:100EA000401C08D1BBF1000F05D04FF0FF300DB052
:100EB000BDE8F08FFFE74046F9E7E90701D108F107
:100EC000010806444FF0000B78E60000CCCCCC0CB7
:100ED0000029A8BF7047401C490008BF20F001004E
:100EE000704710B4B0FA80FC00FA0CF050EA01042C
:100EF00004BF10BC704749B1CCF1200421FA04F4BE
:100F000011FA0CF118BF012121430843A3EB0C0196
:100F1000CB1D4FEA00614FEA102042BF002010BCF9
:100F2000704700EBC35010440029A4BF10BC7047A9
:100F3000401C490008BF20F0010010BC704710B5EC
:100F4000141E73F1000408DA401C41F100019218EC
:100F50005B411A4301D120F0010010BD2DE9F04D95
:100F600092469B4611B1B1FA81F202E0B0FA80F2EA
:100F700020329046FFF7B7FB04460F4640EA0A00CE
:100F800041EA0B0153465A46084313D0114653EA2F
:100F9000010019D0C8F140025046FFF7B3FB0546E7
:100FA0000E46504659464246FFF79DFB084305D082
:100FB000012004E020463946BDE8F08D00200543BD
:100FC00046EAE0762C4337430A986305E40AA0EB2F
:100FD00008000022FD0A44EA47540A3002D50020E6
:100FE0000146E9E7010510196941DDE908450019E5
:100FF0006941BDE8F04DA2E77F2801D9002208E051
:10100000064A02EB5002C007127800D1120902F022
:101010000F02012090400840704700005E9E0008CB
:1010200070B58C1810F8015B15F0070301D110F8AA
:10103000013B2A1106D110F8012B03E010F8016BD7
:1010400001F8016B5B1EF9D12B0705D40023521E5A
:101050000DD401F8013BFAE710F8013BCB1A921CC2
:1010600003E013F8015B01F8015B521EF9D5A142C0
:10107000D8D3002070BD70B50546AC6AE06D00F0B5
:10108000500098BBE06D40F40070E0652068006897
:1010900000F00800A8B1206804F089FD10B32068B2
:1010A000C06800F40050E8B9E06D20F48070E0659D
:1010B000E06D00F48050A8B9E06D40F00100E065FB
:1010C00010E02068C06800F0020058B9E06D20F41C
:1010D0008070E065E06D00F4805018B9E06D40F07C
:1010E0000100E065204600F025FF0CE0FFE7E06D21
:1010F00000F0100018B1204600F01EFF03E0606D04
:10110000416B2846884770BD70B50546AC6AE06DF6
:1011100040F04000E065206E40F00400206620466C
:1011200000F00AFF70BD70B50446A56A284600F0BD
:1011300002FF70BD70B50446206804F01AFD064633
:10114000206804F01BFD98B396BB2068806800F00F
:101150000D0001280AD1206881681A4A1140891CB3
:10116000816000BF03202168086009E0E06D40F065
:101170001000E065206E40F001002066012070BD87
:1011800001F04AFC054614E001F046FC401B022831
:101190000FD92068806800F0010050B1E06D40F088
:1011A0001000E065206E40F0010020660120E6E7B7
:1011B00005E02068806800F001000028E4D10020EC
:1011C000DDE70000C0FFFF7F38B504460020009037
:1011D000206804F0D3FC00284FD12068806828499B
:1011E000084048B1E06D40F01000E065206E40F02E
:1011F00001002066012038BD206804F09FFC00BF7C
:101200002048806800F0E07000F4000080B11E48C3
:1012100000681E49B0FBF1F0401C00EB400080006C
:10122000009002E00098401E009000980028F9D13C
:1012300001F0F2FB05461AE0206804F09FFC10B9AB
:10124000206804F07BFC01F0E7FB401B02280ED96C
:101250002068006800F0010048B9E06D40F010001F
:10126000E065206E40F0010020660120C3E72068A1
:10127000006800F001000028DED00020BBE700007D
:101280003F0000800003005010000020400D0300CC
:1012900010B57F21094800F0EBFA7F21084800F0E3
:1012A000E7FA1E220749054801F048F81E220549C1
:1012B0003C31034801F042F810BD0000C801002095
:1012C000340200206005002000BFFEE710B5024890
:1012D00001F047F910BD0000A002002010B502483F
:1012E00001F03FF910BD00000003002010B50248D6
:1012F00001F037F910BD00000005002030B5114D98
:101300000468AC4206D210490478083C1425B4FBAA
:10131000F5F207E00C4920310478083C1425B4FBB1
:10132000F5F4A21D0B46446CA40803EB840484640A
:10133000054C8034C46402F01F050124AC400465F0
:1013400030BD00000804024000080240027902F0AB
:101350007F014A1E064B03EB82024265044A40327B
:1013600082654A1E02F01F0301229A40C26570473F
:101370000009024030B5D0E913546C60446D14B1DB
:10138000D0E916546C6090F8444004F01F05012425
:10139000AC40056C6C60046863608468102C04D1F8
:1013A0000468A2600468E16003E00468A160046866
:1013B000E26030BD7047002109E0002201E0531CCB
:1013C0009AB240F6B8339A42F9DB4B1C99B281428B
:1013D000F3DB704701460C4BB3F85030581CC31771
:1013E00000EB13731B11A0EB03139AB20648B0F87D
:1013F0005200904207D00448B0F850304030C154F9
:101400004038A0F8502070475800002038B5002020
:10141000009001220021684607F07DFB9DF8000046
:10142000552828D101221146214807F074FB204895
:10143000F43890F8F400052804DB00201C49F43946
:1014400081F8F400002413E004EB4400082101EBD0
:101450008000C5B204EB440215493C3901EB82001F
:101460000C22294607F057FB052001F0C5F9641C42
:10147000052CE9DB1BE000200D49F43981F8F4006C
:10148000012211460A4807F070FB052001F0B4F96B
:101490003C2107483C38FEF707FF55200090012209
:1014A0000021684607F061FB052001F0A5F938BD71
:1014B0004C01002070B54E48007830B101283CD076
:1014C000022867D0032837D185E04A4890F8B41045
:1014D00090F8B50081422FD0464890F8B50000EB57
:1014E00040014448543000EB810343480ECB0EC00A
:1014F000404991F8B510481CC11700EB5171C91053
:10150000A0EBC101CAB23B4981F8B520084690F86A
:10151000F40000EB40013748B83000EB8100364B57
:101520000ECB0EC00A20334981F8F7000020334962
:10153000087001202E49087058E001F06DFA30491A
:101540000968401A052824D32B4C2A4890F8F40047
:1015500000EB4000082101EB80002849097808448D
:10156000C5B22649097860180122294607F0FDFA1C
:1015700022480078401C2149087001F04DFA2049AA
:1015800008601E4800780C2802D302201849087011
:1015900000BF2BE001F040FA19490968401A0528FC
:1015A00018D3144890F8F400401C052190FBF1F288
:1015B00001FB12000F4981F8F400012211460D4889
:1015C000F43007F0D2FA01F027FA0D490860032041
:1015D000074908700AE001F01FFA09490968401A32
:1015E000052802D300200249087000BF00BF70BD6B
:1015F0001400002058000020D80500201C00002006
:101600001800002017B5104A92F8B420501CC217D9
:1016100000EB5272D210A0EBC202D1B20A4890F88D
:10162000B50088420ED0084890F8B40000EB4002A4
:101630000548543000EB82009DE81C001CC00248A5
:1016400080F8B4101EBD00005800002072B600BF24
:10165000FEE7000010B50021034802F0B3FE0021B0
:10166000024802F0AFFE10BDD40300202004002089
:1016700010B501F0D1F904466D480078032845D132
:101680006C4909686C4A1268914205D36949096836
:10169000694A1268891A07E067490968C1F1FF3190
:1016A000644A12681144491C084664490968624A40
:1016B0001268914205D3614909685F4A1268891A24
:1016C00007E05D490968C1F1FF315C4A12681144C5
:1016D000491C00EE101AA8B1594988615949B1FB5B
:1016E000F0F1574A5161B8EE401A00EE900AF8EE58
:1016F000600AC1EE201ADFED540A61EEA00A11461D
:10170000C1ED070A00214A4A117000BF4F48006826
:10171000201AB0F57A7F1BD90020494948618861B9
:101720009FED4B0A084680ED070A002040490870EB
:1017300000BF48480068006A20F00A00454909686F
:10174000086244480068006A42490968086200BFAC
:1017500041480078032847D140490968404A126847
:10176000914205D33D4909683D4A1268891A08E04B
:101770003B4909684FF6FF72511A384A1268114402
:10178000491C084637490968354A1268914205D311
:1017900034490968324A1268891A08E030490968F0
:1017A0004FF6FF72511A2F4A12681144491C00EE7D
:1017B000101AA8B1224948622249B1FBF0F1204A2F
:1017C0001162B8EE401A00EE900AF8EE601AC1EE0F
:1017D000210A9FED1D1A60EE810A1146C1ED0A0A29
:1017E00000211D4A117000BF1F480068201AB0F583
:1017F0007A7F1BD900201249086248629FED140AC3
:10180000084680ED0A0A00201349087000BF1748F7
:101810000068006A20F00A00144909680862134849
:101820000068006A11490968086200BF10BD000025
:101830002C00002028000020200000202400002090
:101840005800002040420F000000C8423000002035
:1018500000000000D4030020400000203C000020D5
:101860003400002038000020440000202004002024
:10187000F8B504460D460020009000BF94F85800CB
:10188000012801D10220F8BD012084F8580000BFD2
:101890002046FFF74FFC06468EBBE06D20F48850D3
:1018A00040F00200E065206881681B4A114005F0A5
:1018B000804242F000421143816000BF13E0009873
:1018C000401C00901549009888420CD3E06D20F030
:1018D000020040F01000E06500BF002084F85800CE
:1018E00000BF0120CFE720688168C90F0029E6D139
:1018F000E06D20F0020040F00100E06504E0FFE749
:10190000E06D40F01000E06500BF002084F8580052
:1019100000BF3046B7E70000C0FFFF3F02DE040013
:101920002DE9F0439BB004460E464FF000083068A6
:1019300000B100BF00BF94F85800012803D1022075
:101940001BB0BDE8F083012084F8580000BF0020E0
:10195000179018902068B0F1A04F02D13148009044
:1019600001E000200090009850B9E06D40F02000A8
:10197000E06500BF002084F8580000BF0120DFE7C9
:10198000009804F00FF90746206804F00BF9D8BB63
:10199000D7BB254D306800B394F83800716841EA30
:1019A0004030A96821F460410843A8604FF0A0408E
:1019B00004F0E9F881461B4804F0E5F849EA00091B
:1019C000B9F1000F27D1B16830680843A96840F623
:1019D0001F7291430843A8601DE0A86820F460408E
:1019E000A8604FF0A04004F0CEF881460D4804F006
:1019F000CAF849EA0009B9F1000F0CD1A86840F60D
:101A00001F718843A86006E0FFE7E06D40F020000A
:101A1000E0654FF0010800BF002084F8580000BFC7
:101A200040468DE700010050000300502DE9F84FBB
:101A300005460C464FF0000A00200090FE49E06881
:101A4000884200D000E000BF00BF95F85800012890
:101A500002D10220BDE8F88F012085F8580000BFB0
:101A6000286804F09AF800287DD12968D4E900207C
:101A700001F1300CC0F3012B0CEB8B03D3F800C049
:101A800000F01F0E4FF01F0B0BFA0EFB2CEA0B0C95
:101A900000F01F0BC2F3846E0EFA0BFE4CEA0E0C24
:101AA000C3F800C000BF286804F077F881462868B2
:101AB00004F05AF88046B9F1000F64D1B8F1000F74
:101AC000FBD1A068B0F1004F0AD12168002228683C
:101AD00004F07EF84FF00041286804F09EF808E01A
:101AE000A2682168286804F073F80021286804F0CF
:101AF00094F860692968C968C1F3C101490000FA16
:101B000001F7206904283FD028682268216900F184
:101B1000600C0CEB8103D3F800C0DFF820B30CEAB3
:101B20000B0C02F0F84B4BF0004B4BEA070B4CEA66
:101B30000B0CC3F800C000BF2868A269216900F13E
:101B4000600C0CEB8103D3F800C02CF0807C4CEAD5
:101B5000020CC3F800C000BF2868227F2169012A57
:101B600002D1520601E0C6E10022134600F1600CEA
:101B70000CEB8102D2F800C02CF0007C4CEA030C84
:101B8000C2F800C000BFA7E00021286803F0E3FF0F
:101B9000C0F3120030B90021286803F0DCFFC0F365
:101BA000846007E00021286803F0D5FF90FAA0F0D8
:101BB000B0FA80F02168C1F3120119B92168C1F3AC
:101BC000846104E0216891FAA1F1B1FA81F18842BF
:101BD00004D100221146286804F014F80121286875
:101BE00003F0B9FFC0F3120030B90121286803F0F7
:101BF000B2FFC0F3846007E00121286803F0ABFF67
:101C000090FAA0F0B0FA80F02168C1F3120119B97E
:101C10002168C1F3846104E0216891FAA1F1B1FA6D
:101C200081F1884204D100220121286803F0EAFFF3
:101C30000221286803F08FFFC0F3120030B902219F
:101C4000286803F088FFC0F3846007E00221286859
:101C500003F081FF90FAA0F0B0FA80F02168C1F3A0
:101C6000120119B92168C1F3846104E0216891FA75
:101C7000A1F1B1FA81F1884204D100220221286841
:101C800003F0C0FF0321286803F065FFC0F31200D2
:101C900030B90321286803F05EFFC0F3846007E0D9
:101CA0000321286803F057FF90FAA0F0B0FA80F003
:101CB0002168C1F3120119B92168C1F3846104E0FC
:101CC000216891FAA1F1B1FA81F1884204D1002290
:101CD0000321286803F096FF286803F04FFF0028CF
:101CE00072D12868E2682168D0F8B030C1F3120CD4
:101CF00023EA0C0302F0180BDFF844C12CFA0BFCAA
:101D00000CEA010C43EA0C03C0F8B03000BF4A49AA
:101D1000E068884258D12368C3F312031BB92368D3
:101D2000C3F3846304E0236893FAA3F3B3FA83F361
:101D30005B1C03F01F03092B3ED82368C3F3120377
:101D40001BB92368C3F3846304E0236893FAA3F305
:101D5000B3FA83F35B1C03F01F034FF0010C0CFA82
:101D600003FC2368C3F312031BB92368C3F3846322
:101D700004E0236893FAA3F3B3FA83F35B1C03F044
:101D80001F034CEA836C2368C3F312031BB9236857
:101D9000C3F3846304E0236893FAA3F3B3FA83F3F1
:101DA0005B1C03F01F0303EB43034FF0000B4BEAF4
:101DB00003534CEA030347E02368C3F3120323B938
:101DC0002368C3F3846305E043E0236893FAA3F335
:101DD000B3FA83F35B1C03F01F034FF0010C0CFA02
:101DE00003FC2368C3F312031BB92368C3F38463A2
:101DF00004E0236893FAA3F3B3FA83F35B1C03F0C4
:101E00001F034CEA836C2368C3F312031BB92368D6
:101E1000C3F3846304E0236893FAA3F3B3FA83F370
:101E20005B1C03F01F030A3B03EB43034FF0007BF3
:101E30004BEA035306E0000000007F4000F0FF0380
:101E4000FFFF07004CEA03031946A268286803F065
:101E5000BFFE2F492068084050B300BF2D4880685E
:101E600000F0E07600BF2C492068884203D02B495F
:101E7000206888421DD106F40000D0B92868B0F16E
:101E8000A04F3ED146F40001224803F0B5FE24489D
:101E900000682449B0FBF1F0401C00EB40008000DA
:101EA000009002E00098401E009000980028F9D1B0
:101EB00027E01D49206888420CD106F0807048B99F
:101EC0001A49286888421CD046F08071114803F0F6
:101ED00093FE16E016492068884212D106F480006D
:101EE00078B91249286888420BD046F48001094825
:101EF00003F082FE05E0E86D40F02000E8654FF059
:101F0000010A00BF002085F8580000BF5046A1E537
:101F10000000088000030050000021C31000C090A2
:101F200010000020400D0300000052C700010050C7
:101F3000000084CB70477047704700002DE9F843DC
:101F400004464FF000080020009014B90120BDE8BD
:101F5000F883606920B194F82400012800D100BF03
:101F6000E06D30B9204600F017F90020206684F8B3
:101F7000580020688168C1F3407131B120688168E0
:101F80007E4A1140816000BF00BF206803F000FE60
:101F9000B0B9206881687A4A114041F0805181606F
:101FA00000BF784800687849B0FBF1F0401C400061
:101FB000009002E00098401E009000980028F9D19F
:101FC000206803F0E5FD48B9E06D40F01000E065E1
:101FD000206E40F0010020664FF00108206803F0F9
:101FE000DCFD0646E06D00F01000002877D1002EE1
:101FF000FCD1E06D20F4807040F00200E0652068C4
:1020000003F0BCFDB0B94FF0A04003F0B7FD81462E
:102010005E4803F0B3FD49EA0009B9F1000F09D1A8
:1020200060685B49896821F47C110143584A9160DA
:1020300000BF00BF607FE16B41EA4030E1680843C8
:10204000A168084394F8241040EA014594F824005C
:10205000012803D1208D401E45EA4045E06A28B1A1
:10206000A08D00F47870216B084305432068C06898
:102070004849084028432168C8602068006920F06A
:102080004060616B084321680861206803F06CFDC3
:102090000746002E50D1EFBB207F002141EA80315E
:1020A00094F8380041EA40052068C06844F2020113
:1020B000884328432168C860206988B12068006986
:1020C00040F48030216808612068D0F8C0006FF3C8
:1020D0000D00216908432168C1F8C0000EE045E009
:1020E0002068006920F48030216808612068D0F8F9
:1020F000C0006FF30D002168C1F8C00094F84000E3
:10210000012813D1606C40F00101A06C0843E16C20
:10211000084300E010E0216D08432168096940F29E
:10212000FC72914308432168086105E0206800695A
:1021300020F00100216808616069012809D1206848
:10214000006B20F00F00216A491E084321680863D4
:1021500005E02068006B20F00F0021680863E06D47
:1021600020F0020040F00100E06505E0E06D40F085
:102170001000E0654FF001084046E8E6C0FFFF5F51
:10218000C0FFFF7F10000020400D03000001005041
:10219000000300500740F0FF10B598B0044614212A
:1021A00013A8FEF781F8442102A8FEF77DF8206805
:1021B000B0F1A04F56D14FF400400290800311902F
:1021C00002A800F095FD08B1FFF740FA54480068F6
:1021D000401C534908600846006801280DD100BF23
:1021E0005048C06C40F400504E49C8640846C06C6A
:1021F00000F40050019000BF00BF00BF4948C06C10
:1022000040F002004749C8640846C06C00F0020074
:10221000019000BF00BF8814139003201490002089
:10222000159013A9404800F0FBFA40484049086067
:102230000520486000213E488160C1608021016125
:1022400049004161890081612021C1610021016251
:1022500000F006FA08B1FFF7F9F900BF34486065ED
:1022600084625BE033492068884257D1C001029004
:102270008003119002A800F03BFD08B1FFF7E6F9DA
:1022800027480068401C2649086008460068012865
:102290000DD100BF2348C06C40F400502149C864F0
:1022A0000846C06C00F40050019000BF00BF00BFA2
:1022B0001C48C06C40F002001A49C8640846C06C53
:1022C00000F00200019000BF00BF4FF400401390E7
:1022D000032014900020159013A9134800F0A0FAD1
:1022E0001248143014490860242048600021124824
:1022F0008160C16080210161490041618900816183
:102300002021C1610021016200F0AAF908B1FFF7A4
:102310009DF900BF08486065846200BF18B010BD19
:1023200000000020001002400004004808000240A5
:10233000A002002000010050000300202DE9F04120
:1023400004460F4690463D4803F000FC06462068D0
:1023500003F023FC00286DD100BF94F85800012839
:1023600002D10220BDE8F081012084F8580000BFAE
:102370001EB1052E01D0092E56D12046FEF724FFAE
:102380000546002D4BD1E06D40F60161884340F4D5
:102390008070E0652A492068884202D14FF0A04051
:1023A00000E020682168884200D01EB9E06D20F46A
:1023B0008010E065E06D00F4805020B1206E20F0C8
:1023C0000600206601E0002020661E48616DC8629C
:1023D0001D48616D08631D48616D48631C202168BC
:1023E000086000BF002084F8580000BF20684068E3
:1023F00040F01000216848602068C06840F001008B
:102400002168C860226802F1400143463A46606D87
:1024100000F090F90546206803F0D2FB0BE000BF06
:10242000002084F8580006E0012500BF002084F851
:10243000580000E00225284694E700000003005001
:10244000000100507710000827110008091100084A
:102450000146002209B90120704791F825000228A1
:1024600003D00420C863012227E00868006820F038
:1024700001000B6818600868006820F00E000B6807
:102480001860886C006820F480708B6C186091F87C
:10249000440000F01F03012098400B6C5860D1E904
:1024A00013305860486D40B1486D006820F480706A
:1024B0004B6D1860D1E916305860012081F8250075
:1024C00000BF002081F8240000BF1046C4E770B5AB
:1024D0000446002594F8250002280BD00420E06370
:1024E000012084F8250000BF002084F8240000BFEC
:1024F000012534E02068006820F0010021680860B0
:102500002068006820F00E0021680860A06C006858
:1025100020F48070A16C086094F8440000F01F0162
:1025200001208840216C4860D4E913104860606D38
:1025300040B1606D006820F48070616D0860D4E97E
:1025400016104860012084F8250000BF002084F8A0
:10255000240000BFA06B10B12046A16B884728461D
:1025600070BD70B50446206C05682068066894F854
:10257000440000F01F01042088402840E0B106F02C
:102580000400C8B12068006800F0200028B9206865
:10259000006820F004002168086094F8440000F00E
:1025A0001F0104208840216C4860206B002856D011
:1025B0002046216B884752E094F8440000F01F0148
:1025C00002208840284018B306F0020000B32068BB
:1025D000006800F0200040B92068006820F00A0080
:1025E00021680860012084F8250094F8440000F078
:1025F0001F0102208840216C486000BF002084F841
:10260000240000BFE06A50B32046E16A884726E014
:1026100094F8440000F01F01082088402840F0B1E1
:1026200006F00800D8B12068006820F00E0021688C
:10263000086094F8440000F01F0101208840216CDC
:1026400048600120E06384F8250000BF002084F882
:10265000240000BF606B10B12046616B884770BDDD
:1026600070B504460CB9012070BD3049206888421D
:102670000BD22F492068401A1421B0FBF1F08000E2
:1026800060642B48083820640AE028492068401A12
:102690001421B0FBF1F08000606424480838206405
:1026A000022084F825002068056847F6F07085430D
:1026B000D4E9020108432169084361690843A1691B
:1026C0000843E1690843216A08430543206805601F
:1026D0002046FEF713FEA068B0F5804F01D1002020
:1026E0006060207900F07F00A16C0860D4E91310CD
:1026F0004860606860B16068042809D82046FEF729
:1027000025FE0020616D0860D4E91610486003E0E2
:1027100000206065A065E0650020E063012084F88A
:102720002500002084F8240000BF9DE70804024033
:10273000080002402DE9F04104460D4616461F46AA
:102740004FF0000800BF94F82400012802D10220B5
:10275000BDE8F081012084F8240000BF94F8250032
:1027600001283FD1022084F825000020E063206882
:10277000006820F00100216808603B463246294687
:102780002046FEF7F7FD206B30B12068006840F06E
:102790000E00216808600BE02068006820F004004B
:1027A000216808602068006840F00A00216808601D
:1027B000A06C006800F4803028B1A06C006840F480
:1027C0008070A16C0860606D28B1606D006840F495
:1027D0008070616D08602068006840F00100216829
:1027E000086006E000BF002084F8240000BF4FF01E
:1027F00002084046ACE7000070B5044600F00CF952
:1028000006462546681C10B104480068054400BF10
:1028100000F002F9801BA842FAD370BD0C00002022
:1028200078B503460022D2E0012696400D6805EAFD
:102830000604002C7BD00D7905F00305012D04D092
:102840000D7905F00305022D13D198685600032574
:10285000B540A8435600CD68B540284398605868F5
:1028600001259540A8430D79C5F3001595402843EF
:1028700058600D7905F00305032D07D10D7905F09A
:102880000305032D0CD18D68012D09D0D8685600A1
:102890000325B540A84356008D68B5402843D8604D
:1028A0000D7905F00305022D13D1D60803F120059B
:1028B00055F826005507EE0E0F25B540A8435607DC
:1028C000F60E0D69B5402843D60803F1200545F8FA
:1028D0002600186856000325B540A8430D7905F079
:1028E00003055600B540284318604D6805F440358F
:1028F000002D6BD000BF394D2D6E45F00105374ED0
:10290000356635462D6E05F00105009500BF00BF08
:102910004FEAB635960855F8260095072E0F0F2575
:10292000B540A843B3F1904F02D100251AE04DE025
:102930002B4DAB4201D1012514E02A4DAB4201D110
:1029400002250FE0284DAB4201D103250AE0274DB7
:10295000AB4201D1042505E0254DAB4201D105254F
:1029600000E006259607360FB5402843214D96080E
:1029700045F82600204D2868A0434D6805F48015D1
:1029800005B120431C4D28602D1D2868A0434D68CB
:1029900005F4001505B12043174D2D1D2860164D77
:1029A0002D1F2868A0434D6805F4003505B120436C
:1029B000114D2D1F28602D1F2868A0434D6805F478
:1029C000803505B120430C4D083D2860521C0D6830
:1029D000D540002D7FF428AF78BD000000100240E4
:1029E0000004004800080048000C0048001000489F
:1029F0000014004808000140080401400246136921
:102A00000B400BB1012000E0002070470AB181614A
:102A100000E08162704700000148006870470000D4
:102A2000040000200348006803490968084401497C
:102A300008607047040000200C00002010B500243E
:102A4000032000F0ABF80F2000F008F808B10124D3
:102A500001E000F02FF8204610BD000070B50446DC
:102A6000002511480068D8B10F4800684FF47A710A
:102A7000B1FBF0F00D490968B1FBF0F6304601F00A
:102A800003F958B9102C07D200222146501E00F03D
:102A900047F80748046004E0012502E0012500E052
:102AA0000125284670BD00000C0000201000002009
:102AB0000800002008B500BF0E48006E40F001007D
:102AC0000C4908660846006E00F00100009000BF47
:102AD00000BF00BF0846806D40F080508865084602
:102AE000806D00F08050009000BF00BF00F0F6F84D
:102AF00008BD0000001002400146084600280DDB1A
:102B000000BF00BF00F01F0301229A4043099B0051
:102B100003F1E023C3F8002100BF00BF00BF7047EE
:102B20002DE9F05F80460D46164605F0FBFA074694
:102B300039462A46334601F00700C0F1070ABAF1C8
:102B4000040F02D94FF0040A01E0C0F1070AD14690
:102B500000F1040ABAF1070F02D24FF0000A01E0B7
:102B6000A0F1030AD4464FF0010A0AFA09FAAAF1C1
:102B7000010A0AEA020A0AFA0CFA4FF0010B0BFAF0
:102B80000CFBABF1010B0BEA030B4AEA0B042146E9
:102B9000404605F0CFFABDE8F09F000000BF00F00E
:102BA0000702064B19684FF6FF031940044B0B430D
:102BB00043EA0221014B196000BF70470CED00E0B1
:102BC0000000FA0502468ABB4148006800F4C06074
:102BD000B0F5806F2BD13E488030006820F48070C3
:102BE0003B4BC3F880001846006820F4C06040F4F6
:102BF000007018603748006832235843364BB0FBEA
:102C0000F3F0411C00E0491E3148406900F4806047
:102C1000B0F5806F01D10029F5D12D48406900F44D
:102C20008060B0F5806F51D10320704708E02848DC
:102C30008030006820F48070254BC3F8800045E0A8
:102C4000B2F5007F3AD12248006800F4C060B0F5C8
:102C5000806F2AD11E488030006840F480701C4B81
:102C6000C3F880001846006820F4C06040F400708B
:102C700018601848006832235843174BB0FBF3F034
:102C8000411C00E0491E1248406900F48060B0F524
:102C9000806F01D10029F5D10D48406900F48060B2
:102CA000B0F5806F12D10320BFE70948803000687B
:102CB00040F48070064BC3F8800007E004480068C9
:102CC00020F4C06040F48060014B18600020ACE745
:102CD000007000401000002040420F000348806850
:102CE00040F4804001498860704700000070004057
:102CF0002DE9F84304460027B846206800F4002078
:102D0000B0F5002F73D1B946D348806D00F08050E4
:102D100078B900BFD048806D40F08050CE498865BA
:102D20000846806D00F08050009000BF00BF4FF05B
:102D30000109CA48006840F48070C8490860FFF77C
:102D40006BFE064606E0FFF767FE801B022801D9EE
:102D5000032705E0C148006800F480700028F2D025
:102D600000BF002F46D1BC489030006800F4407589
:102D7000CDB1206CA84216D0B7489030006820F43E
:102D80004075B548D0F8900040F48030B249C1F8A1
:102D900090000846D0F8900020F48030C1F89000F0
:102DA0000846C0F8905005F00100A0B1FFF734FECE
:102DB000064608E0FFF730FE801B41F2883188426A
:102DC00001D9032706E0A4489030006800F0020013
:102DD0000028EFD000BF5FB99F489030006820F412
:102DE0004070216C08439C49C1F8900003E00CE05E
:102DF000B84600E0B846B9F1010F05D19648806D9C
:102E000020F080509449886500BF207800F00100D0
:102E100048B191488830006820F003006168084399
:102E20008D49C1F88800207800F00200022809D1FD
:102E300089488830006820F00C00A1680843864962
:102E4000C1F88800207800F00400042809D18248E5
:102E50008830006820F03000E16808437E49C1F8FE
:102E60008800207800F00800082809D17A488830C6
:102E7000006820F0C000216908437749C1F8880044
:102E8000207800F02000202809D17348883000689D
:102E900020F44060616908436F49C1F888002078D8
:102EA00000F04000402809D16B488830006820F4C9
:102EB0004050A16908436849C1F88800207800F0B3
:102EC0008000802809D164488830006820F44040A0
:102ED000E16908436049C1F88800208800F48070E7
:102EE000B0F5807F09D15C488830006820F440301C
:102EF000216A08435849C1F88800208800F400700E
:102F0000B0F5007F09D154488830006820F4402093
:102F1000616A08435049C1F88800208800F4806045
:102F2000B0F5806F13D14C488830006820F4401011
:102F3000A16A0843484988310860A06AB0F5801F3B
:102F400005D14548C06840F480104349C8602088D6
:102F500000F40060B0F5006F13D13F48883000687E
:102F600020F44000E16A08433B4988310860E06A88
:102F7000B0F5800F05D13848C06840F4801036495C
:102F8000C860208800F48050B0F5805F13D13248CB
:102F90008830006820F04070216B08432E4988314A
:102FA0000860206BB0F1807F05D12B48C06840F4E9
:102FB00080102949C860208800F40050B0F5005FF7
:102FC00013D125488830006820F04060616B0843C9
:102FD000214988310860606BB0F1006F05D11E484F
:102FE000C06840F480101C49C860208800F480400C
:102FF000B0F5804F13D118488830006820F0406049
:10300000A16B0843144988310860A06BB0F1006FD0
:1030100005D11148C06840F480100F49C86020886D
:1030200000F40040B0F5004F13D10B488830006821
:1030300020F04050E16B0843074988310860E06B9D
:10304000B0F1805F05D10448C06840F48030024987
:10305000C8604046BDE8F8830010024000700040A0
:103060002DE9F04104460D464FF0000814B9012047
:10307000BDE8F0817D48006800F00F00A8420ED244
:103080007A48006820F00F00284378490860084615
:10309000006800F00F00A84201D00120E8E7207886
:1030A00000F00100002864D06068032823D1704834
:1030B000006800F0007008B90120D9E703F0C4FBF4
:1030C00006466C48864237D96948806800F0F000AF
:1030D00030B1207800F0020002282DD1A06858BB42
:1030E0006348806820F0F00040F08000604988600C
:1030F0004FF0800820E06068022806D15C48006834
:1031000000F4003040B90120B2E75948006800F4EB
:10311000806008B90120ABE700F0DEF806465548AC
:10312000864209D95248806820F0F00040F08000C3
:103130004F4988604FF080084D48806820F00300B8
:10314000616808434A498860FFF766FC074608E063
:10315000FFF762FCC01B41F28831884201D903208D
:1031600086E74348806800F00C006168B0EB810F8F
:10317000EED1207800F00200022820D1207800F063
:103180000400042805D13A48806840F4E0603849DA
:103190008860207800F00800082807D1344880684B
:1031A00020F4605040F4E060314988603048806825
:1031B00020F0F000A16808432D49886008E0B8F1CC
:1031C000800F05D12A48806820F0F00028498860E7
:1031D0002648006800F00F00A84219D9234800686B
:1031E00020F00F00284321490860FFF715FC07462F
:1031F00008E0FFF711FCC01B41F28831884201D979
:10320000032035E71948006800F00F00A842F0D10C
:10321000207800F00400042807D11548806820F4C5
:10322000E060E168084312498860207800F00800F7
:10323000082808D10E48806820F46050216940EACF
:10324000C1000B49886000F047F809498968C1F35B
:103250000311094A515C01F01F01C8400749086089
:1032600007480068FFF7FAFB02E700000020024071
:103270000010024000B4C404708C0008100000204C
:10328000080000200148006870470000100000207E
:1032900000B5FFF7F7FF05498968C1F30221044A29
:1032A000515C01F01F01C84000BD00000010024049
:1032B000808C000800B5FFF7E5FF05498968C1F378
:1032C000C221044A515C01F01F01C84000BD00004A
:1032D00000100240808C000870B5224DAD6805F0EA
:1032E0000C05042D01D120483AE01E4DAD6805F0D3
:1032F0000C05082D01D11D4832E01A4DAD6805F0CE
:103300000C050C2D2BD1174DED6805F00304154D60
:10331000ED68C5F303156A1C022C0CD0032C09D1EF
:10332000124DB5FBF2F50F4EF668C6F3062605FB07
:1033300006F10AE000BF0C4DB5FBF2F5094EF66848
:10334000C6F3062605FB06F100BF00BF054DED687C
:10335000C5F341656D1C6B00B1FBF3F000E000208C
:1033600070BD0000001002400024F40000366E0121
:103370002DE9F843044614B90120BDE8F88320780C
:1033800000F00100002865D0FC48806800F00C07C0
:10339000FA48C06800F003060C2F01D1032E01D0BB
:1033A000082F0AD1F548006800F40030002851D0F9
:1033B000606800284ED10120DFE700BF6068B0F5EB
:1033C000803F06D1ED48006840F48030EB4908604A
:1033D0001AE06068B0F5A02F0BD1E848006840F40F
:1033E0008020E64908600846006840F480300860A4
:1033F0000AE0E248006820F48030E04908600846AE
:10340000006820F48020086000BF606888B1FFF782
:1034100003FB054606E0FFF7FFFA401B642801D9CD
:103420000320AAE7D548006800F400300028F2D055
:1034300010E0FFF7F1FA054606E0FFF7EDFA401B52
:10344000642801D9032098E7CC48006800F40030D4
:103450000028F2D1207800F00200022860D1C7488D
:10346000806800F00C07C548C06800F003060C2F08
:1034700001D1022E01D0042F18D1C048006800F4F9
:10348000806018B1E06808B9012076E7BB48406861
:1034900020F0FE40217C40EA0160B8494860B8480D
:1034A0000068FFF7DBFA18B3012066E7E06800B3B5
:1034B000B248006840F48070B0490860FFF7ACFA89
:1034C000054606E0FFF7A8FA401B022801D90320B1
:1034D00053E7AA48006800F480600028F2D0A748AB
:1034E000406820F0FE40217C40EA0160A34948602A
:1034F00016E0A248006820F48070A0490860FFF739
:103500008BFA054606E0FFF787FA401B022801D92F
:10351000032032E79948006800F480600028F2D167
:10352000207800F00800082836D16069D0B19348AF
:103530009430006840F001009049C1F89400FFF712
:103540006BFA054606E0FFF767FA401B022801D92F
:10355000032012E789489430006800F00200002838
:10356000F1D019E085489430006820F001008349CB
:10357000C1F89400FFF750FA054606E0FFF74CFA51
:10358000401B022801D90320F7E67C4894300068EC
:1035900000F002000028F1D1207800F00400042897
:1035A00072D14FF000087548806D012121EA10703A
:1035B00078B100BF7148806D40F080506F498865D8
:1035C0000846806D00F08050009000BF00BF4FF0B3
:1035D00001086C48006800F48070B0B96948006860
:1035E00040F4807067490860FFF716FA054606E068
:1035F000FFF712FA401B022801D90320BDE66148FB
:10360000006800F480700028F2D000BFA068012894
:1036100008D15A489030006840F001005749C1F87D
:10362000900021E0A06805280FD154489030006830
:1036300040F004005149C1F890000846D0F89000CD
:1036400040F00100C1F890000EE04C489030006856
:1036500020F001004949C1F890000846D0F89000D8
:1036600020F00400C1F8900000BFA068A8B1FFF7E7
:10367000D3F9054609E0FFF7CFF9401B41F2883145
:10368000884202D9032078E625E03C489030006863
:1036900000F002000028EED013E0FFF7BDF9054668
:1036A00008E0FFF7B9F9401B41F28831884201D99F
:1036B000032062E631489030006800F002000028E4
:1036C000EFD1B8F1010F05D12C48806D20F080506A
:1036D0002A49886500BF207800F02000202836D1D4
:1036E000A069D0B125489830006840F00100234916
:1036F000C1F89800FFF790F9054606E0FFF78CF94E
:10370000401B022801D9032037E61C489830006886
:1037100000F002000028F1D019E018489830006845
:1037200020F001001549C1F89800FFF775F905462A
:1037300006E0FFF771F9401B022801D903201CE6BF
:103740000E489830006800F002000028F1D1E069CE
:10375000002860D00948806800F00C000C287AD05E
:10376000E069022858D10548006820F080700349BC
:103770000860FFF751F905460DE000000010024017
:103780000800002000700040FFF746F9401B0228A7
:1037900001D90320F1E54A48006800F000700028D4
:1037A000F2D1D4E90810401E41EA0011A06A41EAB2
:1037B0000021208E0122C2EB500041EA405134200A
:1037C000005DC2EB500041EA40612C20005D41EAFF
:1037D000C0603B49C9683B4A114008433849C8604A
:1037E0000846006840F0807008600846C06840F0F5
:1037F0008070C860FFF710F9054606E0FFF70CF986
:10380000401B022801D90320B7E52D48006800F0CD
:1038100000700028F2D051E02948006820F0807044
:1038200027490860FFF7F8F8054606E0FFF7F4F8C7
:10383000401B022801D903209FE52148006800F0C1
:1038400000700028F2D11E48C0681F4908401C497A
:10385000C86033E0FFE7E069012800D18DE5184832
:10386000C66806F00301206A814225D106F0F00106
:10387000606A401EB1EB001F1ED106F4FE41A06A33
:10388000B1EB002F18D106F078412C20005DB1EB90
:10389000C06F11D106F4C001208E0122C2EB50008E
:1038A000B1EB405F08D106F0C0613420005DC2EB8F
:1038B0005000B1EB406F01D001205EE500205CE5D7
:1038C000001002400C809F01FCFFEEFE70B5054623
:1038D0000B461646286840680E4900EA0104200C91
:1038E000D870C4F30420587004F03F009870C4F3FB
:1038F000423018705EB9D87803F06AF9D8705878F9
:1039000003F066F95870987803F062F99870002017
:1039100070BD00003FFFFF0070B504460B46164621
:1039200020688068586020680069C0F30E009860C5
:10393000206800680E4900EA0105C5F305401870CB
:10394000C5F30620587005F07F009870A80DD87058
:103950005EB9187803F03CF91870587803F038F91C
:103960005870987803F034F99870002070BD00000A
:103970007F7F7F0070B504460125002C4FD094F85E
:10398000250028B9002084F82400204600F04CF8D7
:10399000022084F825002068C068C0F300100028C9
:1039A00038D100BFCA20216848625320216848628C
:1039B00000BF204603F024F90546CDB92068806990
:1039C0001849084021688861216960680843A16935
:1039D0000843216889690843216888612089E16872
:1039E00041EA004021680861204603F02EF90546AF
:1039F0005DB9D4E907100843616908432168896902
:103A000021F0604108432168886100BFFF202168E0
:103A1000486200E0002515B9012084F825002846F9
:103A200070BD0000BFFF8FFB10B592B0044644216B
:103A300001A8FCF739FC1349206888421FD14FF4D4
:103A4000002001908012119001A8FFF751F908B1F0
:103A5000FDF7FCFD0C48006840F400400A4990392D
:103A6000C1F8900000BF0846806D40F48060886512
:103A70000846806D00F48060009000BF00BF12B067
:103A800010BD000000280040901002402DE9F047D2
:103A900005460C46174600BF95F82400012802D1C0
:103AA0000220BDE8F087012085F8240000BF022035
:103AB00085F825004FB9607800F01000102804D177
:103AC000607800F0EF000A30607097B9E07803F09A
:103AD00089F84FEA0049607803F084F849EA002940
:103AE000A07803F07FF849EA0009207849EA4038D5
:103AF00009E0E0780004617840EA0120A1780843F9
:103B0000217840EA413800BFCA2029684862532022
:103B10002968486200BF284603F072F8064646B995
:103B20000C4808EA000029684860284603F08DF830
:103B3000064600BFFF202968486200BF16B9012071
:103B400085F8250000BF002085F8240000BF30461E
:103B5000A7E700003FFFFF002DE9F04704460D46B0
:103B6000904600BF94F82400012802D10220BDE84D
:103B7000F087012084F8240000BF022084F825008B
:103B800000BFCA202168486253202168486200BFF4
:103B9000204603F035F80646002E47D1B8F1000F55
:103BA0001BD12068806900F0400000B102E00020D5
:103BB000E87000BF287803F015F84FEA00496878EC
:103BC00003F010F849EA0029A87803F00BF849EA55
:103BD0000009E87849EA805712E02068806900F01F
:103BE000400000B102E00020E87000BF2878000427
:103BF000697840EA0120A9780843E97840EA8157CA
:103C000012483840216808602068806920F48020CC
:103C100021688861D5E9030108432168896908435F
:103C200021688861204603F010F8064600BFFF2097
:103C30002168486200BF16B9012084F8250000BF42
:103C4000002084F8240000BF304690E77F7F7F008B
:103C500070B504460B482168C860FEF7DDFE0546D6
:103C600007E0FEF7D9FE401BB0F57A7F01D90320AB
:103C700070BD2068C06800F020000028F1D000204E
:103C8000F6E700005F00010070B504462546681E97
:103C9000B0F1807F01D301200FE0681E4FF0E021DA
:103CA00048610F214FF0FF3004F044FA00204FF03C
:103CB000E021886107200861002070BD70477047CF
:103CC0007047000010B50346002200BF93F83C0087
:103CD000012801D1022010BD012083F83C0000BF63
:103CE00022F0FF00CC6840EA040222F440708C68A5
:103CF00040EA040222F480604C6840EA040222F4A4
:103D000000600C6840EA040222F480500C6940EA2A
:103D1000040222F400504C6940EA040222F480407C
:103D20000C6B40EA040222F470200C8B40EA04423F
:103D300022F08050CC6940EA0402124C1868A0427C
:103D400003D0114C1868A04213D122F470000C8DDE
:103D500040EA045222F080700C6A40EA040222F029
:103D600000704C6A40EA040222F00050CC6A40EA3B
:103D700004021868426400BF002083F83C0000BFC2
:103D800000BFA8E7002C0140003401407047704795
:103D90007047000030B502460B4600BF92F83C0069
:103DA000012801D1022030BD012082F83C0000BF73
:103DB000022082F83D0010684168106884681D4D3B
:103DC0001068A84203D01C4D1068A84203D121F40A
:103DD0007001586801431948014018680143106890
:103DE0004160144D1068A84213D01068B0F1804FA4
:103DF0000FD0134D1068A8420BD0124D1068A84286
:103E000007D00D4D1068A84203D00F4D1068A8428E
:103E100005D124F080049868044310688460012070
:103E200082F83D0000BF002082F83C0000BF00BFC8
:103E3000B9E70000002C0140003401408FFFFFFD76
:103E4000000400400008004000400140704710B5E9
:103E500004460CB9012010BD94F83D0028B900209B
:103E600084F83C00204600F029F8022084F83D0048
:103E7000211D206803F00CF8012084F8480000BFE1
:103E800084F83E0001213F2001554020015541208A
:103E90000155422001554320015500BF00BF0120BC
:103EA00084F844004520015546200155472001551E
:103EB00000BF012084F83D000020CCE710B586B09B
:103EC0000446142101A8FCF7EFF93F492068884215
:103ED0000DD100BF3D48006E40F400603B490866CC
:103EE0000846006E00F40060009000BF6AE02068A1
:103EF000B0F1804F32D100BF3448806D40F00100F6
:103F0000324988650846806D00F00100009000BFCE
:103F100000BF00BF0846C06C40F00100C8640846FE
:103F2000C06C00F00100009000BF00BF4FF40040E3
:103F3000019002200290002003900490012005903F
:103F400001A94FF09040FEF76BFC002211461C20A7
:103F5000FEF7E6FD1C20FEF7CFFD33E01C4920688C
:103F600088422FD100BF1948806D40F002001749E8
:103F700088650846806D00F00200009000BF00BF19
:103F800000BF0846C06C40F00200C8640846C06C20
:103F900000F00200009000BF00BF1020019002203E
:103FA00002900020039004900220059001A9094886
:103FB000FEF736FC002211461D20FEF7B1FD1D2044
:103FC000FEF79AFD06B010BD002C01400010024023
:103FD00000040040000400482DE9F04104460D466D
:103FE000002700BF94F83C00012802D10220BDE860
:103FF000F081012084F83C0000BF022084F83D00DD
:10400000206886683F48064026F47F462068866020
:104010002868702824D00CDC00F00F01002964D13E
:104020000011072861D2DFE800F053545556493596
:104030003F00354A811A90424FD009DCB0F5805FCD
:104040000DD0B0F5005F18D0B0F1101F4DD143E096
:10405000102943D0202942D0502946D140E046E0E3
:10406000D5E902136A68206802F085FF2068866837
:1040700046F077062068866039E0D5E902136A6861
:10408000206802F078FF2068806840F48040216852
:1040900088602CE0EA686968206803F09DF9502187
:1040A000206802F073FF22E0EA686968206803F084
:1040B00023FA6021206802F069FF18E0EA68696865
:1040C000206803F089F94021206802F05FFF0EE0CC
:1040D00000BF00BF00BF00BF00BF00BF00BF00BFE8
:1040E0002968206802F052FF01E0012700BF00BFED
:1040F000012084F83D0000BF002084F83C0000BF90
:10410000384674E788FFCEFF2000100010B5044643
:104110002068B0F1804F48D1207F012845D1FEF7BB
:104120007BFC4949086049480078B8B9002120461D
:1041300000F0F7FC4649086000BF2068006A20F0E4
:104140000A00216808622068006A40F002002168C5
:10415000086200BF01203D49087026E03B48007816
:10416000012815D10021204600F0DBFC3949086008
:1041700000BF2068006A20F00A00216808622068F9
:10418000006A2168086200BF0220304908700CE014
:104190002E480078022808D10021204600F0C1FCFA
:1041A0002D4908600320294908702C49206888425D
:1041B00048D1207F012845D1FEF72EFC2849086010
:1041C00028480078B8B90021204600F0AAFC26490A
:1041D000086000BF2068006A20F00A0021680862B9
:1041E0002068006A40F002002168086200BF0120D8
:1041F0001C49087026E01B480078012815D10021D1
:10420000204600F08EFC1949086000BF2068006A53
:1042100020F00A00216808622068006A21680862AC
:1042200000BF02200F4908700CE00E4800780228F9
:1042300008D10021204600F074FC0D4908600320DD
:104240000849087010BD0000300000202C0000203C
:10425000200000202400002028000020000400404E
:1042600044000020400000203400002038000020DE
:104270003C0000202DE9F04104460D46164600277B
:1042800000BF94F83C00012802D10220BDE8F08173
:10429000012084F83C0000BF96B9EB68D5E9001214
:1042A000206803F0CFF82068806920F00C002168B6
:1042B000886120688069A96808432168886141E0B5
:1042C000042E13D1EB68D5E90012206803F04AF9F7
:1042D0002068806920F440602168886120688069D6
:1042E000A96840EA0120216888612BE0082E12D1DC
:1042F000EB68D5E90012206803F074F92068C06902
:1043000020F00C002168C8612068C069A9680843D2
:104310002168C86116E00C2E13D1EB68D5E90012B4
:10432000206803F09DF92068C06920F4406021688E
:10433000C8612068C069A96840EA01202168C86195
:1043400000E0012700BF002084F83C0000BF384691
:104350009CE710B504460CB9012010BD94F83D004F
:1043600028B9002084F83C00204600F029F80220FB
:1043700084F83D00211D206802F08AFD012084F8A8
:10438000480000BF84F83E0001213F200155402035
:10439000015541200155422001554320015500BFE0
:1043A00000BF012084F844004520015546200155F6
:1043B0004720015500BF012084F83D000020CCE7D4
:1043C000704700002DE9F04304460D46002715B95B
:1043D00094F83E0015E0042D02D13F20005D10E06E
:1043E000082D02D14020005D0BE00C2D02D14120B0
:1043F000005D06E0102D02D14220005D01E0432067
:10440000005D804615B994F844000BE0042D02D1FC
:104410004520005D06E0082D02D14620005D01E048
:104420004720005D8146B8F1010F02D1B9F1010FBB
:1044300002D00120BDE8F0831DB9022084F83E00BF
:104440001AE0042D03D102213F20015514E0082D6C
:1044500003D10221402001550EE00C2D03D1022191
:104460004120015508E0102D03D1022142200155C1
:1044700002E00221432001551DB9022084F84400C6
:104480000EE0042D03D102214520015508E0082D3E
:1044900003D102214620015502E0022147200155A7
:1044A00035B1042D0BD0082D10D00C2D1CD114E0EB
:1044B0002068C06840F002002168C86016E02068EB
:1044C000C06840F004002168C8600FE02068C06840
:1044D00040F008002168C86008E02068C06840F02B
:1044E00010002168C86001E0012700BF00BF67BB62
:1044F00001222946206802F02DFD184920688842D3
:1045000013D02068B0F1804F0FD015492068884241
:104510000BD014492068884207D01349206888428C
:1045200003D012492068884210D120688068104961
:1045300000EA0106062E0FD0B6F5803F0CD02068A9
:10454000006840F001002168086005E0206800680C
:1045500040F001002168086038466BE7002C0140FC
:1045600000040040000800400034014000400140C9
:104570000700010070B504462068C6682068056918
:1045800005F00200022819D106F00200022815D118
:10459000401F21680861012020772068806900F0B1
:1045A000030018B12046FFF7B1FD05E0204600F0FA
:1045B0001FF9204600F00DFA0020207705F00400D6
:1045C000042819D106F00400042815D1C04321683D
:1045D0000861022020772068806900F4407018B1DB
:1045E0002046FFF793FD05E0204600F001F9204644
:1045F00000F0EFF90020207705F00800082819D115
:1046000006F00800082815D1C0432168086104207D
:1046100020772068C06900F0030018B12046FFF73A
:1046200075FD05E0204600F0E3F8204600F0D1F9E2
:104630000020207705F01000102819D106F0100096
:10464000102815D1C0432168086108202077206810
:10465000C06900F4407018B12046FFF757FD05E02F
:10466000204600F0C5F8204600F0B3F9002020777E
:1046700005F0010048B106F0010030B16FF0010013
:1046800021680861204600F04BFA05F08000802880
:1046900004D005F40050B0F5005F0AD106F08000A8
:1046A000802806D16FF40250216808612046FFF788
:1046B00006FB05F48070B0F5807F0AD106F080001B
:1046C000802806D16FF48070216808612046FFF7CA
:1046D000F5FA05F04000402809D106F040004028D6
:1046E00005D1C04321680861204600F033FA05F087
:1046F0002000202809D106F02000202805D1C04341
:10470000216808612046FFF7DBFA05F48010B0F558
:10471000801F0BD106F48010B0F5801F06D16FF416
:104720008010216808612046FFF731FB05F4001076
:10473000B0F5001F0BD106F40010B0F5001F06D134
:104740006FF40010216808612046FFF71FFB05F495
:104750008000B0F5800F0BD106F48000B0F5800F1B
:1047600006D16FF48000216808612046FFF710FB36
:1047700005F40000B0F5000F0BD106F40000B0F511
:10478000000F06D16FF40000216808612046FFF792
:104790005DFB70BD10B586B00446142101A8FBF77F
:1047A00083FD1149206888421BD100BF0F48C06CAF
:1047B00040F001000D49C8640846C06C00F00100DB
:1047C000009000BF00BF88150190022002900020D9
:1047D000039004900620059001A94FF09040FEF749
:1047E0001FF806B010BD0000002C01400010024070
:1047F00070472DE9F04104460D461646002700BFDC
:1048000094F83C00012802D10220BDE8F08101208B
:1048100084F83C0000BF0C2E51D005DC4EB1042EB4
:104820001ED0082E7AD133E0102E60D0142EF9D18C
:1048300075E02946206802F0B5FB2068806940F0E9
:104840000800216888612068806920F004002168E0
:10485000886120688069296908432168886178E057
:104860002946206802F0F6FB2068806940F4006069
:10487000216888612068806920F4806021688861EF
:1048800020688069296940EA01202168886160E028
:104890002946206802F03AFC2068C06940F0080010
:1048A0002168C8612068C06920F004002168C861DF
:1048B0002068C069296908432168C86149E0294620
:1048C000206802F07FFC2068C06940F40060216825
:1048D000C8612068C06920F480602168C8612068D0
:1048E000C069296940EA01202168C86131E0294690
:1048F000206802F0C3FC2068006D40F008002168C9
:1049000008652068006D20F00400216808652068B3
:10491000006D29690843216808651AE017E02946F7
:10492000206802F0E3FC2068006D40F4006021681C
:1049300008652068006D20F48060216808652068A3
:10494000006D296940EA01202168086501E001271E
:1049500000BF00BF00BF002084F83C0000BF384605
:1049600053E710B504460CB9012010BD94F83D0082
:1049700028B9002084F83C00204600F029F80220E5
:1049800084F83D00211D206802F082FA012084F89D
:10499000480000BF84F83E0001213F20015540201F
:1049A000015541200155422001554320015500BFCA
:1049B00000BF012084F844004520015546200155E0
:1049C0004720015500BF012084F83D000020CCE7BE
:1049D0007047704770B504460D4615B994F83E000F
:1049E00015E0042D02D13F20005D10E0082D02D11A
:1049F0004020005D0BE00C2D02D14120005D06E05F
:104A0000102D02D14220005D01E04320005D01280D
:104A100001D0012070BD1DB9022084F83E001AE0CB
:104A2000042D03D102213F20015514E0082D03D1AC
:104A30000221402001550EE00C2D03D1022141201E
:104A4000015508E0102D03D102214220015502E05A
:104A500002214320015501222946206802F07AFAFA
:104A60002749206888420FD02649206888420BD009
:104A700025492068884207D024492068884203D00D
:104A800023492068884201D1012000E0002028B19C
:104A90002068406C40F40040216848641849206850
:104AA000884213D02068B0F1804F0FD01949206898
:104AB00088420BD018492068884207D011492068E5
:104AC000884203D010492068884210D1206880684D
:104AD000124900EA0106062E0FD0B6F5803F0CD031
:104AE0002068006840F001002168086005E0206847
:104AF000006840F001002168086000208AE700009B
:104B0000002C0140003401400040014000440140BD
:104B10000048014000040040000800400700010078
:104B200070470246002031B1042907D0082908D077
:104B30000C290CD108E01368586B09E01368986BD6
:104B400006E01368D86B03E01368186C00E000BF40
:104B500000BF70477047014600BF91F884000128EC
:104B600001D102207047012081F8840000BF242079
:104B7000C1F88800086802680868006820F0010031
:104B80000B68186022F00052002048660868026036
:104B90002020C1F8880000BF002081F8840000BFF9
:104BA00000BFDFE72DE9F04104460E461746D4F872
:104BB0008C00202825D106B117B90120BDE8F0816D
:104BC0000120E066002020673A463146204603F087
:104BD000B7F905469DB9E06E01280FD11020216874
:104BE000086200BF00BF216851E8001F41F01000BB
:104BF000226842E800010029F5D100E0012528469D
:104C0000DCE70220DAE7000070B505460C461149E2
:104C1000286888421DD122460F491048FBF72BFB1C
:104C200000200E4908550E48048001200D4981F8E6
:104C3000F6000A2081F8F700802207490A48FFF7AA
:104C4000B1FF0A480068006820F0040007490968BD
:104C5000086070BD003801409C0700201C0800203F
:104C6000C4010020580000206C0400200005002032
:104C7000704770B504460D4600BF94F884000128C3
:104C800001D1022070BD012084F8840000BF2420DF
:104C9000C4F88800206806682068006820F00100D9
:104CA000216808602068806820F0606028432168DF
:104CB0008860204602F014FD206806602020C4F8B9
:104CC000880000BF002084F8840000BF00BFD9E73F
:104CD00070B504460D4600BF94F88400012801D148
:104CE000022070BD012084F8840000BF2420C4F895
:104CF0008800206806682068006820F001002168AC
:104D000008602068806820F060402843216888603F
:104D1000204602F0E5FC206806602020C4F88800E8
:104D200000BF002084F8840000BF00BFD9E77047AF
:104D3000704770472DE9F04704462068C569206830
:104D400006682068876840F60F0005EA0009B9F197
:104D5000000F0FD105F0200060B106F0200010B95F
:104D600007F0805030B1606F10B12046616F884706
:104D7000BDE8F087B9F1000F7ED0DF48384018B9A0
:104D8000DE4830400028F7D005F0010058B106F4A5
:104D9000807040B1012021680862D4F8900040F092
:104DA0000100C4F8900005F0020058B107F00100BE
:104DB00040B1022021680862D4F8900040F004005D
:104DC000C4F8900005F0040058B107F0010040B1AC
:104DD000042021680862D4F8900040F00200C4F872
:104DE000900005F0080070B106F0200010B9C2482C
:104DF000384040B1082021680862D4F8900040F0A3
:104E00000800C4F8900005F4006060B106F080600E
:104E100048B14FF4006021680862D4F8900040F077
:104E20002000C4F89000D4F89000002852D005F07B
:104E3000200050B106F0200010B907F0805020B1DA
:104E4000606F10B12046616F8847D4F890A0206849
:104E5000806800F04000402802D00AF0280070B3BB
:104E6000204602F017FE2068806800F040004028CD
:104E700026D100BF00BF00E02DE02168083151E8D5
:104E8000001F21F040002168083141E80002002A9B
:104E9000F1D100BFD4F8800068B19948D4F88010EF
:104EA0008863D4F88000FDF712FB98B1D4F8800035
:104EB000816B88470EE02046FFF73BFF0AE003E0E6
:104EC0002046FFF736FF05E02046FFF732FF0020BF
:104ED000C4F890004CE7E06E012865D105F01000A1
:104EE000002861D006F010000028FAD010202168B8
:104EF00008622068806800F0400040287AD1D4F829
:104F00008000006840681FFA80F8B8F1000F5CD09C
:104F1000B4F85C00404558DDA4F85E80D4F8800009
:104F20000068006800F02000E8BB00BF00BF2168F7
:104F300051E8001F21F48070226842E80001002936
:104F4000F5D100BF00BF00BF2168083151E8001F44
:104F500021F001002168083141E80002002AF3D164
:104F600000BF00BF00BF2168083151E8001F21F0D9
:104F700040002168083141E80002002AF3D100BF57
:104F80002020C4F88C000020E06600BF00BF21682C
:104F900051E8001F21F01000226842E800010029BA
:104FA000F5D100BF01E004E068E0D4F88000FDF72F
:104FB0004FFA02202067B4F85C00B4F85E20801A33
:104FC00081B22046FFF720FE12E0B4F85C004045B5
:104FD0000ED1D4F880000068006800F0200020287E
:104FE00006D102202067B4F85C102046FFF70CFEC3
:104FF000BEE6FFE734F85C0F6188401A1FFA80F8BC
:1050000060885C3CC8B3B8F1000F36D000BF00BF69
:10501000216851E8001F21F49070226842E80001E5
:105020000029F5D100BF00BF00BF2168083151E859
:10503000001F314AD24301EA02002168083141E8E9
:105040000002002AF1D100BF2020C4F88C0000200B
:10505000E066606700BF00BF216851E8001F21F0D3
:105060001000226842E800010029F5D100BF0220AB
:10507000206741462046FFF7C7FD79E605F480101A
:1050800050B107F4800038B14FF4801021680862F5
:105090002046FFF74DFE6BE605F0800058B106F0A4
:1050A000800010B907F4000028B1A06F10B12046AD
:1050B000A16F88475CE605F0400030B106F0400083
:1050C00018B1204602F01CFD52E605F4000030B194
:1050D00006F0804018B12046FFF729FE48E605F0AB
:1050E000807030B106F0004018B12046FFF7C0FDD7
:1050F0003EE600BF3CE60000010000102001000475
:105100001B79000810B504460CB9012010BDA06938
:1051100000B100E000BFD4F8880028B9002084F86E
:105120008400204600F02AF82420C4F88800206873
:10513000006820F0010021680860A06A10B12046D4
:1051400002F0FAFA204602F039FD012800D1DDE72D
:105150002068406820F4904021684860206880689A
:1051600020F02A00216888602068006840F0010073
:1051700021680860204602F05BFBC7E710B598B0D5
:105180000446142113A8FBF78FF8442102A8FBF76B
:105190008BF82E492068884256D1012002900020C9
:1051A000039002A8FDF7A4FD08B1FCF74FFA00BF79
:1051B0002748006E40F48040254908660846006E86
:1051C00000F48040019000BF00BF00BF0846C06CE3
:1051D00040F00100C8640846C06C00F00100019076
:1051E00000BF00BF4FF4C060139002201490002055
:1051F000159016900720179013A94FF09040FDF7D7
:105200000FFB144814490860182048600021124818
:105210008160C16080210161002141618161C161C2
:105220000162FDF71DFA08B1FCF710FA00BF0A4849
:10523000C4F88000846200BF002211462520FDF7DB
:105240006FFC2520FDF758FC18B010BD0038014058
:1052500000100240300002400005002070477047F7
:105260002DE9F84F04460E4617469946D4F88800B3
:1052700020285DD106B117B90120BDE8F88F0020C4
:105280005434E06321206063FDF7C6FB824627802B
:105290006780543CA068B0F5805F04D1206910B9E4
:1052A0000025B04602E035464FF0000829E053469D
:1052B000002280212046CDF8009002F0A5FE20B10A
:1052C0002020C4F888000320D7E745B9B8F80000CB
:1052D000C0F308002168886208F1020803E028781A
:1052E000216888626D1CD4F8880000F02100212814
:1052F00005D1B4F85600401EA4F8560001E0012084
:10530000BBE7B4F856000028D1D153460022402113
:105310002046CDF8009002F077FE20B12020C4F89E
:1053200088000320A9E72020C4F888000020A4E713
:105330000220A2E7704700BFFEE7000000B585B07D
:1053400014216846FAF7B0FFC020009011200190A8
:10535000012002900220039069460248FDF760FA9E
:1053600005B000BD0004004870B50825002401F018
:10537000B9FC13E06006040E002001F093FC282025
:1053800003F0BCFB282003F0B9FB012001F08AFCEC
:10539000282003F0B3FB01F099FC0443281EA5F17B
:1053A0000101CDB2E6D101F07DFC282003F0A6FB7F
:1053B00001F0C2FC204670BD10B5002001F0A8FC31
:1053C000282003F09BFB282003F098FB012001F02C
:1053D00069FC282003F092FB002001F063FC2820E8
:1053E00003F08CFB10BD70B50446082517E00020C3
:1053F00001F058FC282003F081FB04F0800001F04C
:1054000087FC282003F07AFB6006040E282003F0B6
:1054100075FB012001F046FC282003F06FFB281EDD
:10542000A5F10101CDB2E2D101F03CFC282003F04E
:1054300065FB70BD10B5012001F06AFC282003F067
:105440005DFB282003F05AFB012001F02BFC2820F3
:1054500003F054FB002001F025FC282003F04EFB54
:1054600010BD10B5012001F053FC282003F046FBCD
:10547000012001F017FC282003F040FB002001F080
:1054800047FC282003F03AFB002001F00BFC282009
:1054900003F034FB10BD10B5002001F003FC282000
:1054A00003F02CFB002001F033FC282003F026FB46
:1054B000012001F0F7FB282003F020FB012001F080
:1054C00027FC282003F01AFB10BD10B5052401F0BD
:1054D00009FC282003F012FB012001F0E3FB282047
:1054E00003F00CFB0BE0601E84B2282003F006FBE7
:1054F0002CB901F021FCFFF7CEFF012010BD01F017
:10550000E5FB0028EFD101F0CDFB01F015FC2820D0
:1055100003F0F4FA0020F1E701460F48B0F85020FC
:10552000B0F85200824201D1002070470A48B0F81A
:1055300052204030805C0870074AB2F85220501C5C
:10554000C21700EB12721211A0EB021293B2024AC0
:10555000A2F852300120E8E75800002010B500F012
:10556000B7F804465648007807280BD2DFE800F069
:10557000040B1A516084960024B152480470012033
:105580004F49087099E04F480078844206D10220C4
:105590004B49087000204C49088002E0002048492F
:1055A00008708AE047480078844212D14648008853
:1055B000401C4549088008460088502828DB41499E
:1055C00009780A31C8B2FBF705FF03203C4908708F
:1055D0001EE0A4B900203C4908803C4839490978BC
:1055E000405C012803D104203549087010E035489B
:1055F0000078FBF7EFFE00203149087008E03148E1
:105600000078FBF7E7FE2F48047001202C49087052
:1056100053E01CB900202A49087008E029480078A6
:10562000844204D02748047001202549087044E0D2
:1056300084B925480088401C234908800846008812
:10564000192818DB1F480078FBF7C4FE00201C490E
:10565000087010E01B480078844203D105201849E7
:10566000087008E017480078FBF7B4FE154804708E
:1056700001201349087020E012480078844209D1C3
:10568000104909781431C8B2FBF7A4FE06200C4972
:10569000087002E004200A4908700EE01CB90020DE
:1056A0000749087008E007480078844204D005489C
:1056B000047001200249087000BF00BF10BD000047
:1056C00048000020490000204A000020888C000883
:1056D00010B501210E48FDF791F908B9012010BD60
:1056E00002210B48FDF78AF908B90220F7E70421E7
:1056F0000748FDF783F908B90320F0E701214FF0CF
:105700009040FDF77BF908B90420E8E70020E6E7C0
:105710000004004800B585B014216846FAF7C4FDBE
:105720004FF6FF70009000200190032003900020AE
:10573000029069460248FDF773F805B000BD00000D
:105740000008004800B585B014216846FAF7ACFDA2
:105750004FF6FF700090012001900320039000207D
:10576000029069460248FDF75BF805B000BD0000F5
:105770000008004830B5054600240021084600F026
:1057800027F900F05FF900BF03E0284600F034F984
:10579000641CB4F5963FF8D330BD000000B587B067
:1057A000142102A8FAF780FD00BF2848C06C40F021
:1057B00004002649C8640846C06C00F0040001904B
:1057C00000BF00BF00BF0846C06C40F00100C864C5
:1057D0000846C06C00F00100019000BF00BF00BF90
:1057E0000846C06C40F00200C8640846C06C00F077
:1057F0000200019000BF00BF4FF4487002900120EA
:105800000390032005900020049002A91048FDF7A2
:1058100007F84FF480700290012003900320059058
:105820000020049002A94FF09040FCF7F9FFFFF729
:1058300089FF4FF480704FF0904188614FF40870F9
:1058400003491831086007B000BD00000010024095
:105850000004004870B505460E461446A4F1200029
:10586000C4B204EB4400044901EB0012314628465F
:1058700000F01AF870BD00008E8C0008F0B50746E5
:105880000C46002540F23F1609E0227831463846A2
:10589000FFF7E0FFA6F1100086B2641C6D1C2078B3
:1058A00008B1142DF1D3F0BD2DE9F0430646894629
:1058B000174600240025A046B0464946404600F061
:1058C00087F800BF1EE000F0BDF800250FE037F8B4
:1058D00014000121A940084020B90C48008800F0BC
:1058E0008BF803E00A48008800F086F86D1C102D44
:1058F000EDD308F1010000F0FF084946404600F0F2
:1059000067F8641C182CDED3BDE8F0834E0000203D
:105910004C00002010B5FFF741FF002000F016F802
:10592000094908800846008848F23021884202D19F
:1059300000F0BEFF01E001F04BF8002000F006F897
:105940000149088010BD00005000002070B50446D9
:105950004FF4007018490860401008602020164974
:10596000103908601548046020201349086000BF02
:1059700000BF00BF2020104910390860C000086037
:10598000FFF7C8FE4FF480704FF09041886200BF6F
:1059900000BF00BF0948001F006885B24FF4807047
:1059A0004FF090418861FFF7CDFE4FF4007002493F
:1059B00010390860284670BD2804004814080048C3
:1059C00001B5BDF800000149088008BD4E00002067
:1059D00030B504460D462146202000F059F82946EE
:1059E000212000F055F830BD01B5BDF80000014997
:1059F000088008BD4C0000204FF400710F4A116070
:105A000049100E4A103A1160202111600C490860BB
:105A100020210A4A116000BF00BF00BF2021074AB1
:105A2000103A1160C900116000BF00BF00BF4FF401
:105A30000071024A103A11607047000028040048C3
:105A4000140800484FF400700F49086040100860C7
:105A500020200D491039086022200C4908602020C0
:105A60000949086000BF00BF00BF20200649103967
:105A70000860C000086000BF00BF00BF4FF40070A6
:105A8000014910390860704728040048140800488C
:105A90004FF40072124B1A6052101A602022104B01
:105AA000103B1A600F4A106020220D4B1A6000BF95
:105AB00000BF00BF20220A4B103B1A60D2001A60C0
:105AC000084A11602022064B1A6000BF00BF00BFC9
:105AD0002022034B103B1A60D2001A60704700006E
