:020000040800F2
:100000007006002079020008D10E0008890E000851
:10001000CD0E00087F030008C90F00080000000093
:10002000000000000000000000000000410F000878
:100030008303000800000000D50E0008430F0008ED
:10004000930200089302000893020008930200083C
:10005000930200089302000893020008930200082C
:10006000930200089302000893020008930200081C
:10007000930200089302000893020008930200080C
:100080009302000800000000930200089302000899
:1000900093020008930200089302000893020008EC
:1000A00093020008930200089302000893020008DC
:1000B00093020008930200089302000893020008CC
:1000C00093020008930200089302000893020008BC
:1000D00093020008930200089302000893020008AC
:1000E000930200089302000893020008930200089C
:1000F0009302000893020008930200080000000029
:1001000000000000930200080000000093020008B5
:100110009302000800000000930200089302000808
:10012000930200089302000893020008930200085B
:100130009302000800000000000000009302000885
:100140009302000893020008000000000000000075
:10015000000000000000000000000000000000009F
:1001600000000000000000000000000093020008F2
:1001700093020008000000000000000000000000E2
:1001800000000000930200080000000000000000D2
:10019000000000000000000000000000000000005F
:1001A0000000000000000000930200089302000815
:1001B0009302000893020008930200080000000068
:1001C0000000000093020008000000000000000092
:1001D000930200089302000800F002F800F03CF8D7
:1001E0000AA090E8000C82448344AAF10107DA4592
:1001F00001D100F031F8AFF2090EBAE80F0013F0A8
:10020000010F18BFFB1A43F0010318472C0E000022
:100210004C0E0000103A24BF78C878C1FAD85207B3
:1002200024BF30C830C144BF04680C607047000070
:100230000023002400250026103A28BF78C1FBD8EF
:10024000520728BF30C148BF0B6070471FB500F090
:10025000E1FE1FBD10B510BD00F058F81146FFF7C4
:10026000F5FF00F0CFFE00F076F803B4FFF7F2FFE1
:1002700003BC00F07DF800000948804709480047AA
:10028000FEE7FEE7FEE7FEE7FEE7FEE7FEE7FEE746
:10029000FEE7FEE704480549054A064B70470000A3
:1002A000B50F0008D901000870000020700600207A
:1002B00070020020700200204FF0000200B51346CB
:1002C00094469646203922BFA0E80C50A0E80C5076
:1002D000B1F12001BFF4F7AF090728BFA0E80C5027
:1002E00048BF0CC05DF804EB890028BF40F8042B20
:1002F00008BF704748BF20F8022B11F0804F18BF8D
:1003000000F8012B7047704770477047754600F042
:100310002BF8AE4605006946534620F00700854697
:1003200018B020B5FFF7B6FFBDE820404FF000063B
:100330004FF000074FF000084FF0000B21F00701CD
:10034000AC46ACE8C009ACE8C009ACE8C009ACE810
:10035000C0098D46704710B50446AFF300802046B3
:10036000BDE81040FFF781BF004870471000002033
:1003700001491820ABBEFEE726000200704700BF0F
:10038000FEE7704772B600BFFEE700000148006854
:100390007047000000000020034800680349096816
:1003A0000844014908607047000000200800002050
:1003B00010B50024032000F097F80F2000F008F893
:1003C00008B1012401E000F02FF8204610BD000024
:1003D00070B50446002511480068D8B10F48006880
:1003E0004FF47A71B1FBF0F00D490968B1FBF0F6FA
:1003F000304600F02FFD58B9102C07D200222146BC
:10040000501E00F033F80748046004E0012502E0C4
:10041000012500E00125284670BD000008000020ED
:100420000C0000200400002008B500BF0E48006E3C
:1004300040F001000C4908660846006E00F001001B
:10044000009000BF00BF00BF0846806D40F08050A4
:1004500088650846806D00F08050009000BF00BFA6
:1004600000F0E2F808BD0000001002402DE9F05F46
:1004700080460D46164600F0A9FD074639462A4635
:10048000334601F00700C0F1070ABAF1040F02D9A0
:100490004FF0040A01E0C0F1070AD14600F1040A56
:1004A000BAF1070F02D24FF0000A01E0A0F1030AEF
:1004B000D4464FF0010A0AFA09FAAAF1010A0AEA37
:1004C000020A0AFA0CFA4FF0010B0BFA0CFBABF123
:1004D000010B0BEA030B4AEA0B042146404600F0ED
:1004E0007DFDBDE8F09F000000BF00F00702064B55
:1004F00019684FF6FF031940044B0B4343EA0221EE
:10050000014B196000BF70470CED00E00000FA05D8
:1005100002468ABB4148006800F4C060B0F5806FB5
:100520002BD13E488030006820F480703B4BC3F8EC
:1005300080001846006820F4C06040F40070186025
:100540003748006832235843364BB0FBF3F0411C68
:1005500000E0491E3148406900F48060B0F5806FCA
:1005600001D10029F5D12D48406900F48060B0F533
:10057000806F51D10320704708E028488030006820
:1005800020F48070254BC3F8800045E0B2F5007F71
:100590003AD12248006800F4C060B0F5806F2AD1DB
:1005A0001E488030006840F480701C4BC3F8800007
:1005B0001846006820F4C06040F4007018601848C5
:1005C000006832235843174BB0FBF3F0411C00E0A6
:1005D000491E1248406900F48060B0F5806F01D177
:1005E0000029F5D10D48406900F48060B0F5806FB6
:1005F00012D10320BFE709488030006840F48070C2
:10060000064BC3F8800007E00448006820F4C0608F
:1006100040F48060014B18600020ACE7007000409F
:100620000C00002040420F000348806840F48040E6
:100630000149886070470000007000402DE9F041DA
:1006400004460D464FF0000814B90120BDE8F081C2
:100650007D48006800F00F00A8420ED27A4800687A
:1006600020F00F002843784908600846006800F031
:100670000F00A84201D00120E8E7207800F0010037
:10068000002864D06068032823D17048006800F017
:10069000007008B90120D9E700F01EFC06466C483E
:1006A000864237D96948806800F0F00030B1207880
:1006B00000F0020002282DD1A06858BB6348806872
:1006C00020F0F00040F08000604988604FF0800822
:1006D00020E06068022806D15C48006800F4003021
:1006E00040B90120B2E75948006800F4806008B9B9
:1006F0000120ABE700F0B4F806465548864209D918
:100700005248806820F0F00040F080004F49886037
:100710004FF080084D48806820F00300616808436E
:100720004A498860FFF732FE074608E0FFF72EFED1
:10073000C01B41F28831884201D9032086E7434833
:10074000806800F00C006168B0EB810FEED120787A
:1007500000F00200022820D1207800F004000428D4
:1007600005D13A48806840F4E060384988602078D4
:1007700000F00800082807D13448806820F4605051
:1007800040F4E060314988603048806820F0F00033
:10079000A16808432D49886008E0B8F1800F05D1B1
:1007A0002A48806820F0F0002849886026480068C0
:1007B00000F00F00A84219D92348006820F00F006C
:1007C000284321490860FFF7E1FD074608E0FFF7ED
:1007D000DDFDC01B41F28831884201D9032035E795
:1007E0001948006800F00F00A842F0D1207800F00E
:1007F0000400042807D11548806820F4E060E1680F
:10080000084312498860207800F00800082808D1C1
:100810000E48806820F46050216940EAC1000B490D
:10082000886000F01DF809498968C1F30311094A7D
:10083000515C01F01F01C840074908600748006883
:10084000FFF7C6FD02E70000002002400010024052
:1008500000B4C4041E1000080C0000200400002096
:1008600070B5224DAD6805F00C05042D01D120486E
:100870003AE01E4DAD6805F00C05082D01D11D486C
:1008800032E01A4DAD6805F00C050C2D2BD1174D3B
:10089000ED6805F00304154DED68C5F303156A1CFA
:1008A000022C0CD0032C09D1124DB5FBF2F50F4EE2
:1008B000F668C6F3062605FB06F10AE000BF0C4DFC
:1008C000B5FBF2F5094EF668C6F3062605FB06F100
:1008D00000BF00BF054DED68C5F341656D1C6B00A1
:1008E000B1FBF3F000E0002070BD000000100240FA
:1008F0000024F40000366E012DE9F843044614B9D3
:100900000120BDE8F883207800F00100002865D0C0
:10091000FC48806800F00C07FA48C06800F0030645
:100920000C2F01D1032E01D0082F0AD1F548006801
:1009300000F40030002851D0606800284ED101201A
:10094000DFE700BF6068B0F5803F06D1ED48006882
:1009500040F48030EB4908601AE06068B0F5A02FE1
:100960000BD1E848006840F48020E649086008465A
:10097000006840F4803008600AE0E248006820F433
:100980008030E04908600846006820F48020086054
:1009900000BF606888B1FFF7F9FC054606E0FFF785
:1009A000F5FC401B642801D90320AAE7D54800685C
:1009B00000F400300028F2D010E0FFF7E7FC054615
:1009C00006E0FFF7E3FC401B642801D9032098E709
:1009D000CC48006800F400300028F2D1207800F004
:1009E0000200022860D1C748806800F00C07C548A3
:1009F000C06800F003060C2F01D1022E01D0042F95
:100A000018D1C048006800F4806018B1E06808B9E7
:100A1000012076E7BB48406820F0FE40217C40EA98
:100A20000160B8494860B8480068FFF7D1FC18B3C6
:100A3000012066E7E06800B3B248006840F48070C7
:100A4000B0490860FFF7A2FC054606E0FFF79EFCF0
:100A5000401B022801D9032053E7AA48006800F48C
:100A600080600028F2D0A748406820F0FE40217C3A
:100A700040EA0160A349486016E0A248006820F4FB
:100A80008070A0490860FFF781FC054606E0FFF78B
:100A90007DFC401B022801D9032032E799480068F9
:100AA00000F480600028F2D1207800F008000828C7
:100AB00036D16069D0B193489430006840F00100AD
:100AC0009049C1F89400FFF761FC054606E0FFF786
:100AD0005DFC401B022801D9032012E789489430AD
:100AE000006800F002000028F1D019E08548943039
:100AF000006820F001008349C1F89400FFF746FC2C
:100B0000054606E0FFF742FC401B022801D90320FE
:100B1000F7E67C489430006800F002000028F1D12C
:100B2000207800F00400042872D14FF000087548C6
:100B3000806D012121EA107078B100BF7148806D8D
:100B400040F080506F4988650846806D00F0805005
:100B5000009000BF00BF4FF001086C48006800F42F
:100B60008070B0B96948006840F4807067490860D7
:100B7000FFF70CFC054606E0FFF708FC401B0228C7
:100B800001D90320BDE66148006800F480700028A8
:100B9000F2D000BFA068012808D15A489030006800
:100BA00040F001005749C1F8900021E0A0680528F5
:100BB0000FD154489030006840F004005149C1F80A
:100BC00090000846D0F8900040F00100C1F8900075
:100BD0000EE04C489030006820F001004949C1F80F
:100BE00090000846D0F8900020F00400C1F8900072
:100BF00000BFA068A8B1FFF7C9FB054609E0FFF7F1
:100C0000C5FB401B41F28831884202D9032078E6B7
:100C100025E03C489030006800F002000028EED04B
:100C200013E0FFF7B3FB054608E0FFF7AFFB401BFF
:100C300041F28831884201D9032062E63148903080
:100C4000006800F002000028EFD1B8F1010F05D1D3
:100C50002C48806D20F080502A49886500BF20789C
:100C600000F02000202836D1A069D0B12548983066
:100C7000006840F001002349C1F89800FFF786FBA7
:100C8000054606E0FFF782FB401B022801D903203E
:100C900037E61C489830006800F002000028F1D0C8
:100CA00019E018489830006820F001001549C1F893
:100CB0009800FFF76BFB054606E0FFF767FB401B5C
:100CC000022801D903201CE60E489830006800F085
:100CD00002000028F1D1E069002860D0094880684E
:100CE00000F00C000C287AD0E069022858D10548A1
:100CF000006820F0807003490860FFF747FB054655
:100D00000DE00000001002400400002000700040D0
:100D1000FFF73CFB401B022801D90320F1E54A48BC
:100D2000006800F000700028F2D1D4E90810401EDD
:100D300041EA0011A06A41EA0021208E0122C2EBA3
:100D4000500041EA40513420005DC2EB500041EABE
:100D500040612C20005D41EAC0603B49C9683B4AC4
:100D6000114008433849C8600846006840F0807068
:100D700008600846C06840F08070C860FFF706FB56
:100D8000054606E0FFF702FB401B022801D90320BD
:100D9000B7E52D48006800F000700028F2D051E05F
:100DA0002948006820F0807027490860FFF7EEFAB4
:100DB000054606E0FFF7EAFA401B022801D90320A6
:100DC0009FE52148006800F000700028F2D11E481D
:100DD000C0681F4908401C49C86033E0FFE7E0696C
:100DE000012800D18DE51848C66806F00301206A85
:100DF000814225D106F0F001606A401EB1EB001F70
:100E00001ED106F4FE41A06AB1EB002F18D106F006
:100E100078412C20005DB1EBC06F11D106F4C00108
:100E2000208E0122C2EB5000B1EB405F08D106F0EA
:100E3000C0613420005DC2EB5000B1EB406F01D0C7
:100E400001205EE500205CE5001002400C809F015F
:100E5000FCFFEEFE70B504462546681EB0F1807FAB
:100E600001D301200FE0681E4FF0E02148610F21FF
:100E70004FF0FF3000F0B2F800204FF0E021886121
:100E800007200861002070BD00BFFEE708B500BF65
:100E90000D48C06C40F020000B49C8640846C06C87
:100EA00000F02000009000BF00BF00BF0846C06CEB
:100EB00040F00100C8640846C06C00F001000090DA
:100EC00000BF00BF08BD00000010024000BFFEE7E9
:100ED00000BFFEE77047000070B5164DED6805F0E5
:100EE0000304144DED68C5F303156B1C022C0CD0E4
:100EF000032C09D1104DB5FBF3F50E4EF668C6F381
:100F0000062605FB06F10AE000BF0C4DB5FBF3F524
:100F1000084EF668C6F3062605FB06F100BF00BFC3
:100F2000044DED68C5F341656D1C6A00B1FBF2F03C
:100F300070BD00000010024000366E010024F40075
:100F4000704710B5FFF728FA10BD00B593B03821EF
:100F500005A8FFF7B1F914216846FFF7ADF94FF482
:100F60000070FFF7D5FA01200590000406900220DA
:100F70000C9003210D910E9114210F9102211091DB
:100F80001191129105A8FFF7B7FC08B1FFF7FAF924
:100F90000F20009003200190002002900390049005
:100FA00002216846FFF74AFB08B1FFF7EBF913B0DF
:100FB00000BD00000348006840F47000014908606B
:100FC0007047000088ED00E000BFFEE702480068BF
:100FD000C0F30220704700000CED00E010B50028BF
:100FE00004DB0A07130E054A135406E00A07140E21
:100FF000034A00F00F031B1FD45410BD00E400E0AF
:1010000018ED00E0FFF7D4F9FFF79FFFFFF73EFF71
:1010100000BFFEE74FF04070E1EE100A704700009D
:101020000000000000000102030406070809000098
:101030000000010203040000581000080000002016
:1010400010000000140200086810000810000020C2
:1010500060060000300200080000000010000000E0
:08106000010000000024F4006F
:04000005080001D915
:00000001FF
