:020000040800F2
:10000000500E0020B5020008617C0008676C0008F3
:100010005D7C0008792F0008319F00080000000077
:1000200000000000000000000000000069820008DD
:10003000AD30000800000000E97C000801830008E2
:10004000CF020008CF020008CF020008CF0200084C
:10005000CF020008CF020008CF020008CF0200083C
:10006000CF020008CF020008CF0200087D2F000851
:100070008D2F00089D2F0008CF020008CF02000836
:10008000CF02000800000000CF020008CF020008E5
:10009000CF020008CF020008CF020008CF020008FC
:1000A000CF020008CF020008CF020008CF020008EC
:1000B0008D8300089D830008CF020008CF0200084E
:1000C000CF020008CF020008CF020008CF020008CC
:1000D000CF020008219F0008CF020008CF020008CD
:1000E000CF020008CF020008CF020008CF020008AC
:1000F000CF020008CF020008CF0200080000000075
:1001000000000000CF02000800000000CF0200083D
:10011000CF02000800000000CF020008CF02000854
:10012000CF020008CF020008CF020008CF0200086B
:10013000CF0200080000000000000000CF0200080D
:10014000CF020008CF0200080000000000000000FD
:10015000000000000000000000000000000000009F
:10016000000000000000000000000000CF020008B6
:10017000CF020008000000000000000000000000A6
:1001800000000000CF020008000000000000000096
:10019000000000000000000000000000000000005F
:1001A0000000000000000000CF020008CF0200089D
:1001B000CF020008CF020008CF02000800000000B4
:1001C00000000000CF020008000000000000000056
:1001D000CF020008CF02000800F002F800F05AF841
:1001E0000AA090E8000C82448344AAF10107DA4592
:1001F00001D100F04FF8AFF2090EBAE80F0013F08A
:10020000010F18BFFB1A43F001031847ACBA0000F6
:10021000CCBA0000103A24BF78C878C1FAD8520787
:1002200024BF30C830C144BF04680C607047000070
:100230000023002400250026103A28BF78C1FBD8EF
:10024000520728BF30C148BF0B60704766290AF0CB
:100250005183642900F00E81002070471FB50AF019
:100260003CFB9DE8030001F02FFF00F0DBFF0400E2
:10027000002000210AF0B8F8401C60600020002136
:100280000AF09CF8E06001F093FA1FBD10B501F090
:10029000F8FA10BD01F060FB1146FFF7DFFF0AF02E
:1002A0004DF801F0A3FE03B4FFF7F0FF03BC02F02A
:1002B000BFF800000948804709480047FEE7FEE70D
:1002C000FEE7FEE7FEE7FEE7FEE7FEE7FEE7FEE706
:1002D00004480549054A064B704700007983000829
:1002E000D901000850080020500E0020500A0020BC
:1002F000500A002053EA020C00F069802DE9F04B0F
:100300004FF00006002B1FBFB3FA83F503FA05F484
:1003100024FA05F65E4012BF1643B2FA82F502FADD
:1003200005F4C5F120051EBF22FA05FC44EA0C04C1
:10033000203556EA044C4FEA144418BF641C4FF0B1
:1003400000084FF00009904271EB030C39D30029EB
:1003500019BFB1FA81F701FA07F6B0FA80F700FA8F
:1003600007F6C7F120071EBF20FA07FC46EA0C0675
:100370002037B6FBF4FCA7EB0507103F07F01F0B77
:10038000CBF120060CFA0BFB2CFA06F644BFB34661
:100390000026202FA4BF5E464FF0000B5BEA060C40
:1003A00008BF4FF0010B19EB0B09ABFB027C48EBCC
:1003B0000608C01B06FB02CC0BFB03CC71EB0C0147
:1003C000C1E70B46024641464846BDE8F08B13B5EF
:1003D0004FF000004FF00001AFF30080BDE81C407B
:1003E000704700000FB4044910B503AA029800F04A
:1003F00055FC10BC5DF814FB440700200FB41CB57D
:10040000074B06AA7B4469460090059800F02DFC36
:100410000020694600F03CFC1CBC5DF814FB0000A9
:100420008908000070B5044685690068C10601D5D9
:10043000302600E02026C00707D070BDD4E9012196
:1004400030469047206A401C20626D1EF6D570BD74
:1004500070B5044685690078C00707D170BDD4E93E
:10046000012120209047206A401C20626D1EF6D595
:1004700070BD00002DE9F041064600241068752982
:10048000314616A510D0AFF30080002802DA4042B2
:1004900013A507E031688A0701D512A502E04907D4
:1004A00004D511A5012401E0AFF3008000210A2248
:1004B00006F1240709E0B0FBF2FCB0FBF2F302FB0B
:1004C0001C00303078541846491C0028F3D12346CC
:1004D0002A463046BDE8F04100F059B9000000005E
:1004E0002D0000002B000000200000002DE9F05F2F
:1004F000894604464FF0000ADFF824B1FB44C0F8F7
:1005000020A02046E168884700287DD0252806D015
:10051000D4E901219047206A401C2062F1E70025C0
:100520005F462046E16888472028064607DB312ED3
:1005300005D2B81910F8200C08B10543F1E7A80757
:1005400001D525F00405C4F81CA00027C4F818A0A4
:100550002A2E09D0304609F03AFE38B304EB87085A
:10056000303EC8F8186019E059F8041B204604EB27
:1005700087029161E1688847012F064618D1E0693A
:10058000002820DA25F020051DE0D8F8180000EB3F
:10059000800006EB40003038C8F818002046E168BB
:1005A0008847064609F013FE0028EED1012F0AD035
:1005B0002E2E08D12046E16888477F1C0646022F70
:1005C00045F02005C4DBA069002803DA404245F06D
:1005D0000105A061E80701D025F01005A6B1A6F13C
:1005E0004100192802D8203645F400654A463146B4
:1005F000204625604D46FFF729FE60B1012807D04F
:10060000ED1D25F0070000E007E000F1080978E79C
:1006100005F1040975E730467AE7206ABDE8F09FE6
:1006200004B700000FB400B58DB010A90990009177
:100630000B904FF0FF300A9000200C900648784451
:100640000690064878446A4607900F9909A800F07A
:10065000B9FD0DB05DF814FBA30B0000BB0B00004F
:1006600040EA010370B59B072ED14FF00136042AF2
:100670002AD308C810C99D1B9D43121F15EAC61531
:1006800017D0D8B2E1B2401A50EA056110D198B241
:10069000A1B2401A50EA05410AD123F07F4024F06C
:1006A0007F41401A50EA052102D1180EA0EB1460D8
:1006B00070BDA342DBD018BA21BA884201D901200B
:1006C00070BD4FF0FF3070BD0AB9002070BD10F84A
:1006D000013B11F8014B63B1A3420AD1521E08D06D
:1006E00010F8013B11F8014B1BB1A34201D1521E7E
:1006F000EDD1181B70BD4FF000020429C0F012802C
:1007000010F0030C00F01B80CCF1040CBCF1020FC4
:1007100018BF00F8012BA8BF20F8022BA1EB0C0199
:1007200000F00DB85FEAC17C24BF00F8012B00F88F
:10073000012B48BF00F8012B70474FF0000200B5B5
:10074000134694469646203922BFA0E80C50A0E8F4
:100750000C50B1F12001BFF4F7AF090728BFA0E8A2
:100760000C5048BF0CC05DF804EB890028BF40F86E
:10077000042B08BF704748BF20F8022B11F0804FB0
:1007800018BF00F8012B70477047704770472DE97C
:10079000F0470D4699469246044600F12408016848
:1007A000880604D5E06921F01001216000E00120F5
:1007B000A84201DD471B00E00027A1697A1902EB7E
:1007C0000900081AA0612078C00602D42046FFF76D
:1007D00029FE002608E0D4E901211AF80600904716
:1007E000206A401C761C20624E45F4DB2078C0064F
:1007F0000AD52046FFF716FE06E0D4E90121302095
:100800009047206A401C2062381EA7F10107F4DCE3
:1008100007E0D4E9012118F805009047206A401C40
:100820002062281EA5F10105F3DC2046FFF710FE2B
:100830002078000602D50220BDE8F0870120FBE702
:1008400070472DE9FF4F0C461E464FF0FF378BB027
:10085000D2E90001DDF860800A908A46C1F30A55AA
:1008600005B93D46002108464FF00000BAF1000FDF
:1008700000F4400005DA00EB80004FF4400101EA8B
:1008800050004FEA9059B9F1010F00DDB9460A98BE
:1008900050EA4A000ED044F61050A5F2FF35454309
:1008A0002F14B8F1000F1ED07542291E1EDDC9F1AC
:1008B00000021CE0B8F1010F4FF0000001D0302120
:1008C00003E0F24305E02154401CB042FBDB30461C
:1008D0000022002121540B99C1F80880C1E90020B1
:1008E0000FB0BDE8F08FBD1B6D1CDEE74A4600DA95
:1008F000694206A800F0E6FE06AB93E8070003ABEA
:1009000083E8070050460A9901F02AFE8DE80700A7
:10091000A0F500501F3800900398002D0ADD42F228
:100920001F014A460844002303A90390684602F0C9
:10093000D5F809E0A0F500504A461F38002303A966
:100940000390684602F0F4F88DE807000004000CFC
:1009500003D04FF0FF30410800E01046B8F1000F1F
:1009600003D00022009215461EE0751E05D400F04B
:1009700061FC303262556D1EF9D5B3460122084341
:1009800002D000227F1C04E02078302801D1002210
:100990007F1E002A099784D01DE0112D07DA00F090
:1009A00049FC303262556D1C50EA0102F5D1084312
:1009B00002D00098C8B10EE00021681E05E0235C5B
:1009C000625C63542254401E491C8142F7DBAB46F3
:1009D000A81B401E0990002004F80B000B98099AF0
:1009E000C0F80880C0E9002B7AE711264FF0000814
:1009F00057E72DE9F04F88460446D21D22F0070143
:100A000091B0D1E90001CDE90A0109F093FA02465B
:100A10000B98C00F01D02D2007E02068810701D579
:100A20002B2002E0202101EAC000032A099001D016
:100A3000072A05DB03464146204600F049FC0BE14E
:100A40002078800601D5E06900E00620B8F1650F46
:100A5000814606D0B8F1660F18D0B8F1670F70D193
:100A600031E00020B9F1110F009001DB112301E00A
:100A700009F101030AAA01A90CA8FFF7E2FEDDE9CA
:100A80000C70002609F10105834647E001204B4622
:100A900000904FF000470AAA01A90CA8FFF7D1FE69
:100AA000DDE90DB00C995D46002610B909F1010091
:100AB0000D18B9EB050003D4C0F1FF3609F10105AB
:100AC000A5EB09002BE0B9F1010F01DA4FF00109A4
:100AD0000020B9F1110F0090484601DD112300E01C
:100AE00003460AAA01A90CA8FFF7ABFEDDE90C70CA
:100AF0004D4600268346207800070AD4AB4500DA2D
:100B00005D4601A8012D04DD411911F8011C3029B1
:100B100007D04F4502DA17F1040F04DA01208246AC
:100B20000FE06D1EEEE7002F02DCED1B3E4403E0FC
:100B3000781CA84200DD7D1CB81B00F1010A4FF0B3
:100B400000472078000703D4AA4501DB4FF0FF3AA5
:100B50000021B7F1004F0DF143088DF8431024D068
:100B600002202B23002F01DA7F422D230A21021EAF
:100B7000A0F1010000DC5FB197FBF1FC97FBF1F203
:100B800001FB1C7C17460CF1300C08F801CDEEE798
:100B9000A8F1010003702188090501D5452100E075
:100BA0006521A0F1010800F8011C09980FA9A1EB2B
:100BB0000807FF1D00B10120411901EBEA70A1698E
:100BC0003844081A401EA0612078C00602D420468E
:100BD000FFF728FC099828B1D4E901219047206A41
:100BE000401C20622078C00622D52046FFF71AFC60
:100BF0001EE0002E04DBB34502DD01A8805D00E0AD
:100C00003020D4E901219047206A401C2062761CE4
:100C1000AAF101005FEA000A0AD100F003FBC068F4
:100C20000168405CD4E901219047206A401C2062A1
:100C3000281EA5F10105DCDC07E0D4E9012118F844
:100C4000010B9047206A401C2062381EA7F1010763
:100C5000F3DC2046FFF7FCFB032011B041E6000067
:100C600001694A1C02610878704700B58FB0CDE970
:100C700001310021059105497944CDE90310114660
:100C80006846FFF733FC0FB000BD0000E5FFFFFF33
:100C90000A6802F8010B0A6070470000074B70B544
:100CA0000D467B44FFF7E1FF0446284600F07CFD3B
:100CB00010B14FF0FF3070BD204670BDEF950000C1
:100CC0002DE9FF4F06468BB00878FF2806D0491C57
:100CD0002D2805D000244FF0000908E000200CE08A
:100CE0000124F8E709EB8903491C00EB4309087864
:100CF000FF28F7D114B1C9F1000081461078002512
:100D00002C46AA4629462D2801D02B2804D1521C56
:100D10002D2813D0002082468B461078FF280FD054
:100D20004FF0000C0A21521CA5FB017804FB018145
:100D300005FB0C11C5194BEB0104EEE70120EAE7B6
:100D4000002108464FF00000BAF1000F02D000EB7E
:100D500080004008C0F38157012F01DD4FF0FF37BD
:100D60000E9955EA040009EB01080BD04FF0020977
:100D700018F5FA7F16DA4FEACA70002F706008DDA6
:100D8000012007E04FEACA70C6E900B00FB0BDE825
:100D9000F08F0020306000F049FAC0F80090182170
:100DA000084616E0B8F5FA7F18DD002F02DAF7489A
:100DB000784401E0F6487844D0E90010C6E9001014
:100DC00040EACA70706000F031FAC0F80090142157
:100DD00008460FB0BDE8F04F09F089BD0021084674
:100DE0004FF00000B8F10001099002DAC7F10002EB
:100DF00000E03A4601DAC8F1000106A800F062FC02
:100E000006AB93E8070003AB83E8070044F23E001B
:100E10005BEA04010090584604D144F21E012C46BE
:100E20005D460091210C0904014306D10099240478
:100E300044EA15442D041039009104F07F41014328
:100E400006D10099240244EA15642D020839009164
:100E500004F07041014306D10099240144EA15745D
:100E60002D01091F009104F04041014306D1009972
:100E7000A40044EA9574AD00891E009104F000417D
:100E8000084304D100986D196441401E00904FF052
:100E900001033A466846B8F1000FCDE9014503A9C0
:100EA00002DD01F05AFE01E001F02DFEBAF1000F63
:100EB00004460D4601D084F00044002108464FF05E
:100EC0000000099940F2FF77484010F00C0F07D15D
:100ED00024F00040284303D0C4F30A50B84212D192
:100EE00000F0A4F9C0F80090C4F30A50B8420AD147
:100EF000A8487844D0E90010C6E9001004F0004189
:100F00000843706042E7C6E900543FE72DE9FF4F10
:100F10001F464FF0000A4FF0FF38454691B0D7E921
:100F20000146CDF83CA000F07DF9C0680168405C46
:100F30001090B96912986D1C8847396A81468847B4
:100F40000028F6D1B9F1FF3F0AD0002E24F4D06476
:100F500011DDB9F12B0F08D0B9F12D0F0BD102E043
:100F6000404615B013E744F48064B96912986D1CCB
:100F70008847761E8146600504A901D52D2000E032
:100F80002B20002E01F1010B0DF130088DF810001F
:100F90003FDDB9F1690F08D0B9F1490F05D0B9F1BA
:100FA0006E0F02D0B9F14E0F1CD13B4601A800953F
:100FB00080E85002DDE912126FF0020009F000FD36
:100FC000C11CCED10EE0B96912986D1C88478146CC
:100FD0001398761E44F4007405600F98401C002E90
:100FE0000F9016DDB9F1300FEDD0B9F1780F02D0C6
:100FF000B9F1580F0DD10F9801280AD13B46CDE920
:101000000054DDE91212001F029609F0D7FCC11C42
:10101000A7D1109989453ED144F0800406E0139988
:10102000681CAAF1010A44F400740860B9696D1CD7
:101030001298761E884730288146F0D02BE0109910
:10104000894505D1200603D4761E44F0800418E0BB
:10105000484609F0BCF808B3761E0DF123018B4514
:1010600044F4007408D2A9F130000BF8010B2006FB
:1010700007D5AAF1010003E0200602D40AF101001D
:101080008246A00502D51399681C0860B9691298B8
:101090006D1C88478146002ED1DC53E0002E51DDC7
:1010A000B9F1650F02D0B9F1450F4BD1A00549D573
:1010B000B9696D1C1298761E24F440748847002E7E
:1010C00081460CDD2B2804D0B9F12D0F07D144F453
:1010D0008074B96912986D1C8847761E8146E005B8
:1010E00001D52D2100E02B2108F8011BCDF800804F
:1010F00021E0761E0DF13901884544F400740CD2CC
:10110000A9F1300010F0FF0088F8000002D100992A
:10111000884509D908F1010806E0E00501D51E4817
:1011200001E042F20F708246B96912986D1C88473F
:10113000814613980560002E04DD484609F047F803
:101140000028D6D1F96912988847FF2053468BF8BA
:10115000000088F8000000200A900B9004AA0CA957
:101160000AA8FFF7ADFDA00502D46FF00100F8E674
:1011700014F0240F12D0E0071CD13868DDE90A1200
:10118000031D3B600068C0E9001213E02CAF0000B3
:101190001EAF0000E2AD0000F1D8FFFF0AA96846CB
:1011A00009F002F8E00705D13868009A011D39609E
:1011B000006802602846D4E6026811441378016092
:1011C00018467047D1600549794451610449794412
:1011D000116200211161114600F0BAB8EDFFFFFF66
:1011E000ED000000426842B1016811F8013B23B1F3
:1011F000521EC0E90012184670470121C160881EC6
:10120000704742685AB1C368016843B983688B422A
:1012100005D0491E521CC0E90012002070474FF053
:10122000FF307047004870470C08002000487047A6
:10123000EC07002030B5B0F10A024FEA900E71F1D0
:1012400000034EEA817EB0EB0E0061EB91014FEAA4
:10125000101E4EEA017E10EB0E0041EB11114FEA19
:10126000102E4EEA016E10EB0E0041EB11214FEAF9
:10127000104E4EEA014E10EB0E0041EB11414018AA
:1012800041F100014FEAD00040EA41704FEAD1013C
:1012900010EB80054FEA810444EA907444EB0104AA
:1012A0006D1944EB0404521BA3414FF0000348BFE7
:1012B0000A3200D530BD401C41F1000130BD10B5EF
:1012C000044600F06FFB0068005D00F0010010BDF7
:1012D0002DE9F0411F46044603260168072A01F460
:1012E000006004DB08B116A505E016A503E008B10F
:1012F00015A500E015A521F010002060A069C01E12
:10130000A0610FB1401EA0612046FFF78BF84FB1DE
:10131000D4E9012138469047206A401C2062C01C55
:10132000206206E0206AFAE7D4E9012115F8010BF2
:101330009047761EF8D22046FFF78AF8BDE8F08184
:101340004E414E006E616E00494E4600696E660069
:101350002DE9F34F4FF0000A0C4656468DB00120A0
:101360000C9001F10C000B9062690B9801219047E1
:10137000051E2DD0252D2CD0216A8847C0B1626969
:101380000B9801219047216A88470028F7D16269AC
:10139000411E0B98904700E0761CA1690D98884784
:1013A000216A88470028F7D1E1690D988847DBE773
:1013B000A1690D988847A842074601D1761CD3E75A
:1013C000E1690D9888477F1C02D1BAF1000F6FD0F8
:1013D0006CE162690B9800273D46394690472A2800
:1013E00004D162690B98012190470125DFF8D08272
:1013F00062690B9801219047A0F130010A290AD2B5
:101400004745E5DC07EB870100EB4107303FDFD4C0
:1014100045F01005ECE7E90601D46FF000476C28B1
:101420000AD04C2814D0682815D06A280DD074280A
:101430001CD07A281AD01DE062690B9801219047D0
:101440006C2802D045F0040514E045F002050DE0DB
:1014500045F020050AE062690B9801219047682851
:1014600002D045F0080505E045F4006562690B9877
:1014700001219047C4E9015765283DD019DC58285F
:101480007AD00CDC452837D004DC252826D041282A
:101490009ED131E046282FD0472899D12CE05B28F7
:1014A00077D0612828D063287CD0642823D15AE0E3
:1014B000F7E06F2848D008DC66281DD067281BD0CD
:1014C000692821D06E2816D127E0702845D07328CE
:1014D00068D0752847D078280DD14DE0A1690D98C6
:1014E0008847252805463FF469AFE1690D9888478C
:1014F0006D1C3FF46AAFD9E00D9923466A466FF040
:10150000010009F059FAC6E045F0400023464FF0CB
:1015100000026060A80736D43EE0E8077FF447AFDA
:101520002068011D21600068290501D506701BE7B0
:10153000290701D5068017E7A90703D5F117C0E9E8
:10154000006111E706600FE745F0400023464FF0C9
:1015500008026060A80716D41EE040F60E0125EAD6
:101560000100606016E045F0400023464FF00A029B
:101570006060A80707D40FE045F040006060A8074E
:1015800008D5234610220D996FF00100AFF30080BB
:1015900081E007E0102223460D996FF00100AFF3C0
:1015A000008078E04FF0000963284F46C8464B465C
:1015B000CB4602D05B2807D039E02079C00601D4A1
:1015C0000120A060012732E06269D4F80CB00B98CA
:1015D000012190475E2807D14FF001094946626911
:1015E000D4F80CB00B989047216939B900210A460C
:1015F00003AB43F82120491C0829FADBD8B3216941
:1016000049B308F1010862690B98012190475D28F0
:10161000F4D1B9F1000F09D0002003A951F820201E
:10162000D24341F82020401C0828F7DB03AB206997
:10163000002820794FEA40701ED05B462246CDF844
:101640000080CDE901970D9900286FF0010020DAA4
:10165000AFF300801FE0C11703AA00EBD1614B116B
:1016600021F01F0102EB8302411A13680120884018
:1016700003431360C7E719E00D99224600286FF075
:101680000100009702DAAFF3008004E0AFF30080BE
:1016900001E0AFF3008000280ADA401C06D10C9864
:1016A00020B14FF0FF300FB0BDE8F08F5046FAE7A1
:1016B000E90701D10AF1010A064400200C9053E623
:1016C000CCCCCC0C2DE9F047814616468AB0354883
:1016D00078440DC88DE80D0032487844801C03AC76
:1016E0000DC884E80D0041F69B300844372190FB7B
:1016F000F1F290FBF1F5A5F1800501FB12041B3C12
:1017000002D56442012000E00020DFF898A0804666
:101710000027FA44AAF1BE0A0EE0E0070AD03246DA
:10172000684607EB470101230AEB810101F000FA4B
:101730008DE8070064107F1C002CEED1194F7F4408
:10174000AE3F19E0E80715D007EB04100DF1180AB9
:1017500090E80E008AE80E00C068F04201D19819A6
:1017600008903246012306A903A801F0E1F903AB72
:1017700083E807006D10641C002DE3D14FF00103D6
:1017800032466946B8F1000F03A802D001F0A6F96D
:1017900001E001F0CDF9C9E90001C9F808200AB05B
:1017A000BDE8F087C0A50000007B00F08000704716
:1017B00010B542485421FEF7C0FF41485421FEF7BE
:1017C000BCFF40485421FEF7B8FF3F493B483C4A24
:1017D0003F4B08603D490A603A491960531C036554
:1017E000481C1065012008653B48344A39A17844FB
:1017F00000F060FB20B9384878440A3800F0FFFB5D
:1018000037482F4A35A1784400F054FB20B93448BA
:1018100078440A3800F0F3FB32482A4A2FA1784472
:1018200000F048FB20B92F4878440A3800F0E7FB65
:1018300040232248DC000021224600F017FB20B1A3
:1018400025487844543800F0DAFB1D4822464023EE
:10185000002100F00BFB20B121487844543800F0FF
:10186000CEFB184822461023002100F0FFFA002882
:1018700006D01C487844BDE81040563800F0BFBB85
:1018800010BD104870B5006D20F001040B4800F049
:1018900087FB0B4800F084FB0A4800F081FB09E05D
:1018A000206D20F00105204600F07AFB204600F074
:1018B00081F82C46002CF3D170BD0000F00600200A
:1018C00044070020980700200401002008010020A0
:1018D0000C01002072000000BAA400007700000094
:1018E000A6A4000092A400000EB5CDE9000100F00E
:1018F0007FFD029069460120ABBE0EBD08B569466A
:1019000000900220ABBE08BD1FB58DE807006946F8
:101910000520ABBE04B010BD1FB58DE80F006946B1
:101920000620ABBEF6E708B5694600900920ABBEBD
:1019300008BD1CB5CDE9000169460A20ABBE1CBD3F
:10194000704708B5694600900C20ABBE08BD00008A
:1019500000487047EC0700207546FFF7F9FFAE46D8
:1019600005006946534620F00700854618B020B5AB
:10197000FEF7AEFCBDE820404FF000064FF0000738
:101980004FF000084FF0000B21F00701AC46ACE827
:10199000C009ACE8C009ACE8C009ACE8C0098D4694
:1019A0007047000010B5FFF73DFC001D10BD00BFE3
:1019B000398A000070B50446051F00F069FB006815
:1019C000002C14BF446870BD002C18BFAC423CBF53
:1019D00020466468F8D301680A18AA4218BF456017
:1019E00003D12A6805461144016028684119A142C3
:1019F0001CBF6C6070BD6168696021680844286024
:101A000070BD10B5FFF712FC006810BD10B504469C
:101A1000FFF70CFC046010BD2DE9FF4F1F464FF08F
:101A20003C0987B04FF00042DDE9141001F10108D4
:101A3000DDF858A002EA405003900020059083464C
:101A4000054604460490B969461E08988847AAF1DD
:101A5000010A0290BAF1000F3BDD02982E2815D042
:101A6000102100F0A2FB00282EDB4FF0010B05999E
:101A7000014317D0B9F1000F0BDB4A46C11700F044
:101A800081FB05430C43A9F1040905E00120049002
:101A90000BE008B145F0010501200590049820B93C
:101AA000361D02E0049800B1361FB969089808F1A4
:101AB00001088847BBF1000FAAF1010A0290C9D0C2
:101AC0000999C1F80080C5E70298702808D050280D
:101AD00006D0F96908988847BBF1000F14D04FE091
:101AE000002002900120BBF1000F049009D0B969D9
:101AF000089808F101088847AAF10109B9F1000F17
:101B000007DCF969089888476FF001000BB0BDE861
:101B1000F08F2B2804D02D280CD14FF0FF300490EB
:101B2000B969089808F101088847A9F10109B9F1D4
:101B3000000FE6DD411CE4D00A2100F036FB00284E
:101B4000DFDB029908F1010801EB810100EB4100A4
:101B50000290B969089888470A2100F026FB099A83
:101B6000A9F10109B9F1000FC2F8008001DD0028D8
:101B7000E7DAF969089888470499029800FB01663A
:101B800055EA040004D004F04041090002D006E008
:101B9000039898E0A40044EA9574AD00B61E04F0E2
:101BA0000041080002D16D196441761E159810F0AD
:101BB000240F03D04FF00B095C4803E04FF02809D5
:101BC0006FF07D008246564507DAAAEB060189448C
:101BD000B9F1410F01DD4FF0410901200021A9F1C8
:101BE000010200F0CFFA024628400B46214008438C
:101BF00001D0012100E00021501E029143F1FF318C
:101C000028402140084301D0012000E00020029933
:101C1000834651EA0B014FD0002108464FF00000E7
:101C2000039900F4400039B100EB80004FF440010B
:101C300000EBD07001EA60008015012802DD4FF052
:101C4000FF3000E013D0401C36D0029860B3BBF1E7
:101C5000000F0CD14A460120002100F093FA2840E1
:101C60002140084301D0012000E00020E0B1012024
:101C70004A46002100F086FA034640190A466141AF
:101C80002D1A8C4111D3B9F1400F09DD159810F0D0
:101C9000240F02D0AAF1340603E0AAF1170600E0EF
:101CA000761C00254FF0004406E05B1E42F1FF3237
:101CB00020EA030521EA0204CAF10100B04206DA73
:101CC0001B49039808430190002000900EE0039AFE
:101CD000C4F3D321E80A0A43164940EA44500A43B0
:101CE0003146CDE90002684608F067FA159810F011
:101CF000240F0BD01598C00715D13868DDE9001204
:101D0000031D3B600068C0E900120CE002A86946B0
:101D100008F04AFA1598C00705D13868029A011DE3
:101D20003960006802604046F0E6000002FCFFFFF8
:101D30000000F07F0000F03F2DE9FF4F92461D4666
:101D400085B04FF00041DDE9124BDDE914727F1ED2
:101D500001EA4B50414940F0FF4940EA01080021A7
:101D600022F020004928049102D04E2828D04CE0CF
:101D70003BA0012607C88DE80700A9690698641CE6
:101D800088477F1E014606D41DF8060018B121F0D1
:101D9000200181420BD0E96906988847032E34D090
:101DA000082E32D06FF0010009B0BDE8F08F761C2C
:101DB000032E01D0082EE0D1601CCAF80000DCE739
:101DC000A9690698641C88477F1E2AD420F0200049
:101DD000412826D1A9690698641C88477F1E20D413
:101DE00020F020004E281CD1A9690698641C884761
:101DF0007F1E48F4002849F48009CAF8004001D445
:101E0000282806D0E969069888475FEACB7012D087
:101E100022E0A9690698641C88477F1E01D4002827
:101E200003DAE96906988847BCE72928F1D1641CE0
:101E3000CAF80040E9E71BF0240F07D0286804998E
:101E4000031D2B600068C0E9001805E02868021D2A
:101E50002A600068C0F800902046A5E70000F07FE7
:101E6000494E46494E4954590000000070B5C468B7
:101E7000A50713D0650211D4B2F5807F09D0B2F561
:101E8000007F06D0B2F5806F08D1012300F1240154
:101E900006E05D1E6FF07F46B54201D3012070BDA4
:101EA0000161C361416024F470611143C16000208D
:101EB00070BD00002DE9F0410C460746164610465D
:101EC00000F06EF82078611C61280AD0722802D0D8
:101ED00077283CD102E00125002405E002250424F6
:101EE00002E0082448F2020511F8010B2B2806D065
:101EF000622809D011F8010C74280AD00BE045F0D3
:101F0000030544F00204EFE745F0040544F0010442
:101F1000EAE744F0100438462146FFF7E5FC411C8F
:101F200015D00021316171604FF40071F560F161ED
:101F30007061200704D530460222002100F044F9E8
:101F4000306D40F0010030653046BDE8F081002082
:101F5000FBE72DE9F0410D460646104C206DC10708
:101F600004D0410804D020F00104F7E722460EE037
:101F7000542000F0D8F807000ED0206D47F0010182
:101F80000843542120653846FEF7D7FB3A462946D8
:101F90003046BDE8F0418DE70020D6E7F00600208E
:101FA0002DE9F04704464FF000094FF0FF37C568B0
:101FB000D4E90486A80707D0204600F0B5F93046DA
:101FC000FFF79CFC002802DA3846BDE8F0872805B8
:101FD00002D54046FFF7EEFC4C212046FEF7ADFB54
:101FE000206D20F0010020654846EEE710B504465C
:101FF000AFF300802046BDE81040FEF754B910B59D
:1020000000F0DCF9BDE8104000F0D2B94FF0013C1F
:1020100050F8042B51F8043B9A4221D1A2EB0C0357
:10202000934313EACC1317D150F8042B51F8043B17
:102030009A4215D1A2EB0C03934313EACC130BD1B4
:1020400050F8042B51F8043B9A4209D1A2EB0C033F
:10205000934313EACC13DBD04FF00000704700BF6E
:10206000D01A01BAB1FA81F101F0180122FA01F097
:10207000CB40C1F12001DBB2C0B2C01A2CFA01F38F
:10208000D11A914311EAC311E6D17047704700009D
:1020900000487047F407002070477047704770474A
:1020A00038B504460A4600206946AFF30080002890
:1020B00008BF38BD02460099204600F0C6F901204D
:1020C00038BD012000F015BAF8B5AFF30080054621
:1020D00000200C46102000BF0646A819A0420DD9CA
:1020E000324669460020AFF30080070008BF00F0C9
:1020F00000FA0098A04218BF0546C419FFF7C8FFB0
:1021000005600746F01D20F007004619284600F03C
:1021100095F9B44208BFF8BDA21B31463868BDE846
:10212000F84000F092B970B50646FFF7B1FF0568B8
:1021300006F10B0020F00704B4429CBF002070BDE4
:102140002B466A68BAB11068A04210D304F10801A6
:1021500088423CBF5068586007D3516810194160ED
:102160001168091B016058601460101D70BD134692
:102170005268002AE7D121462846FFF791FF002840
:10218000DED170BDB2F120030AD5C2F1200301FAFD
:1021900002F120FA03F300FA02F041EA030170476A
:1021A00000FA03F14FF0000070473A2800D23038AF
:1021B00020F02002412A01D3A2F13700884201D346
:1021C0004FF0FF30704700002DE9F04104461646FD
:1021D0000D464769007B80072ED03846FFF7A3FBEA
:1021E00050BB3EB3012E02D0022E25D104E0204682
:1021F00000F045F905441DE03846FFF7A2FBE16811
:10220000002841F01001E16005DA204600F058F89E
:102210000120BDE8F081C9030BD56268E16A9142F3
:1022200000D81146A26911442269891A814200DD51
:1022300008460544002D01DA0220EAE7E16A6068F9
:10224000E268814206D29103E06203D522F40031B4
:1022500041F01002A6690027AE4213DCE16A814218
:1022600001D90B4600E0034603EB060C2369ACEBF7
:10227000030CAC4506DD814201D98C4600E0844662
:102280009C4505D1A760276042F02000A5620DE0C3
:10229000AD1BE669AE1B8142A66000D90846C01A94
:1022A000281A20605819606022F020000349084075
:1022B000E060002084F84870ABE70000BFCFD7FF94
:1022C000C16821F4001141F08001C16000218160EA
:1022D000016070472DE9F047814614460E464FF0E5
:1022E000FF383248D5685769054209D03846A16998
:1022F000FFF71FFB002811DB2C48C0430540E560B9
:102300002B46324649463846FFF7FEFAA16920F0CF
:102310000042B21A11440028A16103D02046FFF701
:10232000CFFF4046BDE8F08770B504460569C06A36
:102330006168884200D80846E16821F42011E16014
:10234000C90312D5A84208D02246411B2846FFF7F0
:10235000C1FF10B14FF0FF3070BD0020E562C4E94D
:102360000150E06820F48030E060002070BD10B5BE
:102370000446C06820F02000E060A16AA06988429D
:102380000DD02046FFF7D0FFE06820F4405040F029
:102390001000E060A06AA0612069E062606044F221
:1023A0004001E0688843E06010BD000010000200BA
:1023B000002801D000F03CB87047000010B501467D
:1023C00002A000F07DF8012010BD000053494752E3
:1023D000545245443A2052656469726563743A20E8
:1023E00063616E2774206F70656E3A2000000000F4
:1023F00010B5431C02E010F8011B71B18107FAD13E
:102400004FF0013202C88C1A8C4314EAC211F9D081
:10241000C01A0A0603D0C01E10BDC01A10BD0A049F
:1024200001D0801E10BD0902FCD0401E10BD00006E
:1024300001491820ABBEFEE7260002000021016022
:10244000C0E90110704710207047034640688C4671
:10245000002818BF88423CBF03464068F8D318687C
:102460001844884207D00CF1030020F00700001D3B
:10247000411A521A0146081D0A60FFF79BBA10B5AF
:102480000146C268900703D0900607D5886A0AE023
:10249000FEF7CCFE01210160881E10BD8B694868E3
:1024A00018440B69C01A91F848301BB191F84910D3
:1024B000401A10BD1103FCD50028FADD401E10BDE6
:1024C00070B505460C460A2000E06D1C00F018F8B7
:1024D00035B128780028F8D102E0641C00F010F82B
:1024E00014B120780028F8D1BDE870400A2000F02F
:1024F00007B810B500F00CF8BDE81040FFF758BF62
:1025000008B569468DF800000320ABBE08BD000089
:1025100010B5012805D0002103A0FFF7D1FF01204D
:1025200010BD09A1F8E7000053494752544D454DED
:102530003A204F7574206F662068656170206D6564
:102540006D6F7279000000003A2048656170206D5F
:10255000656D6F727920636F727275707465640057
:102560005FEA400C08BF91F0000F4FEA8C234FEA5E
:10257000C12243EA51514FEA1C5018BF00F5F04008
:102580004FEA300018BF41F000415FEA6C5C00F098
:102590002980BCF1FF3F08BF40F080407047130C1A
:1025A00006BF12044FF0100C4FF0000C130E04BFC6
:1025B00012020CF1080C130F04BF12010CF1040CF1
:1025C000930F04BF92000CF1020CD30F04BF520012
:1025D0000CF1010C11464FF00002A0F11F00A0EB1E
:1025E0000C00704711F0004F08BF704731F00041F8
:1025F0003FF4D5AF0B0C06BF09044FF0100C4FF0A1
:10260000000C0B0E04BF09020CF1080C0B0F04BFE9
:1026100009010CF1040C8B0F04BF89000CF1020CB2
:10262000CB0F04BF49000CF1010CCCF12003A0EB4F
:102630000C0022FA03F302FA0CF241EA030100F162
:102640000100704720F07F4C80EA030023F07F47B1
:10265000ACEB070303F57C5300F0004003F1FF03EC
:102660002DE980494FEA154B09B44FEA144325EA96
:102670000B4E24EA03480FF2042606EB1327490801
:102680003E785FEA320203FB0667C7F5000707FBE7
:1026900006F64FEA54374FEAD64606F1020607FB24
:1026A000066CCCF1005C4FEA1C472CEA074C07FB98
:1026B00006F40CFB06F504EB15464FEA961634BFFC
:1026C00000204FF000404FEAD13706FB07FC4FEAED
:1026D0001C4C0CFB0BF7D21B03FB0CF761EB070147
:1026E0000CFB0EF7B0EB074072EB17420CFB08F740
:1026F00034BFA2EB0742B2EB074261EB17414FEA4E
:102700000C444FEA910706FB07FC4FEA1C4C0CFBFC
:102710000BF7B0EBC74072EB573203FB0CF734BF3B
:10272000A2EBC742B2EBC74261EB57310CFB0EF78D
:10273000B0EBC70072EB57720CFB08F734BFA2EB8B
:10274000C702B2EBC70261EB5771039F4FEA816189
:1027500041EA921104EBCC044FEAD1374FEA82628E
:1027600006FB07FC42EA90124FEA80604FEA1C4CDD
:102770000CFB0BF7D21B03FB0CF761EB07010CFB07
:102780000EF7B0EB074072EB17420CFB08F734BFB3
:10279000A2EB0742B2EB074261EB17414FEA8C55BF
:1027A0004FEA910704EB9C2406FB07FC4FEA1C4C04
:1027B0000CFB0BF7B0EBC74072EB573203FB0CF787
:1027C00034BFA2EBC742B2EBC74261EB57310CFBFF
:1027D0000EF7B0EBC70072EB57720CFB08F734BF73
:1027E000A2EBC702B2EBC70261EB577115EB4C25A8
:1027F0004FEA816141EA92114FEA82624FEAD13792
:1028000042EA901206FB07FC44F100044FEA8060A4
:102810004FEA1C4C0CFB0BF7D21B03FB0CF761EBD4
:1028200007010CFB0EF7B0EB074072EB17420CFBF5
:1028300008F734BFA2EB0742B2EB074261EB174146
:1028400015EB1C154FEA813141EA92414FEA823281
:1028500042EA90424FEA80304FEA0C7644F100049D
:1028600048EA03434EEA0B484FF0000EB2EB080C67
:1028700071EB030724BF624639464EEB0E0E4FF054
:10288000000B0018524149414BEB0B0BB2EB080C0B
:1028900071EB03077BF1000B24BF624639464EEB18
:1028A0000E0E4FF0000B0018524149414BEB0B0B41
:1028B000B2EB080C71EB03077BF1000B24BF6246FF
:1028C00039464EEB0E0E51EA020718BF46F00106DC
:1028D00016EB0E7655F1000254F1000103D5BDE868
:1028E0008901BDE80088BDE88901BDE80048B61946
:1028F000524141EB0101A3F10103704780807F7ECB
:102900007D7C7B7A79787776767574737271717065
:102910006F6E6E6D6C6C6B6A6A6968686766666517
:102920006464636362616160605F5F5E5E5D5D5CA5
:102930005C5B5B5A5A595958585757565655555516
:102940005454535352525251515050504F4F4F4E76
:102950004E4D4D4D4C4C4C4B4B4B4A4A4A494949C4
:102960004848484747474746464645454544444406
:1029700044434343434242424241414146EA0646C0
:10298000A3F570534FEA164646EA42564FEAD22262
:1029900042EA415210B54FEAD121A3F1010300F000
:1029A0002FF820F0004000F1020C00F0004701EB8E
:1029B00000501146BCF5006F40EA070000D210BD80
:1029C000BAF1000F0AD01CB503B44FF004004FF069
:1029D00004014FF000000FBCBDE810404FF00001B3
:1029E000BBF1010FB9BF04484FF0FF31034800218C
:1029F00040EA070010BD00BFFFFFEF7F0000F07F3F
:102A0000002B9C4630D477002BD01CB54FEA3707FB
:102A100003B44FF010004FF01001BAF1000F06D0D0
:102A2000BCF1000FDCBF40F0080040F008014FF09F
:102A300000000FBCBDE810400BF1010BBBF1010F12
:102A400008BF5FEA170722BF12F1010211F101016D
:102A50004FF0004143F1000300F0004043EA000062
:102A60007047F9D35708D0E746EA064613F1400FFE
:102A70004FEA16461FDD13F1200FDFBF16430A464B
:102A8000002120335B42BED0C3F1200746EA064650
:102A900002FA07F74FEA164646EA0706C3F120078F
:102AA00022FA03F201FA07F721FA03F14FF00003CB
:102AB00042EA0702A7E746EA020646EA06464FEA66
:102AC000164646EA0106BCBF46EA0646360C4FF0FB
:102AD00000034FF000024FF0000194E72DE9804C15
:102AE0009A46934670B491E8380007C831EA400C22
:102AF00048BF34EA430C03D5FFF7A4FDFFF780FF7E
:102B0000F0BCBDE8008C2DE9804C9A46934670B429
:102B100091E8380007C831EA400C48BF34EA430C5A
:102B200003D5FFF78FFDFFF729FFF0BCBDE8008C50
:102B30002DE9804C9A46934670B491E8380007C856
:102B400010F0804F08BF13F0804F03D100F01AF847
:102B5000FFF756FFF0BCBDE8008C2DE9804C9A468B
:102B6000934670B491E8380007C810F0804F08BF52
:102B700013F0804F03D100F005F8FFF7FFFEF0BC23
:102B8000BDE8008C20F07F4780EA030023F07F4CF3
:102B900007EB0C03A3F57C5300F00040A3F1FE0308
:102BA00092F0000F00F0B38095F0000F00F07780F6
:102BB0002DE901494FEA11404FEA144621EA004845
:102BC00000FB06FC24EA064708FB06F607FB08F8AC
:102BD00000FB07F718EB06484CEB164C4FEA124B7C
:102BE00018EB07484FEA15464CEB174022EA0B4E0C
:102BF0000BFB06FC25EA06470EFB06F607FB0EFE5E
:102C00000BFB07F71EEB064E4CEB164C4FF0000685
:102C10001EEB074E4CEB174B18EB0B0840F1000076
:102C200018EB0E0B58EB000840F100008F1A4FF024
:102C300000013CBFC943661B14BFB5EB040C002167
:102C40003CBFC943F61B4FEA17444EEA8E0E27EAF3
:102C500004454FEA1C4704FB07622CEA074C05FBBE
:102C600007F70CFB05F604FB0CFC16EB074642EBE2
:102C7000174216EB0C4642EB1C421BEB060658EBC8
:102C80000202414146EA9E0601D5BDE80189B61916
:102C9000524141EB0101A3F10103BDE801894FEA73
:102CA00014454FEA114724EA054621EA074C05FB83
:102CB00007F406FB07F70CFB06F105FB0CFC11EB18
:102CC000074144EB17444FEA124711EB0C4144EB28
:102CD0001C4422EA074C05FB07F206FB07F70CFB36
:102CE00006F605FB0CFC16EB074642EB174216EB0B
:102CF0000C4642EB1C456A1854F1000148BF70476E
:102D0000B619524141EB0101A3F10103704795F05F
:102D1000000F37D04FEA11424FEA144721EA02462A
:102D200024EA074C02FB07F106FB07F70CFB06F44D
:102D300002FB0CFC14EB074441EB17414FEA15472B
:102D400014EB0C4441EB1C4125EA074C02FB07F550
:102D500006FB07F70CFB06F602FB0CFC16EB07461E
:102D600045EB174516EB0C4645EB1C42121951F189
:102D7000000148BF7047B619524141EB0101A3F170
:102D8000010370474FEA14454FEA114724EA05460C
:102D900021EA074C05FB07F106FB07F70CFB06F2DF
:102DA0004FF0000605FB0CFC12EB074241EB17410C
:102DB00012EB0C4251EB1C4148BF7047921841EB9B
:102DC0000101A3F10103704770B50546AC6AE06DDF
:102DD00000F0500098BBE06D40F40070E0652068A2
:102DE000006800F00800A8B1206804F0C3FB10B32D
:102DF0002068C06800F40050E8B9E06D20F48070ED
:102E0000E065E06D00F48050A8B9E06D40F001008D
:102E1000E06510E02068C06800F0020058B9E06D7D
:102E200020F48070E065E06D00F4805018B9E06D2A
:102E300040F00100E065204600F082FD0CE0FFE775
:102E4000E06D00F0100018B1204600F07BFD03E0BB
:102E5000606D416B2846884770BD70B50546AC6A09
:102E6000E06D40F04000E065206E40F00400206618
:102E7000204600F067FD70BD70B50446A56A28467F
:102E800000F05FFD70BD000038B5044600200090E2
:102E9000206804F056FB00284FD12068806828493C
:102EA000084048B1E06D40F01000E065206E40F051
:102EB00001002066012038BD206804F027FB00BF18
:102EC0002048806800F0E07000F4000080B11E48E7
:102ED00000681E49B0FBF1F0401C00EB4000800090
:102EE000009002E00098401E009000980028F9D160
:102EF00001F098FA05461AE0206804F022FB10B9A8
:102F0000206804F003FB01F08DFA401B02280ED963
:102F10002068006800F0010048B9E06D40F0100042
:102F2000E065206E40F0010020660120C3E72068C4
:102F3000006800F001000028DED00020BBE70000A0
:102F40003F0000800003005010000020400D0300EF
:102F500010B51E220549064800F0F6FE1E22034960
:102F60007831044800F0F0FE10BD0000EC050020B0
:102F7000100100207C01002000BFFEE710B50248D0
:102F800000F0F5FF10BD0000E801002010B5024878
:102F900000F0EDFF10BD00004802002010B502480F
:102FA00000F0E5FF10BD0000B403002030B5114D66
:102FB0000468AC4206D210490478083C1425B4FBDE
:102FC000F5F207E00C4920310478083C1425B4FBE5
:102FD000F5F4A21D0B46446CA40803EB840484643E
:102FE000054C8034C46402F01F050124AC40046524
:102FF00030BD00000804024000080240027902F0DF
:103000007F014A1E064B03EB82024265044A4032AE
:1030100082654A1E02F01F0301229A40C265704772
:103020000009024030B5D0E913546C60446D14B10E
:10303000D0E916546C6090F8444004F01F05012458
:10304000AC40056C6C60046863608468102C04D12B
:103050000468A2600468E16003E00468A160046899
:10306000E26030BD10B50E4890ED000A0D4880EDCD
:10307000020A0B4890ED010A0A4880ED010A90ED22
:10308000020ADFED090A20EE200ABCEEC00A10EEAB
:10309000100A00F57A700349C86107F07DF910BD88
:1030A000D40000201400002000007A447047002162
:1030B00009E0002201E0531C9AB240F6B8339A426C
:1030C000F9DB4B1C99B28142F3DB7047014908756B
:1030D000487570471400002008B5002000900122B8
:1030E0000021684607F087F8052001F08BF89DF86D
:1030F000000055280ED104220821184807F07BF85B
:10310000052001F07FF8042210211448001D07F06B
:1031100072F822E0B0EE040A10480C3880ED030A81
:103120004FF47A700D490C390861042208210B48CC
:1031300007F08BF8052001F065F8042210210748FC
:10314000001D07F082F8052001F05CF85520009082
:1031500001220021684607F078F808BD2000002011
:1031600010B52948807D012812D12848007878B907
:10317000254890ED030A264880ED000A22480069A0
:103180002449086001202149087000201E498875E3
:103190001E480078012804D002280FD003282CD123
:1031A00020E0042208211A4807F04FF801F03AF90C
:1031B0001949086002201549087022E001F032F92F
:1031C00015490968401A0A280BD304221021114816
:1031D00007F03BF801F026F90F49086003200B497E
:1031E00008700EE001F01EF90B490968401A0A2820
:1031F00002D300200549087003E00020034908704D
:1032000000BF00BF10BD000014000020B800002067
:10321000C0000020C4000020BC00002072B600BF27
:10322000FEE7000010B50021034802F09FFD0021D9
:10323000024802F09BFD10BD1C0300206803002023
:1032400010B501F0EFF804462E48007802281ED190
:1032500000202D4909682D4A1268914205D32A4958
:1032600009682A4A1268881A07E028490968C1F1E2
:10327000FF31254A12681144481C20B12449B1FB92
:10328000F0F1244A516200211E4A117000BF224809
:103290000068201AB0F57A7F04D900201D494862E1
:1032A000184908701D48007802281FD100201C49C9
:1032B00009681C4A1268914205D319490968194ADC
:1032C0001268881A08E0174909684FF6FF72511A08
:1032D000134A12681144481C20B10D49B1FBF0F1AA
:1032E0000C4A916200210D4A117000BF0E4800681F
:1032F000201AB0F57A7F04D9002006498862074970
:10330000087010BDE4000020E0000020DC00002078
:1033100040420F0014000020E8000020F4000020CC
:10332000F0000020EC000020F80000202DE9F04320
:103330009BB004460E464FF00008306800B100BF55
:1033400000BF94F85800012803D102201BB0BDE84B
:10335000F083012084F8580000BF002017901890D7
:103360002068B0F1A04F02D13148009001E0002068
:103370000090009850B9E06D40F02000E06500BF7B
:10338000002084F8580000BF0120DFE7009804F017
:10339000ECF80746206804F0E8F8D8BBD7BB254D09
:1033A000306800B394F83800716841EA4030A96889
:1033B00021F460410843A8604FF0A04004F0C6F833
:1033C00081461B4804F0C2F849EA0009B9F1000F30
:1033D00027D1B16830680843A96840F61F7291434D
:1033E0000843A8601DE0A86820F46040A8604FF082
:1033F000A04004F0ABF881460D4804F0A7F849EA74
:103400000009B9F1000F0CD1A86840F61F7188437C
:10341000A86006E0FFE7E06D40F02000E0654FF0B7
:10342000010800BF002084F8580000BF40468DE727
:1034300000010050000300502DE9F84F05460C46EE
:103440004FF0000A00200090FE49E068884200D05A
:1034500000E000BF00BF95F85800012802D102200B
:10346000BDE8F88F012085F8580000BF286804F0F7
:1034700077F800287DD12968D4E9002001F1300CCB
:10348000C0F3012B0CEB8B03D3F800C000F01F0E30
:103490004FF01F0B0BFA0EFB2CEA0B0C00F01F0B6E
:1034A000C2F3846E0EFA0BFE4CEA0E0CC3F800C099
:1034B00000BF286804F054F88146286804F03CF8FE
:1034C0008046B9F1000F64D1B8F1000FFBD1A068BC
:1034D000B0F1004F0AD121680022286804F05CF89E
:1034E0004FF00041286804F07CF808E0A2682168E9
:1034F000286804F051F80021286804F072F8606927
:103500002968C968C1F3C101490000FA01F72069BF
:1035100004283FD028682268216900F1600C0CEB78
:103520008103D3F800C0DFF820B30CEA0B0C02F0E3
:10353000F84B4BF0004B4BEA070B4CEA0B0CC3F873
:1035400000C000BF2868A269216900F1600C0CEB83
:103550008103D3F800C02CF0807C4CEA020CC3F845
:1035600000C000BF2868227F2169012A02D15206CB
:1035700001E0C6E10022134600F1600C0CEB810271
:10358000D2F800C02CF0007C4CEA030CC2F800C05A
:1035900000BFA7E00021286803F0C5FFC0F31200B8
:1035A00030B90021286803F0BEFFC0F3846007E053
:1035B0000021286803F0B7FF90FAA0F0B0FA80F07D
:1035C0002168C1F3120119B92168C1F3846104E0D3
:1035D000216891FAA1F1B1FA81F1884204D1002267
:1035E0001146286803F0F2FF0121286803F09BFFD1
:1035F000C0F3120030B90121286803F094FFC0F332
:10360000846007E00121286803F08DFF90FAA0F0A4
:10361000B0FA80F02168C1F3120119B92168C1F331
:10362000846104E0216891FAA1F1B1FA81F1884244
:1036300004D100220121286803F0C8FF0221286874
:1036400003F071FFC0F3120030B90221286803F0C3
:103650006AFFC0F3846007E00221286803F063FF7B
:1036600090FAA0F0B0FA80F02168C1F3120119B904
:103670002168C1F3846104E0216891FAA1F1B1FAF3
:1036800081F1884204D100220221286803F09EFFC4
:103690000321286803F047FFC0F3120030B903216B
:1036A000286803F040FFC0F3846007E00321286826
:1036B00003F039FF90FAA0F0B0FA80F02168C1F36E
:1036C000120119B92168C1F3846104E0216891FAFB
:1036D000A1F1B1FA81F1884204D1002203212868C6
:1036E00003F074FF286803F02CFF002872D12868CB
:1036F000E2682168D0F8B030C1F3120C23EA0C0361
:1037000002F0180BDFF844C12CFA0BFC0CEA010C98
:1037100043EA0C03C0F8B03000BF4A49E068884271
:1037200058D12368C3F312031BB92368C3F384631E
:1037300004E0236893FAA3F3B3FA83F35B1C03F06A
:103740001F03092B3ED82368C3F312031BB9236858
:10375000C3F3846304E0236893FAA3F3B3FA83F317
:103760005B1C03F01F034FF0010C0CFA03FC2368F1
:10377000C3F312031BB92368C3F3846304E0236813
:1037800093FAA3F3B3FA83F35B1C03F01F034CEA31
:10379000836C2368C3F312031BB92368C3F38463E8
:1037A00004E0236893FAA3F3B3FA83F35B1C03F0FA
:1037B0001F0303EB43034FF0000B4BEA03534CEAA8
:1037C000030347E02368C3F3120323B92368C3F359
:1037D000846305E043E0236893FAA3F3B3FA83F329
:1037E0005B1C03F01F034FF0010C0CFA03FC236871
:1037F000C3F312031BB92368C3F3846304E0236893
:1038000093FAA3F3B3FA83F35B1C03F01F034CEAB0
:10381000836C2368C3F312031BB92368C3F3846367
:1038200004E0236893FAA3F3B3FA83F35B1C03F079
:103830001F030A3B03EB43034FF0007B4BEA0353A8
:1038400006E0000000007F4000F0FF03FFFF0700DC
:103850004CEA03031946A268286803F09DFE2F492D
:103860002068084050B300BF2D48806800F0E07623
:1038700000BF2C492068884203D02B492068884229
:103880001DD106F40000D0B92868B0F1A04F3ED198
:1038900046F40001224803F093FE244800682449BE
:1038A000B0FBF1F0401C00EB40008000009002E013
:1038B0000098401E009000980028F9D127E01D498B
:1038C000206888420CD106F0807048B91A492868EF
:1038D00088421CD046F08071114803F071FE16E05A
:1038E00016492068884212D106F4800078B912493E
:1038F000286888420BD046F48001094803F060FE36
:1039000005E0E86D40F02000E8654FF0010A00BFD7
:10391000002085F8580000BF5046A1E5000008804F
:1039200000030050000021C31000C09010000020D0
:10393000400D0300000052C700010050000084CB7E
:1039400070477047704700002DE9F84304464FF078
:1039500000080020009014B90120BDE8F8836069D8
:1039600020B194F82400012800D100BFE06D30B9E7
:10397000204600F017F90020206684F858002068DF
:103980008168C1F3407131B1206881687E4A11407D
:10399000816000BF00BF206803F0DDFDB0B9206882
:1039A00081687A4A114041F08051816000BF7848B7
:1039B00000687849B0FBF1F0401C4000009002E044
:1039C0000098401E009000980028F9D1206803F06C
:1039D000C2FD48B9E06D40F01000E065206E40F097
:1039E000010020664FF00108206803F0B9FD06468B
:1039F000E06D00F01000002877D1002EFCD1E06DC2
:103A000020F4807040F00200E065206803F099FD2A
:103A1000B0B94FF0A04003F094FD81465E4803F03A
:103A200090FD49EA0009B9F1000F09D160685B49CE
:103A3000896821F47C110143584A916000BF00BF9E
:103A4000607FE16B41EA4030E1680843A1680843C8
:103A500094F8241040EA014594F82400012803D189
:103A6000208D401E45EA4045E06A28B1A08D00F453
:103A70007870216B084305432068C06848490840B6
:103A800028432168C8602068006920F04060616BAD
:103A9000084321680861206803F04EFD0746002EA8
:103AA00050D1EFBB207F002141EA803194F83800EB
:103AB00041EA40052068C06844F202018843284377
:103AC0002168C860206988B12068006940F48030AE
:103AD000216808612068D0F8C0006FF30D002169EB
:103AE00008432168C1F8C0000EE045E02068006985
:103AF00020F48030216808612068D0F8C0006FF39E
:103B00000D002168C1F8C00094F84000012813D1CD
:103B1000606C40F00101A06C0843E16C084300E0D8
:103B200010E0216D08432168096940F2FC7291435D
:103B300008432168086105E02068006920F0010061
:103B4000216808616069012809D12068006B20F0B4
:103B50000F00216A491E08432168086305E02068B8
:103B6000006B20F00F0021680863E06D20F0020078
:103B700040F00100E06505E0E06D40F01000E06518
:103B80004FF001084046E8E6C0FFFF5FC0FFFF7F3F
:103B900010000020400D0300000100500003005001
:103BA0000740F0FF10B598B00446142113A8FCF7A5
:103BB000C4FD442102A8FCF7C0FD2068B0F1A04F6D
:103BC00056D14FF4004002908003119002A800F0FB
:103BD00095FD08B1FFF722FB54480068401C53498B
:103BE00008600846006801280DD100BF5048C06C2D
:103BF00040F400504E49C8640846C06C00F40050C0
:103C0000019000BF00BF00BF4948C06C40F00200F7
:103C10004749C8640846C06C00F00200019000BF2C
:103C200000BF88141390032014900020159013A94E
:103C3000404800F0FBFA40484049086005204860D1
:103C400000213E488160C1608021016149004161DD
:103C5000890081612021C1610021016200F006FA22
:103C600008B1FFF7DBFA00BF3448606584625BE0AF
:103C700033492068884257D1C001029080031190D7
:103C800002A800F03BFD08B1FFF7C8FA274800681A
:103C9000401C264908600846006801280DD100BF75
:103CA0002348C06C40F400502149C8640846C06CE9
:103CB00000F40050019000BF00BF00BF1C48C06C62
:103CC00040F002001A49C8640846C06C00F00200C7
:103CD000019000BF00BF4FF40040139003201490E8
:103CE0000020159013A9134800F0A0FA12481430D0
:103CF0001449086024204860002112488160C16096
:103D00008021016149004161890081612021C161F7
:103D10000021016200F0AAF908B1FFF77FFA00BFA5
:103D200008486065846200BF18B010BD0000002024
:103D3000001002400004004808000240E801002092
:103D400000010050480200202DE9F04104460F46D2
:103D500090463D4803F0E2FB0646206803F000FC75
:103D600000286DD100BF94F85800012802D102202C
:103D7000BDE8F081012084F8580000BF1EB1052E77
:103D800001D0092E56D12046FFF77EF80546002DBA
:103D90004BD1E06D40F60161884340F48070E065EE
:103DA0002A492068884202D14FF0A04000E02068F4
:103DB0002168884200D01EB9E06D20F48010E065D3
:103DC000E06D00F4805020B1206E20F006002066E7
:103DD00001E0002020661E48616DC8621D48616DCB
:103DE00008631D48616D48631C202168086000BF9E
:103DF000002084F8580000BF2068406840F01000A0
:103E0000216848602068C06840F001002168C860EF
:103E1000226802F1400143463A46606D00F090F995
:103E20000546206803F0B0FB0BE000BF002084F8DB
:103E3000580006E0012500BF002084F8580000E08B
:103E40000225284694E700000003005000010050BE
:103E5000C92D0008792E00085B2E000801460022BB
:103E600009B90120704791F82500022803D00420E9
:103E7000C863012227E00868006820F001000B6891
:103E800018600868006820F00E000B681860886CE5
:103E9000006820F480708B6C186091F8440000F08A
:103EA0001F03012098400B6C5860D1E91330586013
:103EB000486D40B1486D006820F480704B6D18600B
:103EC000D1E916305860012081F8250000BF00209C
:103ED00081F8240000BF1046C4E770B504460025F1
:103EE00094F8250002280BD00420E063012084F818
:103EF000250000BF002084F8240000BF012534E025
:103F00002068006820F001002168086020680068CF
:103F100020F00E0021680860A06C006820F480701A
:103F2000A16C086094F8440000F01F010120884053
:103F3000216C4860D4E913104860606D40B1606D39
:103F4000006820F48070616D0860D4E91610486044
:103F5000012084F8250000BF002084F8240000BF61
:103F6000A06B10B12046A16B8847284670BD70B584
:103F70000446206C05682068066894F8440000F048
:103F80001F01042088402840E0B106F00400C8B1B9
:103F90002068006800F0200028B92068006820F040
:103FA00004002168086094F8440000F01F01042018
:103FB0008840216C4860206B002856D02046216B39
:103FC000884752E094F8440000F01F010220884026
:103FD000284018B306F0020000B32068006800F023
:103FE000200040B92068006820F00A0021680860BD
:103FF000012084F8250094F8440000F01F010220FD
:104000008840216C486000BF002084F8240000BF75
:10401000E06A50B32046E16A884726E094F84400FD
:1040200000F01F01082088402840F0B106F0080089
:10403000D8B12068006820F00E002168086094F86C
:10404000440000F01F0101208840216C48600120DD
:10405000E06384F8250000BF002084F8240000BF3E
:10406000606B10B12046616B884770BD70B5044627
:104070000CB9012070BD3049206888420BD22F490D
:104080002068401A1421B0FBF1F0800060642B48D6
:10409000083820640AE028492068401A1421B0FB3F
:1040A000F1F080006064244808382064022084F81D
:1040B00025002068056847F6F0708543D4E90201C1
:1040C00008432169084361690843A1690843E1691C
:1040D0000843216A08430543206805602046FEF72F
:1040E00065FFA068B0F5804F01D1002060602079A5
:1040F00000F07F00A16C0860D4E91310486060688C
:1041000060B16068042809D82046FEF777FF0020D8
:10411000616D0860D4E91610486003E00020606516
:10412000A065E0650020E063012084F82500002000
:1041300084F8240000BF9DE7080402400800024004
:104140002DE9F04104460D4616461F464FF0000883
:1041500000BF94F82400012802D10220BDE8F081BC
:10416000012084F8240000BF94F8250001283FD1E5
:10417000022084F825000020E0632068006820F019
:104180000100216808603B46324629462046FEF77A
:1041900049FF206B30B12068006840F00E002168B4
:1041A00008600BE02068006820F0040021680860C7
:1041B0002068006840F00A0021680860A06C006870
:1041C00000F4803028B1A06C006840F48070A16CCD
:1041D0000860606D28B1606D006840F48070616DAA
:1041E00008602068006840F001002168086006E06F
:1041F00000BF002084F8240000BF4FF002084046B2
:10420000ACE7000070B5044600F00CF90646254600
:10421000681C10B104480068054400BF00F002F9B2
:10422000801BA842FAD370BD0C00002078B503466D
:104230000022D2E0012696400D6805EA0604002C13
:104240007BD00D7905F00305012D04D00D7905F023
:104250000305022D13D1986856000325B540A843E5
:104260005600CD68B54028439860586801259540B0
:10427000A8430D79C5F300159540284358600D7982
:1042800005F00305032D07D10D7905F00305032D76
:104290000CD18D68012D09D0D86856000325B54092
:1042A000A84356008D68B5402843D8600D7905F0C5
:1042B0000305022D13D1D60803F1200555F8260079
:1042C0005507EE0E0F25B540A8435607F60E0D69AB
:1042D000B5402843D60803F1200545F826001868A4
:1042E00056000325B540A8430D7905F00305560097
:1042F000B540284318604D6805F44035002D6BD05B
:1043000000BF394D2D6E45F00105374E35663546F7
:104310002D6E05F00105009500BF00BF4FEAB635D0
:10432000960855F8260095072E0F0F25B540A8438F
:10433000B3F1904F02D100251AE04DE02B4DAB4276
:1043400001D1012514E02A4DAB4201D102250FE035
:10435000284DAB4201D103250AE0274DAB4201D1E4
:10436000042505E0254DAB4201D1052500E00625D9
:104370009607360FB5402843214D960845F826008C
:10438000204D2868A0434D6805F4801505B12043F1
:104390001C4D28602D1D2868A0434D6805F40015AC
:1043A00005B12043174D2D1D2860164D2D1F28687F
:1043B000A0434D6805F4003505B12043114D2D1F74
:1043C00028602D1F2868A0434D6805F4803505B18D
:1043D00020430C4D083D2860521C0D68D540002D2F
:1043E0007FF428AF78BD00000010024000040048B0
:1043F00000080048000C0048001000480014004865
:104400000800014008040140024613690B400BB14B
:10441000012000E0002070470AB1816100E0816264
:104420007047000001480068704700000400002049
:104430000348006803490968084401490860704757
:10444000040000200C00002010B50024032000F020
:10445000ABF80F2000F008F808B1012401E000F0EB
:104460002FF8204610BD000070B504460025114805
:104470000068D8B10F4800684FF47A71B1FBF0F0D2
:104480000D490968B1FBF0F6304601F003F958B95F
:10449000102C07D200222146501E00F047F8074892
:1044A000046004E0012502E0012500E00125284622
:1044B00070BD00000C00002010000020080000204B
:1044C00008B500BF0E48006E40F001000C490866B8
:1044D0000846006E00F00100009000BF00BF00BF62
:1044E0000846806D40F0805088650846806D00F079
:1044F0008050009000BF00BF00F0F6F808BD00003B
:10450000001002400146084600280DDB00BF00BF36
:1045100000F01F0301229A4043099B0003F1E023AE
:10452000C3F8002100BF00BF00BF70472DE9F05F56
:1045300080460D46164605F015FD074639462A46C3
:10454000334601F00700C0F1070ABAF1040F02D99F
:104550004FF0040A01E0C0F1070AD14600F1040A55
:10456000BAF1070F02D24FF0000A01E0A0F1030AEE
:10457000D4464FF0010A0AFA09FAAAF1010A0AEA36
:10458000020A0AFA0CFA4FF0010B0BFA0CFBABF122
:10459000010B0BEA030B4AEA0B042146404605F0E7
:1045A000E9FCBDE8F09F000000BF00F00702064BE9
:1045B00019684FF6FF031940044B0B4343EA0221ED
:1045C000014B196000BF70470CED00E00000FA05D8
:1045D00002468ABB4148006800F4C060B0F5806FB5
:1045E0002BD13E488030006820F480703B4BC3F8EC
:1045F00080001846006820F4C06040F40070186025
:104600003748006832235843364BB0FBF3F0411C67
:1046100000E0491E3148406900F48060B0F5806FC9
:1046200001D10029F5D12D48406900F48060B0F532
:10463000806F51D10320704708E02848803000681F
:1046400020F48070254BC3F8800045E0B2F5007F70
:104650003AD12248006800F4C060B0F5806F2AD1DA
:104660001E488030006840F480701C4BC3F8800006
:104670001846006820F4C06040F4007018601848C4
:10468000006832235843174BB0FBF3F0411C00E0A5
:10469000491E1248406900F48060B0F5806F01D176
:1046A0000029F5D10D48406900F48060B0F5806FB5
:1046B00012D10320BFE709488030006840F48070C1
:1046C000064BC3F8800007E00448006820F4C0608F
:1046D00040F48060014B18600020ACE7007000409F
:1046E0001000002040420F000348806840F48040E2
:1046F0000149886070470000007000402DE9F843D0
:1047000004460027B846206800F40020B0F5002FCA
:1047100073D1B946D348806D00F0805078B900BF9E
:10472000D048806D40F08050CE4988650846806D45
:1047300000F08050009000BF00BF4FF00109CA4850
:10474000006840F48070C8490860FFF76BFE0646B9
:1047500006E0FFF767FE801B022801D9032705E06A
:10476000C148006800F480700028F2D000BF002F1C
:1047700046D1BC489030006800F44075CDB1206C43
:10478000A84216D0B7489030006820F44075B5486C
:10479000D0F8900040F48030B249C1F8900008464B
:1047A000D0F8900020F48030C1F890000846C0F89E
:1047B000905005F00100A0B1FFF734FE064608E076
:1047C000FFF730FE801B41F28831884201D9032770
:1047D00006E0A4489030006800F002000028EFD006
:1047E00000BF5FB99F489030006820F44070216C92
:1047F00008439C49C1F8900003E00CE0B84600E093
:10480000B846B9F1010F05D19648806D20F080506F
:104810009449886500BF207800F0010048B19148B4
:104820008830006820F00300616808438D49C1F8B2
:104830008800207800F00200022809D189488830D9
:10484000006820F00C00A16808438649C1F8880080
:10485000207800F00400042809D1824888300068DC
:1048600020F03000E16808437E49C1F888002078D4
:1048700000F00800082809D17A488830006820F044
:10488000C000216908437749C1F88800207800F00A
:104890002000202809D173488830006820F4406047
:1048A000616908436F49C1F88800207800F0400032
:1048B000402809D16B488830006820F44050A16935
:1048C00008436849C1F88800207800F080008028FB
:1048D00009D164488830006820F44040E169084309
:1048E0006049C1F88800208800F48070B0F5807FAE
:1048F00009D15C488830006820F44030216A0843C0
:104900005849C1F88800208800F40070B0F5007F95
:1049100009D154488830006820F44020616A084377
:104920005049C1F88800208800F48060B0F5806F9D
:1049300013D14C488830006820F44010A16A084325
:10494000484988310860A06AB0F5801F05D1454804
:10495000C06840F480104349C860208800F40060BB
:10496000B0F5006F13D13F488830006820F4400054
:10497000E16A08433B4988310860E06AB0F5800F7E
:1049800005D13848C06840F480103649C860208896
:1049900000F48050B0F5805F13D132488830006851
:1049A00020F04070216B08432E4988310860206B4D
:1049B000B0F1807F05D12B48C06840F480102949B0
:1049C000C860208800F40050B0F5005F13D125487E
:1049D0008830006820F04060616B084321498831CD
:1049E0000860606BB0F1006F05D11E48C06840F4EC
:1049F00080101C49C860208800F48040B0F5804FCA
:104A000013D118488830006820F04060A16B08433B
:104A1000144988310860A06BB0F1006F05D11148CE
:104A2000C06840F480100F49C860208800F400403E
:104A3000B0F5004F13D10B488830006820F040508B
:104A4000E16B0843074988310860E06BB0F1805F93
:104A500005D10448C06840F480300249C86040462F
:104A6000BDE8F88300100240007000402DE9F041DD
:104A700004460D464FF0000814B90120BDE8F0814E
:104A80007D48006800F00F00A8420ED27A48006806
:104A900020F00F002843784908600846006800F0BD
:104AA0000F00A84201D00120E8E7207800F00100C3
:104AB000002864D06068032823D17048006800F0A3
:104AC000007008B90120D9E703F040F906466C48A8
:104AD000864237D96948806800F0F00030B120780C
:104AE00000F0020002282DD1A06858BB63488068FE
:104AF00020F0F00040F08000604988604FF08008AE
:104B000020E06068022806D15C48006800F40030AC
:104B100040B90120B2E75948006800F4806008B944
:104B20000120ABE700F0DEF806465548864209D979
:104B30005248806820F0F00040F080004F498860C3
:104B40004FF080084D48806820F0030061680843FA
:104B50004A498860FFF766FC074608E0FFF762FCF9
:104B6000C01B41F28831884201D9032086E74348BF
:104B7000806800F00C006168B0EB810FEED1207806
:104B800000F00200022820D1207800F00400042860
:104B900005D13A48806840F4E06038498860207860
:104BA00000F00800082807D13448806820F46050DD
:104BB00040F4E060314988603048806820F0F000BF
:104BC000A16808432D49886008E0B8F1800F05D13D
:104BD0002A48806820F0F00028498860264800684C
:104BE00000F00F00A84219D92348006820F00F00F8
:104BF000284321490860FFF715FC074608E0FFF746
:104C000011FCC01B41F28831884201D9032035E7ED
:104C10001948006800F00F00A842F0D1207800F099
:104C20000400042807D11548806820F4E060E1689A
:104C3000084312498860207800F00800082808D14D
:104C40000E48806820F46050216940EAC1000B4999
:104C5000886000F047F809498968C1F30311094ADF
:104C6000515C01F01F01C84007490860074800680F
:104C7000FFF7FAFB02E700000020024000100240AC
:104C800000B4C4041CAA0008100000200800002082
:104C900001480068704700001000002000B5FFF7D1
:104CA000F7FF05498968C1F30221044A515C01F00C
:104CB0001F01C84000BD0000001002402CAA0008DF
:104CC00000B5FFF7E5FF05498968C1F3C221044A31
:104CD000515C01F01F01C84000BD000000100240FF
:104CE0002CAA000870B5224DAD6805F00C05042D06
:104CF00001D120483AE01E4DAD6805F00C05082DA5
:104D000001D11D4832E01A4DAD6805F00C050C2D9F
:104D10002BD1174DED6805F00304154DED68C5F373
:104D200003156A1C022C0CD0032C09D1124DB5FBC3
:104D3000F2F50F4EF668C6F3062605FB06F10AE00B
:104D400000BF0C4DB5FBF2F5094EF668C6F306261A
:104D500005FB06F100BF00BF054DED68C5F34165D9
:104D60006D1C6B00B1FBF3F000E0002070BD000093
:104D7000001002400024F40000366E012DE9F843D3
:104D8000044614B90120BDE8F883207800F0010042
:104D9000002865D0FC48806800F00C07FA48C0681D
:104DA00000F003060C2F01D1032E01D0082F0AD1E9
:104DB000F548006800F40030002851D060680028F1
:104DC0004ED10120DFE700BF6068B0F5803F06D11B
:104DD000ED48006840F48030EB4908601AE06068F4
:104DE000B0F5A02F0BD1E848006840F48020E649D8
:104DF00008600846006840F4803008600AE0E24835
:104E0000006820F48030E04908600846006820F41B
:104E10008020086000BF606888B1FFF703FB05468B
:104E200006E0FFF7FFFA401B642801D90320AAE738
:104E3000D548006800F400300028F2D010E0FFF7F9
:104E4000F1FA054606E0FFF7EDFA401B642801D9A8
:104E5000032098E7CC48006800F400300028F2D125
:104E6000207800F00200022860D1C748806800F076
:104E70000C07C548C06800F003060C2F01D1022EB4
:104E800001D0042F18D1C048006800F4806018B128
:104E9000E06808B9012076E7BB48406820F0FE4092
:104EA000217C40EA0160B8494860B8480068FFF7D3
:104EB000DBFA18B3012066E7E06800B3B248006887
:104EC00040F48070B0490860FFF7ACFA054606E090
:104ED000FFF7A8FA401B022801D9032053E7AA488C
:104EE000006800F480600028F2D0A748406820F0F5
:104EF000FE40217C40EA0160A349486016E0A248D8
:104F0000006820F48070A0490860FFF78BFA05461E
:104F100006E0FFF787FA401B022801D9032032E799
:104F20009948006800F480600028F2D1207800F0F1
:104F30000800082836D16069D0B1934894300068E1
:104F400040F001009049C1F89400FFF76BFA054664
:104F500006E0FFF767FA401B022801D9032012E799
:104F600089489430006800F002000028F1D019E070
:104F700085489430006820F001008349C1F894000E
:104F8000FFF750FA054606E0FFF74CFA401B0228EF
:104F900001D90320F7E67C489430006800F0020055
:104FA0000028F1D1207800F00400042872D14FF0DD
:104FB00000087548806D012121EA107078B100BFAA
:104FC0007148806D40F080506F4988650846806D5B
:104FD00000F08050009000BF00BF4FF001086C4807
:104FE000006800F48070B0B96948006840F48070CF
:104FF00067490860FFF716FA054606E0FFF712FA60
:10500000401B022801D90320BDE66148006800F476
:1050100080700028F2D000BFA068012808D15A484B
:105020009030006840F001005749C1F8900021E03D
:10503000A06805280FD154489030006840F0040063
:105040005149C1F890000846D0F8900040F00100A6
:10505000C1F890000EE04C489030006820F001004C
:105060004949C1F890000846D0F8900020F00400AB
:10507000C1F8900000BFA068A8B1FFF7D3F90546BA
:1050800009E0FFF7CFF9401B41F28831884202D98D
:10509000032078E625E03C489030006800F00200EC
:1050A0000028EED013E0FFF7BDF9054608E0FFF752
:1050B000B9F9401B41F28831884201D9032062E6E8
:1050C00031489030006800F002000028EFD1B8F1BC
:1050D000010F05D12C48806D20F080502A49886549
:1050E00000BF207800F02000202836D1A069D0B180
:1050F00025489830006840F001002349C1F8980025
:10510000FFF790F9054606E0FFF78CF9401B0228EF
:1051100001D9032037E61C489830006800F00200EF
:105120000028F1D019E018489830006820F00100FC
:105130001549C1F89800FFF775F9054606E0FFF735
:1051400071F9401B022801D903201CE60E48983053
:10515000006800F002000028F1D1E069002860D06A
:105160000948806800F00C000C287AD0E069022819
:1051700058D10548006820F0807003490860FFF7A7
:1051800051F905460DE00000001002400800002023
:1051900000700040FFF746F9401B022801D90320A8
:1051A000F1E54A48006800F000700028F2D1D4E927
:1051B0000810401E41EA0011A06A41EA0021208E39
:1051C0000122C2EB500041EA40513420005DC2EBA5
:1051D000500041EA40612C20005D41EAC0603B493B
:1051E000C9683B4A114008433849C860084600680E
:1051F00040F0807008600846C06840F08070C86069
:10520000FFF710F9054606E0FFF70CF9401B0228EE
:1052100001D90320B7E52D48006800F00070002890
:10522000F2D051E02948006820F0807027490860DA
:10523000FFF7F8F8054606E0FFF7F4F8401B0228F0
:1052400001D903209FE52148006800F00070002884
:10525000F2D11E48C0681F4908401C49C86033E0AD
:10526000FFE7E069012800D18DE51848C66806F01F
:105270000301206A814225D106F0F001606A401ED8
:10528000B1EB001F1ED106F4FE41A06AB1EB002F66
:1052900018D106F078412C20005DB1EBC06F11D120
:1052A00006F4C001208E0122C2EB5000B1EB405F3A
:1052B00008D106F0C0613420005DC2EB5000B1EBB4
:1052C000406F01D001205EE500205CE50010024047
:1052D0000C809F01FCFFEEFE70B505460B4616469E
:1052E000286840680E4900EA0104200CD870C4F315
:1052F0000420587004F03F009870C4F342301870D6
:105300005EB9D87802F0E6FED870587802F0E2FE76
:105310005870987802F0DEFE9870002070BD000092
:105320003FFFFF0070B504460B46164620688068B4
:10533000586020680069C0F30E009860206800681B
:105340000E4900EA0105C5F305401870C5F30620B3
:10535000587005F07F009870A80DD8705EB9187865
:1053600002F0B8FE1870587802F0B4FE58709878C1
:1053700002F0B0FE9870002070BD00007F7F7F00BB
:1053800070B504460125002C4FD094F8250028B9AB
:10539000002084F82400204600F04CF8022084F815
:1053A00025002068C068C0F30010002838D100BF75
:1053B000CA202168486253202168486200BF204605
:1053C00002F0A0FE0546CDB9206880691849084062
:1053D00021688861216960680843A16908432168E0
:1053E00089690843216888612089E16841EA0040B1
:1053F00021680861204602F0AAFE05465DB9D4E99D
:1054000007100843616908432168896921F06041F8
:1054100008432168886100BFFF202168486200E0DE
:10542000002515B9012084F82500284670BD00002C
:10543000BFFF8FFB10B592B00446442101A8FBF7D3
:105440007CF91349206888421FD14FF40020019055
:105450008012119001A8FFF751F908B1FDF7DEFEA7
:105460000C48006840F400400A499039C1F89000A7
:1054700000BF0846806D40F4806088650846806DF6
:1054800000F48060009000BF00BF12B010BD0000AB
:1054900000280040901002402DE9F04705460C46D8
:1054A000174600BF95F82400012802D10220BDE86C
:1054B000F087012085F8240000BF022085F8250030
:1054C0004FB9607800F01000102804D1607800F027
:1054D000EF000A30607097B9E07802F005FE4FEAFD
:1054E0000049607802F000FE49EA0029A07802F045
:1054F000FBFD49EA0009207849EA403809E0E078F4
:105500000004617840EA0120A1780843217840EA4C
:10551000413800BFCA202968486253202968486280
:1055200000BF284602F0EEFD064646B90C4808EAE0
:10553000000029684860284602F009FE064600BFC0
:10554000FF202968486200BF16B9012085F82500B0
:1055500000BF002085F8240000BF3046A7E7000008
:105560003FFFFF002DE9F04704460D46904600BF7F
:1055700094F82400012802D10220BDE8F087012020
:1055800084F8240000BF022084F8250000BFCA2050
:105590002168486253202168486200BF204602F01B
:1055A000B1FD0646002E47D1B8F1000F1BD120688F
:1055B000806900F0400000B102E00020E87000BF08
:1055C000287802F091FD4FEA0049687802F08CFDDE
:1055D00049EA0029A87802F087FD49EA0009E8783D
:1055E00049EA805712E02068806900F0400000B16D
:1055F00002E00020E87000BF28780004697840EAE3
:105600000120A9780843E97840EA815712483840D8
:10561000216808602068806920F480202168886102
:10562000D5E9030108432168896908432168886135
:10563000204602F08CFD064600BFFF20216848622C
:1056400000BF16B9012084F8250000BF002084F8AF
:10565000240000BF304690E77F7F7F0070B504468E
:105660000B482168C860FEF7DDFE054607E0FEF73F
:10567000D9FE401BB0F57A7F01D9032070BD2068A8
:10568000C06800F020000028F1D00020F6E70000FC
:105690005F00010070B504462546681EB0F1807FAA
:1056A00001D301200FE0681E4FF0E02148610F2177
:1056B0004FF0FF3004F05EFC00204FF0E0218861E5
:1056C00007200861002070BD7047704770470000D8
:1056D00010B50346002200BF93F83C00012801D119
:1056E000022010BD012083F83C0000BF22F0FF0023
:1056F000CC6840EA040222F440708C6840EA04025C
:1057000022F480604C6840EA040222F400600C68D5
:1057100040EA040222F480500C6940EA040222F4B8
:1057200000504C6940EA040222F480400C6B40EACD
:10573000040222F470200C8B40EA044222F08050D4
:10574000CC6940EA0402124C1868A04203D0114C04
:105750001868A04213D122F470000C8D40EA045264
:1057600022F080700C6A40EA040222F000704C6A59
:1057700040EA040222F00050CC6A40EA04021868B1
:10578000426400BF002083F83C0000BF00BFA8E7D0
:10579000002C014000340140704770477047000002
:1057A00030B502460B4600BF92F83C00012801D1FB
:1057B000022030BD012082F83C0000BF022082F8A8
:1057C0003D0010684168106884681D4D1068A8424B
:1057D00003D01C4D1068A84203D121F47001586811
:1057E0000143194801401868014310684160144D95
:1057F0001068A84213D01068B0F1804F0FD0134D3D
:105800001068A8420BD0124D1068A84207D00D4D69
:105810001068A84203D00F4D1068A84205D124F0AB
:1058200080049868044310688460012082F83D0079
:1058300000BF002082F83C0000BF00BFB9E70000B5
:10584000002C0140003401408FFFFFFD00040040A8
:105850000008004000400140704710B504460CB9F4
:10586000012010BD94F83D0028B9002084F83C00C8
:10587000204600F029F8022084F83D00211D206810
:1058800002F094FD012084F8480000BF84F83E0037
:1058900001213F2001554020015541200155422062
:1058A00001554320015500BF00BF012084F844008A
:1058B00045200155462001554720015500BF0120D4
:1058C00084F83D000020CCE710B586B004461421D2
:1058D00001A8FAF732FF4F49206888420DD100BF76
:1058E0004D48006E40F400604B4908660846006E63
:1058F00000F40060009000BF89E02068B0F1804FA4
:1059000032D100BF4448806D40F0010042498865B3
:105910000846806D00F00100009000BF00BF00BF8E
:105920000846C06C40F00100C8640846C06C00F036
:105930000100009000BF00BF4FF400400190022022
:1059400002900020039004900120059001A94FF0DF
:105950009040FEF76BFC002211461C20FEF7E6FD8E
:105960001C20FEF7CFFD52E02C49206888424ED122
:1059700000BF2948806D40F002002749886508462D
:10598000806D00F00200009000BF00BF00BF08461D
:10599000C06C40F00100C8640846C06C00F0010013
:1059A000009000BF00BF4020019002200290002024
:1059B000039004900220059001A94FF09040FEF75B
:1059C00035FC1748174908603D20486000211548FC
:1059D0008160C1608021016189004161490081616C
:1059E0002021C16100210162FEF740FB08B1FDF7F3
:1059F00015FC00BF0B4961620846846200BF0022AB
:105A000011461D20FEF792FD1D20FEF77BFD06B01E
:105A100010BD0000002C01400010024000040040B6
:105A200030000240B40300202DE9F04104460D4649
:105A3000002700BF94F83C00012802D10220BDE8F5
:105A4000F081012084F83C0000BF022084F83D0072
:105A5000206886683F48064026F47F4620688660B6
:105A60002868702824D00CDC00F00F01002964D1D4
:105A70000011072861D2DFE800F05354555649352C
:105A80003F00354A811A90424FD009DCB0F5805F63
:105A90000DD0B0F5005F18D0B0F1101F4DD143E02C
:105AA000102943D0202942D0502946D140E046E079
:105AB000D5E902136A68206802F0EBFC206886686A
:105AC00046F077062068866039E0D5E902136A68F7
:105AD000206802F0DEFC2068806840F48040216885
